:020000040800F2
:10000000E8080024AD02000801580008B94E0008B5
:10001000F957000849040008797B00080000000037
:10002000000000000000000000000000A1600008C7
:100030005104000800000000495E0008A9600008A3
:10004000C7020008C7020008C7020008C70200086C
:10005000C7020008C7020008C7020008C70200085C
:10006000C7020008C7020008C7020008C70200084C
:10007000C7020008C7020008C7020008C70200083C
:10008000C7020008C7020008C7020008C70200082C
:10009000C7020008C7020008C7020008C70200081C
:1000A000C7020008C7020008C7020008C70200080C
:1000B000C7020008C1620008D1620008C702000838
:1000C000C7020008C7020008C7020008C7020008EC
:1000D000C7020008497B0008597B0008C7020008D6
:1000E000C7020008C702000800000000C70200089D
:1000F000C7020008C7020008C7020008C7020008BC
:10010000C7020008C7020008E1620008C702000831
:10011000C7020008C7020008C7020008C70200089B
:10012000C7020008C7020008C7020008C70200088B
:10013000C7020008C7020008C7020008C70200087B
:1001400000000000000000000000000000000000AF
:10015000C7020008C7020008C7020008697B000840
:10016000C7020008C7020008C7020008C70200084B
:10017000C7020008C7020008C7020008C70200083B
:10018000C7020008C7020008C7020008C70200082B
:10019000C7020008C7020008C7020008C70200081B
:1001A000C7020008C7020008C7020008C70200080B
:1001B000C7020008C7020008C7020008C7020008FB
:1001C000C7020008C7020008C7020008C7020008EB
:1001D000C7020008C7020008C7020008C7020008DB
:1001E000C7020008C7020008C7020008C7020008CB
:1001F000C7020008C7020008C7020008C7020008BB
:10020000C7020008C7020008C7020008C7020008AA
:10021000C7020008C7020008C7020008C70200089A
:10022000C7020008C7020008C7020008000000005B
:10023000C7020008C702000800000000C70200084B
:10024000C7020008C7020008C7020008C70200086A
:10025000C7020008C7020008C7020008C70200085A
:10026000C7020008C7020008C7020008C70200084A
:10027000C7020008C7020008C7020008000000000B
:10028000C7020008C7020008C702000800000000FB
:1002900000000000C7020008DFF80CD000F0C0F832
:1002A0000048004741800008E808002406488047CD
:1002B00006480047FEE7FEE7FEE7FEE7FEE7FEE74B
:1002C000FEE7FEE7FEE7FEE7F1610008990200089D
:1002D0002DE9F05F0546002092469B46884606467B
:1002E000814640241BE0284641464746224600F00E
:1002F0004FF853465A46C01A914110D3114618463A
:10030000224600F036F82D1A67EB01084F462246C8
:100310000120002100F02DF817EB00094E41201EAE
:10032000A4F10104DFDC484631462A464346BDE8D5
:10033000F09FD2B201E000F8012B491EFBD27047BA
:100340000022F6E710B513460A4604461946FFF7A1
:10035000F0FF204610BD30B4044696230800214625
:1003600004D0B62330BC002200F02BB82046002178
:10037000F8E7202A04DB203A00FA02F10020704757
:100380009140C2F1200320FA03F3194390407047D3
:10039000202A04DB203A21FA02F00021704721FADA
:1003A00002F3D040C2F12002914008431946704741
:1003B0000029A8BF7047401C490008BF20F0010079
:1003C000704710B4B0FA80FC00FA0CF050EA010457
:1003D00004BF10BC704749B1CCF1200421FA04F4E9
:1003E00011FA0CF118BF012121430843A3EB0C01C2
:1003F000CB1D4FEA00614FEA102042BF002010BC25
:10040000704700EBC35010440029A4BF10BC7047D4
:10041000401C490008BF20F0010010BC70470000DC
:10042000064C074D06E0E06840F0010394E8070041
:1004300098471034AC42F6D3FFF732FF24960008F9
:100440004496000800000000FEE7000000000000E5
:100450007047000000000000EFF3108072B600BF8C
:10046000FEE70000000000002DE9F041044600F026
:10047000FFFC1CB3054694F83500022822D140F257
:100480000F462768C4F2020640F26F48B7426FF089
:100490000E00C4F202081DDC6F21C4F202018F427B
:1004A0002ADC3F21C4F202018F4241DC1021C4F258
:1004B00002018F4263D028215CE000BF0120BDE82B
:1004C000F08100BF802060650120002184F8341095
:1004D000BDE8F08147451BDC40F23F41C4F2020118
:1004E0008F422DDC40F21041C4F202018F4246D00F
:1004F00040F228413EE000BF9F21C4F202018F423A
:1005000028DC7021C4F202018F4238D0882131E00A
:1005100040F29F41C4F202018F4223DC40F270415D
:10052000C4F202018F422AD040F2884122E000BF8B
:100530004021C4F202018F4221D058211AE000BFAD
:1005400040F24041C4F202018F4218D040F25841BB
:1005500010E000BFA021C4F202018F420FD0B821E9
:1005600008E000BF40F2B841C4F202018F4206D059
:1005700040F2A041C4F202018F42394607D1394608
:10058000386820F01E0041F8140B6FF080000A68F4
:10059000474500EA020008601ADC9F20C4F202000E
:1005A000874233DC5720C4F2020087425ADC102015
:1005B000C4F20200874200F097802820C4F20200B3
:1005C000874200F091804020C4F202008AE000BF20
:1005D00045F22F40C5F6020087422DDC40F2B740BD
:1005E000C4F2020087424BDC40F27040C4F20200C9
:1005F000874279D040F28840C4F20200874273D02B
:1006000040F2A040C4F202006CE000BF40F227407C
:10061000C4F20200874243DCA020C4F202008742F9
:1006200062D0B820C4F2020087425DD040F2104090
:10063000C4F2020056E000BF45F26B40C5F602006E
:1006400087423FDC45F23040C5F6020087424BD07E
:1006500045F24440C5F60200874245D045F2584075
:100660003EE000BF5820C4F2020087423CD0702018
:10067000C4F20200874237D08820C4F2020031E081
:1006800040F2B840C4F2020087422DD045F2084043
:10069000C5F60200874227D045F21C4020E000BF8B
:1006A00040F22840C4F2020087421DD040F2404090
:1006B000C4F20200874217D040F25840C4F2020050
:1006C00010E000BF45F26C40C5F6020087420BD037
:1006D00045F29440C5F60200874205D045F28040BD
:1006E000C5F60200874204D1206E016821F48071B2
:1006F0000160386820F00100386000BF3868C0072A
:1007000010D000F0B5FB401B0628F7D32020606511
:10071000032084F835000120002184F83410BDE85E
:10072000F08100BF2068B04210DC6F21C4F20201EA
:1007300088421DDC3F21C4F20201884234DC1021D2
:10074000C4F20201884255D028214FE040451BDC0D
:1007500040F23F41C4F2020188422DDC40F21041D8
:10076000C4F20201884245D040F228413EE000BF79
:100770009F21C4F20201884228DC7021C4F20201E8
:10078000884237D0882131E040F29F41C4F2020113
:10079000884223DC40F27041C4F20201884229D031
:1007A00040F2884122E000BF4021C4F202018842A9
:1007B00020D058211AE000BF40F24041C4F20201AB
:1007C000884217D040F2584110E000BFA021C4F287
:1007D000020188420ED0B82108E000BF40F2B841C3
:1007E000C4F20201884205D040F2A041C4F20201E5
:1007F00088425BD1D4E9161202F01F023F2303FAAC
:1008000002F28A6040455BDC9F21C4F2020188420B
:1008100014DC5721C4F20201884227DC1021C4F203
:100820000201884200F0A2802821C4F2020188421D
:1008300000F09C804021C4F2020195E040F2274183
:10084000C4F2020188421FDCA021C4F202018842E6
:1008500000F08C80B821C4F20201884200F086804A
:1008600040F21041C4F202017EE000BF5821C4F200
:10087000020188427AD07021C4F20201884275D008
:100880008821C4F202016FE040F22841C4F2020163
:1008900088426BD040F24041C4F20201884265D0E8
:1008A00040F25841C4F202015EE000BFD4E91612E2
:1008B00002F01F02012303FA02F24A604045A3DD61
:1008C00045F22F41C5F60201884217DC40F2B741DC
:1008D000C4F20201884227DC40F27041C4F20201F6
:1008E000884243D040F28841C4F2020188423DD0A0
:1008F00040F2A041C4F2020136E000BF45F26B4174
:10090000C5F6020188421FDC45F23041C5F60201FE
:1009100088422BD045F24441C5F60201884225D0D9
:1009200045F258411EE000BF40F2B841C4F2020156
:1009300088421BD045F20841C5F60201884215D015
:1009400045F21C410EE000BF45F26C41C5F60201C4
:1009500088420BD045F29441C5F60201884205D089
:1009600045F28041C5F6020188420BD1616EA26E4C
:10097000E06E4A6030B1016821F480710160D4E911
:100980001C014160012084F835000020002184F81A
:100990003410BDE8F081000080B5D8B190F8351072
:1009A000022919D140F20F420168C4F202029142B9
:1009B00016DC6F23C4F20203994227DC3F23C4F202
:1009C000020399423EDC1023C4F2020399425FD035
:1009D000282359E0012080BD80214165012080BD90
:1009E00040F26F43C4F2020399421BDC40F23F43E2
:1009F000C4F2020399422DDC40F21043C4F2020318
:100A0000994245D040F228433EE000BF9F23C4F204
:100A10000203994228DC7023C4F20203994237D0C2
:100A2000882331E040F29F43C4F20203994223DC61
:100A300040F27043C4F20203994229D040F2884345
:100A400022E000BF4023C4F20203994220D0582381
:100A50001AE000BF40F24043C4F20203994217D0AB
:100A600040F2584310E000BFA023C4F202039942B1
:100A70000ED0B82308E000BF40F2B843C4F202032E
:100A8000994205D040F2A043C4F20203994275D1C5
:100A900091424FF0040280F8352011DC6F20C4F23F
:100AA0000200814222DC3F20C4F20200814239DC94
:100AB0001020C4F20200814259D0282054E000BF27
:100AC00040F26F40C4F2020081421BDC40F23F4022
:100AD000C4F2020081422DDC40F21040C4F2020058
:100AE000814244D040F228403EE000BF9F20C4F243
:100AF0000200814228DC7020C4F20200814236D01C
:100B0000882031E040F29F40C4F20200814223DCA1
:100B100040F27040C4F20200814228D040F2884086
:100B200022E000BF4020C4F2020081421FD05820C2
:100B30001AE000BF40F24040C4F20200814216D0E9
:100B400040F2584010E000BFA020C4F202008142F1
:100B50000DD0B82008E000BF40F2B840C4F2020057
:100B6000814204D040F2A040C4F2020081420868F1
:100B700020F001000860002080BD00BF0A6822F05C
:100B80000E020A6045F25742C5F6020291420A6817
:100B900022F001020A600FDC45F22F42C5F6020284
:100BA000914219DC45F20842C5F60202914229D071
:100BB00045F21C4222E000BF45F27F42C5F6020228
:100BC000914213DC45F25842C5F60202914219D017
:100BD00045F26C4212E000BF45F23042C5F6020217
:100BE00091420FD045F2444208E000BF45F29442E2
:100BF000C5F60202914205D045F28042C5F60202D6
:100C000091421AD1D0E9181CD0E916E30A6822F4FF
:100C100080720A6003F01F01012202FA01F1CEF88E
:100C20000410816ECCF80410C16E31B10A6822F450
:100C300080720A60D0E91C124A60012180F83510E8
:100C4000026D002180F834100AB190470021084657
:100C500080BD000000000000B0B5044600F008F9B7
:100C600040F208010546C2F20041621C097818BF33
:100C70000C4400BF00F0FCF8401BA042FAD3B0BD0A
:100C80002DE9F04F82B00D68002D00F0CB8000F10F
:100C9000264242F2004302F1FF72C5F602030A2621
:100CA00098424FEAB22444F2F44E08BF0926092CB8
:100CB00040F2040C38BF4FEAB226C5F6020EC5F664
:100CC000000C009600220027002609E001360D687E
:100CD00035FA06F307F1040702F1020200F0A280E0
:100CE000012303FA06F415EA0408EFD0D1F804A0B2
:100CF00003230AF0030B9340ABF101056FEA0309EC
:100D0000012D0FD88368CD6803EA090395402B4372
:100D10008360CAF300154368A34305FA06F423432E
:100D2000436005E0BBF1030F02D14FF0030B21E05C
:100D3000C3688C6803EA09039440BBF1020F43EADD
:100D40000403C36016D16FF0030307F01C0503EA28
:100D500056030F24034404FA05FBD3F820A00C69C2
:100D60002AEA0B0AAC4044EA0A041C62D1F804A047
:100D70000AF0030B03680BFA02F403EA09031AF4FE
:100D8000403F43EA04030360A0D0DEF8003040F2A5
:100D9000084A43F00203CEF80030DEF80030C5F612
:100DA000000A03F00203019326F00303019C07F0FD
:100DB0000C040F2553F80A90A54029EA0509009D67
:100DC00005FA04F444EA090443F80A404FF0B04A33
:100DD000DAF800904C6849EA0805E30258BF29EAAE
:100DE0000805A302CAF80050DCF8009049EA08059B
:100DF00058BF29EA0805A303CCF80050DCF880901E
:100E000049EA080558BF29EA0805E403CCF88050F0
:100E1000DCF87C3043EA080558BF23EA0805CCF823
:100E20007C5053E702B0BDE8F08F000000000000E6
:100E30000069084018BF0120704700000000000052
:100E4000426902EA0103914341EA0341816170472B
:100E5000002A08BF090481617047000000000000FB
:100E600041F20000C5F600400068000C7047000029
:100E700040F2DC40C2F20040006870470000000011
:100E800090F84120202A03D190F84020012A01D176
:100E900002207047242280F841200268136823F062
:100EA00001031360136823F480531360136819431C
:100EB0001160116841F001011160202180F841109A
:100EC000002180F840100846704700000000000034
:100ED00090F84120202A03D190F84020012A01D126
:100EE00002207047242280F841200268136823F012
:100EF00001031360136823F4706343EA0121116056
:100F0000116841F001011160202180F84110002199
:100F100080F840100846704781B044F2F441C5F6AD
:100F200002010A6842F002020A60096801F0020147
:100F3000009140F20441009AC5F600010A6810438E
:100F4000086001B07047000010B310B5044690F877
:100F5000410028B9002084F84000204600F068F9DC
:100F6000242084F8410094E80910E2680168012A0D
:100F700021F00101016023F070610161816821F4B9
:100F80000041816006D14CF4004181600CE000BF5B
:100F900001207047022A4CF40441816004D1416869
:100FA00041F4006103E000BF416821F40061416049
:100FB00004F1100C416841F0007141F400414160BE
:100FC000C16821F40041C1609CE80E10114341EA60
:100FD0000321C160216A41EA0C010160016841F00E
:100FE0000101016000206064202184F84110206329
:100FF00084F8420010BD00002DE9F04F81B0044696
:1010000090F8410020280DD1DDF82880B8F1000FBC
:101010000CD0DDF82CA0BAF1000F07D094F84000F6
:1010200001280BD1022001B0BDE8F08F4FF4007011
:101030006064012001B0BDE8F08F00BF1D46174677
:101040008946012084F84000FFF712FF2168064618
:101050008A69120449D4212084F84100402084F890
:101060004200E8B24FF0000B6FF39F29C4F844B080
:10107000C4F8248049EA0040A4F82AA049F6004AAE
:10108000CFF6004AC4F834B04A68AAF580631A4023
:10109000DDF830801044324640F0807040F400505B
:1010A00048602046414604F06BF8A8B9012D20683D
:1010B00008D0390A816220464146324604F060F881
:1010C00050B92068F9B2816280210022204643464F
:1010D000009603F0A5FF48B384F840B0012001B0AA
:1010E000BDE8F08F88690004B5D519212046324645
:1010F00003F0E6FE00289CD1FFF7BAFE801B2168B2
:101100001A28EFD388690004ECD5606C40F0200009
:101110006064202084F84100002084F8420084F8B4
:101120004000012001B0BDE8F08F00BF608D0025B8
:10113000C0F2FF15B0F5807F08D320682B4650F829
:10114000041F01EA0A02FF210BE000BF618D206845
:10115000CAB250F8043F03EA0A0343EA02424FF0DE
:1011600000731A43FF2742EA09020260218511E059
:10117000618D20682185C9B250F8042F02EA0A0265
:1011800042EA01414FF00072114341EA0901016056
:10119000608D78B320464146324603F0F1FF0028C7
:1011A0007FF447AF606A216810F8012B8A626062A1
:1011B000608D01386085208D01382085618D002982
:1011C000E6D00004E4D18021002220464346009668
:1011D00003F026FF00287FF42CAF608DB0F5807FF0
:1011E000C6D3206827852A4650F8041F01EA0A0161
:1011F000CAE700BF20464146324603F081FF00287F
:101200007FF417AF206820214EF60003C161CFF6AE
:10121000006342681A40426084F84110002084F85C
:10122000420084F8400001B0BDE8F08F00000000EB
:101230002DE9F043B7B0044602A8C0210025CDE94E
:101240003555CDE933553295FFF77AF845F600412B
:101250002068C4F2000188423AD045F60001C4F289
:101260000001884240F07F800820029002A80024FC
:10127000039400F009FB08B1FFF7EEF844F2E045F3
:101280000021C5F60205C5F60201286840F00200FB
:101290002860286800F00200019001984FF4406037
:1012A00032901220CDE933040420369001F580609D
:1012B00032A93594FFF7E4FCA86840F48000A860E8
:1012C000A86800F480000190019837B0BDE8F08371
:1012D0000820029002A8039500F0D6FA08B1FFF7A3
:1012E000BBF844F2E0460024C5F60206C5F6020447
:1012F00032AD4FF012083068294640F004003060EB
:101300003068002700F0040001900198306840F038
:101310000100306030684FF0040900F001000190D6
:1013200001984FF40070329004F50060CDF8CC8045
:10133000CDE93477CDF8D890FFF7A2FC4FF4807058
:101340002946CDE932082046CDF8D890CDE934774A
:10135000FFF796FCB06840F40000B060B06800F49D
:1013600000000190019837B0BDE8F0830000000054
:1013700040F2080040F2DC41C2F20040C2F20041FB
:1013800000780A6810440860704700000000000000
:1013900080B5032000F0FCF801F0D2F944F21841C6
:1013A00048F6E253C5F60201C0F600030A68096870
:1013B00001F00F01C2F30322595C9A5C01F01F0196
:1013C00002F01F02D04040F21402C2F2004220FAA2
:1013D00001F1116040F21001C2F2004108600F20DB
:1013E00000F00AF800281CBF012080BD00F07CF846
:1013F000002080BD0000000070B540F20806C2F277
:1014000000463178E1B1044640F21000C2F20040DB
:101410004FF47A72B2FBF1F10068B0FBF1F001F029
:10142000CBFC0F2C4FF0010508D838B94FF0FF3036
:1014300000222146002500F07BF87460284670BD2C
:10144000012070BD0000000010B54EF6A05E41788E
:10145000CEF2000E90F800C04EF8081CDEF8001026
:1014600021F00101CEF8001041684EF8041C017B08
:10147000C37A827A447B1B0643EA0171837B41EA8B
:10148000C241C27B41EA8441447A41EA4341007A45
:1014900041EA024141EA042141EA400040EA0C00ED
:1014A000CEF8000010BD00004EF62450CEF2000031
:1014B000BFF35F8F016821F4803101600021016773
:1014C00070470000000000004EF6245140F001007B
:1014D000CEF200010867086840F480300860BFF36E
:1014E0004F8FBFF36F8F704781B044F2F440C5F661
:1014F0000200016841F002010160006800F0020092
:101500000090009801B07047002848BF704781B232
:1015100000F01F000122490902FA00F04EF2001209
:10152000CEF2000242F821007047000000000000E7
:1015300070B54EF60C5C4FF0FF36CEF2000C00F1A9
:10154000604505F56445DCF80030C3F3022E8EF0EB
:101550000703042B28BF0423BEF1030406FA03F398
:1015600021EA030100F00F0338BF0024043B0028E8
:10157000634406FA04F048BF03F10C05A14022EAD7
:10158000000008430001287070BD0000000000004A
:101590004EF60C514FF6FF03CEF200010A681A40D6
:1015A00060F30A2242F0806040F0FD7008607047EE
:1015B000B0B544F60C05C5F6020529684907296847
:1015C00006D401F00701081A18BF0120B0BD00BF02
:1015D00021F0070108432860FFF74AFC044600BFDA
:1015E00055F8080C800407D4FFF742FC001BB0F547
:1015F0007A7FF5D90120B0BD0020B0BD0000000009
:1016000080B501F015F844F2204148F6E252C5F6E3
:101610000201C0F600020968C1F30211515C01F039
:101620001F01C84080BD000080B544F2384EC5F6A9
:10163000020E5EF8103C5EF8101C5EF80C2CC1F334
:10164000053CDEF80410BCF1000F15D0C908D20625
:1016500001EAE2716FF35F3100EE101A03F003014B
:101660000229B8EE400A0DD081B95EF8381C89060F
:1016700010D49FED361A1BE000218160C0E90011F3
:1016800080BD00BF9FED301A12E000BF9FED2D1A04
:101690000EE000BF5EF8381C49F20002C0F2D03202
:1016A000C1F3C10122FA01F101EE101AB8EE411A9C
:1016B000DEF800109FED263A6FF35F2102EE101A5C
:1016C000DEF80010C1F34621B8EE422A00EE032AEC
:1016D00000EE10CAB7EE003AB8EE400A81EE000AFA
:1016E00032EE031A02EE101AB8EE422A20EE010A78
:1016F00032EE031A80EE011ABCEEC11A80ED001A18
:10170000DEF80010C1F3064101EE101AB8EE411ADE
:1017100031EE031A80EE011ABCEEC11A80ED011AF7
:10172000DEF80010C1F3066101EE101AB8EE411A9E
:1017300031EE031A80EE010ABCEEC00A10EE101A58
:10174000816080BD0024744A20BCBE4B0024744CD0
:10175000000000390000000080B544F2404EC5F69C
:10176000020E5EF8183C5EF8181C5EF8142CC1F3EB
:10177000055CDEF80410BCF1000F15D0C908D205D5
:1017800001EAE2716FF35F3100EE101A03F003011A
:101790000229B8EE400A0DD081B95EF8401C8906D6
:1017A00010D49FED361A1BE000218160C0E90011C2
:1017B00080BD00BF9FED301A12E000BF9FED2D1AD3
:1017C0000EE000BF5EF8401C49F20002C0F2D032C9
:1017D000C1F3C10122FA01F101EE101AB8EE411A6B
:1017E000DEF800109FED263A6FF35F2102EE101A2B
:1017F000DEF80010C1F34621B8EE422A00EE032ABB
:1018000000EE10CAB7EE003AB8EE400A81EE000AC8
:1018100032EE031A02EE101AB8EE422A20EE010A46
:1018200032EE031A80EE011ABCEEC11A80ED001AE6
:10183000DEF80010C1F3064101EE101AB8EE411AAD
:1018400031EE031A80EE011ABCEEC11A80ED011AC6
:10185000DEF80010C1F3066101EE101AB8EE411A6D
:1018600031EE031A80EE010ABCEEC00A10EE101A27
:10187000816080BD0024744A20BCBE4B0024744C9F
:1018800000000039000000002DE9F0470446C07850
:1018900044F22C480007C5F6020833D5A06E4FEA83
:1018A000305103290CD8DFE801F003111D2600BFD9
:1018B000D8F8001041F40031C8F800101BE000BF58
:1018C00001266078C0070BD020E000BF04F10800BB
:1018D000022104F0BDFA064660B16078C00715D158
:1018E000354646E004F12800022104F045FB064697
:1018F0000028F2D1A06ED8F8241021F4401108433A
:10190000C8F8240000266078C007E9D0A06D04283C
:101910000ED83546DFE800F00412181E1E0000BF86
:10192000D8F80000354640F40030C8F8000011E057
:1019300001250127607880071FD452E004F10800D8
:10194000002104F085FA04E004F12800002104F0ED
:1019500013FB05462F461DB1607880070DD440E08B
:10196000D8F82400A16D20F0070000250843C8F82E
:10197000240037466078800733D5E06D4FEAB01019
:1019800004280DD8DFE800F00412181E1E0000BF66
:10199000D8F8000040F40030C8F8000012E000BFA2
:1019A00001250126607840071FD455E004F10800A6
:1019B000002104F04DFA04E004F12800002104F0B5
:1019C000DBFA05462E461DB1607840070DD443E092
:1019D000D8F82400E16D20F4E07000250843C8F831
:1019E00024003E466078400736D5D4F8A8004FEA78
:1019F000705004280CD8DFE800F00313191F1F00F3
:101A0000D8F8000040F40030C8F8000014E000BF2F
:101A100001254FF001096078000721D456E000BF8E
:101A200004F10800002104F013FA04E004F1280096
:101A3000002104F0A1FA0546A9461DB1607800070F
:101A40000ED443E0D8F82C00D4F8A81020F460009D
:101A500000250843C8F82C00B1466078000735D54A
:101A6000D4F8AC004FEA306004280DD8DFE800F06D
:101A70000412181E1E0000BFD8F8000040F4003009
:101A8000C8F8000012E000BF01250127E0788007B8
:101A900020D44EE004F10800002104F0D9F904E05C
:101AA00004F12800002104F067FA05462F461DB115
:101AB000E07880070ED43CE0D8F82C00D4F8AC10C5
:101AC00020F0E06000250843C8F82C004F46E0787D
:101AD00080072ED5E06C4FEA301003280ED8DFE8DF
:101AE00000F00903130900BFD8F8000040F40030EB
:101AF000C8F800002E467DB912E000BF012501267E
:101B00006078C00619D44CE004F10800022104F00A
:101B10009FF905462E461DB16078C0060DD440E001
:101B2000D8F82000E16C20F0300000250843C8F808
:101B300020003E466078C00633D5206E4FEA303034
:101B400004280DD8DFE800F00412181E1E0000BFA4
:101B5000D8F8000040F40030C8F8000012E000BFE0
:101B600001250127607880061FD44EE004F10800AB
:101B7000002104F06DF904E004F12800002104F0D4
:101B8000FBF905462F461DB1607880060DD43CE078
:101B9000D8F82400216E20F4E04000250843C8F85E
:101BA00024003746607880062FD5606E4FEA3040BB
:101BB000052809D8DFE800F0040E1404040400BF6F
:101BC0002E46ADB918E000BF012501266078400619
:101BD0001FD44FE004F10800012104F039F904E0BA
:101BE00004F12800012104F0C7F905462E461DB175
:101BF000607840060DD43DE0D8F82400616E20F4F2
:101C0000E02000250843C8F824003E4660784006DE
:101C100030D5D4F8B0004FEA3070052808D8DFE896
:101C200000F0030D130303032F46ADB918E000BF06
:101C3000012501276078000620D442E004F1080065
:101C4000012104F005F904E004F12800012104F069
:101C500093F905462F461DB1607800060ED430E09A
:101C6000D8F82C00D4F8B01020F0E040002508434C
:101C7000C8F82C0037466078000622D5206F58B18E
:101C8000B0F1005F0CD0B0F1805F2FD1D8F8000028
:101C900040F40030C8F800002E469DB908E000BFAF
:101CA00004F10800012104F0D3F805462E464DB991
:101CB000D8F82400216F20F0405000250843C8F8D0
:101CC00024003E46E078C00733D0A06C032813D828
:101CD000DFE800F008021A08D8F8000040F40030ED
:101CE000C8F80000A946BDB91AE000BF01250126C9
:101CF000E078C007E9D11CE001254FF00109A07888
:101D000040061AD51CE000BF04F10800022104F0CF
:101D10009FF80546A9461DB1A07840060DD50FE0F5
:101D2000D8F82000A16C20F0030000250843C8F873
:101D30002000B146A078400602D44F4618E000BF0C
:101D4000D8F8D40340F48070C8F8D403FFF790F8B3
:101D5000064600BFD8F8D403C00507D4FFF788F8BB
:101D6000801B6428F6D90325032701E02F468DB197
:101D70002078C00761D0E06F4FEAF00005283BD81B
:101D8000DFE800F004404604040400BF002D2E46A6
:101D900046D149E0D8F84410D4F8B400414011F4D9
:101DA000407F11D0D8F84410D8F8442042F4803253
:101DB000C8F84420D8F8442021F4407122F480323D
:101DC000C8F84420C8F84410B0F5807F40F0DE82A7
:101DD000FFF74EF8064641F2883A0325032700BF75
:101DE000D8F84400800700F1CF82FFF741F8801B4C
:101DF0005045F5D9BCE700BF0126012520788007B2
:101E00001FD44CE004F10800012104F021F804E0A3
:101E100004F12800012104F0AFF805462E461DB15B
:101E2000207880070DD43AE0D8F82800E16F20F040
:101E3000380000250843C8F828003E46207880076F
:101E40002DD5A06F052809D8DFE800F0040E140492
:101E5000040400BF2F46ADB918E000BF01270125DB
:101E6000207840071FD44DE004F10800012103F061
:101E7000EFFF04E004F12800012104F07DF805469D
:101E80002F461DB1207840070DD43BE0D8F828003C
:101E9000A16F20F0070000250843C8F82800374646
:101EA000207840072ED5D4F89400052808D8DFE81C
:101EB00000F0030D130303032E46ADB918E000BF75
:101EC000012601252078800620D451E004F1080085
:101ED000012103F0BDFF04E004F12800012104F01A
:101EE0004BF805462E461DB1207880060ED43FE003
:101EF000D8F82C00D4F8941020F0070000250843EF
:101F0000C8F82C003E462078800631D5D4F89000E1
:101F10004FEA3070052809D8DFE800F0040E1404F9
:101F2000040400BF2F46ADB918E000BF012701250A
:101F30002078400620D451E004F10800002103F08D
:101F400087FF04E004F12800022104F015F805469B
:101F50002F461DB1207840060ED43FE0D8F8280067
:101F6000D4F8901020F0E04000250843C8F828007D
:101F700037462078400631D5D4F89C004FEAB0208F
:101F8000052809D8DFE800F0040E1404040400BF9B
:101F90002E46ADB918E000BF0126012520780006C5
:101FA00020D454E004F10800002103F051FF04E0C4
:101FB00004F12800022103F0DFFF05462E461DB183
:101FC000207800060ED442E0D8F82C00D4F89C10FB
:101FD00020F4E05000250843C8F82C003E46207845
:101FE000000634D5D4F8A0004FEA703005280FD889
:101FF000DFE800F004141A04040400BF2F46E5B122
:102000002068010727D4C1063ED4000355D475E0EB
:102010000127012520680107F5D51CE004F108001F
:10202000002103F015FF04E004F12800022103F071
:10203000A3FF0546002D2F46E2D1D8F82C00D4F896
:10204000A01020F4604000250843C8F82C00374653
:1020500020680107D7D5D4F88400B0F5805F09D196
:1020600004F12800022103F087FF002818BF012790
:10207000D4F88400D8F8281021F440510843C8F857
:1020800028002068C106C0D5D4F89800B0F5807F3C
:1020900009D104F12800022103F06EFF002818BFC7
:1020A0000127D4F89800D8F82C1021F44071084387
:1020B000C8F82C002068000320D5D4F8A400B0F59F
:1020C000003F0FD0B0F5803F06D078BB04F1080088
:1020D000002103F0BDFE04E004F12800022103F01A
:1020E0004BFF05462E4655B9D8F82C00D4F8A4105D
:1020F00020F4403000250843C8F82C003E46A07864
:1021000040072BD5D4F88800B0F5401F0BD0B0F5B0
:10211000001F11D0B0F5801F2AD1D8F8000040F47C
:102120000030C8F800002F46CDB90DE0012601258A
:10213000A0784007E6D411E004F12800012103F063
:102140001BFF05462F4655B9D8F82800D4F888104B
:1021500020F4401000250843C8F828003746A0782E
:10216000C0070AD13E462168880016D533E000BF7B
:1021700001270125A078C007F4D0206DB0F5803F7D
:1021800010D018BBD8F8000040F40030C8F80000A8
:102190002E4685B1216888001DD460688A0326D444
:1021A00069E000BF04F10800022103F051FE05467A
:1021B000002D2E46EED1D8F82000216D20F480307D
:1021C00000250843C8F82000CCE700BF0126012500
:1021D00021688800E1D504F12800022103F0CCFE3B
:1021E000002818BF0126D4E900108A0343D5D4F88B
:1021F00080206FF0010303EB3223022B0BD34FEA55
:10220000322343B1012B40F0B980D8F8003043F4B9
:102210000033C8F800303DB3CA022FD4CA0037D407
:102220008A0240D44A0048D4CA0F55D109025DD46D
:10223000C10766D181076FD4410779D4010700F146
:102240008380C10600F18C80800607D504F1280048
:10225000022103F091FE002818BF0125002D18BFB0
:1022600001252846BDE8F087D8F8283023F44073CC
:102270001A43C8F828203546CA02CFD5D8F82420FA
:10228000636F22F000421A43C8F82420CA00C7D561
:1022900058F81C2CD4F8B83022F480421A4348F87D
:1022A0001C2C8A02BED5D8F82420E36E22F080725E
:1022B0001A43C8F824204A00B6D558F81C2C22F43A
:1022C000004248F81C2CD4F8BC2058F81C3C1A4397
:1022D00048F81C2CCA0FA9D0D8F82020636D22F032
:1022E00040521A43C8F820200902A1D5D8F8281076
:1022F000D4F88C2021F440011143C8F82810C107FC
:1023000098D004F10800002103F0A2FD002818BFB6
:102310000546606881078FD504F10800012103F0AC
:1023200097FD002818BF0546606841077FF586AF16
:1023300004F10800022103F08BFD002818BF0546B8
:10234000606801077FF57DAF04F12800002103F0EC
:1023500013FE002818BF05466068C1067FF574AFFC
:1023600004F12800012103F007FE002818BF0546EC
:10237000606880067FF572AF68E700BF0125CA027A
:102380007FF54CAF7AE700BFD4F8B4004FF6CF73B7
:1023900058F81C2CC0F2FF0300F4407122F47C5268
:1023A00003EA10136FF31F30B1F5407F08BF1A43E3
:1023B000002548F81C2CD8F844100843C8F84400FD
:1023C000FFF7BBBC000000002DE9F04381B00028FE
:1023D00000F02A8142F200080446C5F2002889462E
:1023E000D8F8000000F00F0088420ED2D8F80000A4
:1023F00020F00F0040EA0900C8F80000D8F80000FB
:1024000000F00F00484540F00F81206844F2184763
:102410004107C5F602070AD521693A6802F0700241
:10242000914204D93A6822F07002114339600107E1
:102430000AD561697A6802F07002914204D97A681B
:1024400022F0700211437960C1060AD5A1697A6849
:1024500002F4E062914204D97A6822F4E062114306
:10246000796081060AD5E169BA6802F0700291428A
:1024700004D9BA6822F070021143B96010F0020169
:102480000AD0E2683B6803F00F039A4204D93B6824
:1024900023F00F031A433A60C20746D0386820F48D
:1024A0007061D4E90102012841EA0201396009D0D2
:1024B00003280DD0022811D157F8181C890340F1C8
:1024C000B38010E057F8181CC90540F1AD800AE050
:1024D00057F8181C890140F1A78004E057F8181C30
:1024E000490740F1A18057F8081C21F00701084373
:1024F00047F8080CFEF7BCFC064641F2883500BFE1
:1025000057F8080C616800F03800B0EBC10F09D033
:10251000FEF7AEFC801BA842F2D9032001B0BDE853
:10252000F08300BF206800F0020151B1E1683A6811
:1025300002F00F02914204D23A6822F00F021143D6
:102540003960D8F8001001F00F0149450DD9D8F8CD
:10255000001021F00F0141EA0901C8F80010D8F875
:10256000001001F00F0149455ED141070AD52169EC
:102570003A6802F07002914204D23A6822F0700286
:102580001143396001070AD561697A6802F0700267
:10259000914204D27A6822F0700211437960C10638
:1025A0000AD5A1697A6802F4E062914204D27A689D
:1025B00022F4E0621143796080060AD5E069B968C7
:1025C00001F07001884204D2B96821F0700108431B
:1025D000B86000F0B5F8396848F6E2533A68C0F6DA
:1025E0000003C1F3032102F00F02595C9A5C01F071
:1025F0001F0120FA01F102F01F0040F2140221FA3B
:1026000000F0C2F20042106040F20C0040F21002F2
:10261000C2F20040C2F200420068116001B0BDE8A1
:10262000F043FEF7E9BE00BF012001B0BDE8F08332
:1026300080B500F085F844F2184148F6E253C5F63B
:102640000201C0F600030A68096801F00F01C2F335
:102650000322595C9A5C02F01F0220FA02F201F098
:102660001F0040F2140122FA00F0C2F2004108609B
:1026700040F21001C2F200410A6080BD000000007B
:1026800080B500F05DF844F2184C48F6E251C5F60A
:10269000020CC0F60001DCF80020DCF8003003F08A
:1026A0000F03C2F30322CB5C8A5C02F01F02D0400E
:1026B00003F01F0240F2140320FA02F2C2F20043B8
:1026C0001A6040F21003C2F200431860DCF8040004
:1026D000C0F30210085C00F01F0022FA00F080BD79
:1026E00080B500F02DF844F2184C48F6E251C5F6DA
:1026F000020CC0F60001DCF80020DCF8003003F02A
:102700000F03C2F30322CB5C8A5C02F01F02D040AD
:1027100003F01F0240F2140320FA02F2C2F2004357
:102720001A6040F21003C2F200431860DCF80400A3
:10273000C0F30220085C00F01F0022FA00F080BD08
:1027400044F20041C5F602010869C0F3C200032843
:1027500010D002282ED098BB0868800649F20000ED
:10276000C0F2D03058BF70470968C1F3C101C840FA
:10277000704700BF8A6A886AC0F3051CC86ABCF14A
:10278000000F4B6B22D000F0010002F00302404228
:10279000022A00EAD3006FF35F3000EE100AB8EEB1
:1027A000400A15D0C2B90868800619D49FED281ACE
:1027B00023E000BF47F64000C0F27D10704700BF25
:1027C00040F60010C0F23D00704700BF0020704787
:1027D0009FED1E1A11E000BF9FED1B1A0DE000BF18
:1027E000086849F20002C0F2D032C0F3C10022FAF8
:1027F00000F001EE100AB8EE411A086B9FED153A91
:102800006FF35F2002EE100A086BC0F34620B8EEAB
:10281000422A013000EE032A00EE10CAB7EE003A59
:10282000B8EE400A81EE000A32EE031A20EE010AE9
:1028300001EE100AB8EE411A80EE010ABCEEC00AA1
:1028400010EE100A704700BF0024744A20BCBE4B33
:102850000024744C00000039F0B581B0002800F06D
:1028600063810446007844F20046C007C5F60206BC
:1028700022D12078800740F1BC80306910F0380107
:10288000B06A3FD0182908BF5FEA80703AD0E0688C
:102890003168002862D021F0190108433060FEF74A
:1028A000E7FA05463068400748D4FEF7E1FA401BD6
:1028B0000228F7D977E100BF306900F03801B06A2B
:1028C000102905D018290BD100F00300022807D1E8
:1028D00030688003CDD560680028CAD124E100BFEC
:1028E000606800284CD0B0F5A02F61D0B0F5803FD3
:1028F00062D0306820F480303060306820F480206E
:102900005DE000BF30684007E06802D5002800F0B5
:102910000B81316821F0190108433060FEF7A8FAF5
:10292000054600BF3068400708D4FEF7A1FA401BF7
:1029300002284FF00300F5D921E200BFFEF790FA1C
:1029400041F20301884249D820697168402821F486
:102950007C314BD141F400304AE000BF21F001004E
:102960003060FEF785FA05463068400741D5FEF72E
:102970007FFA401B02284FF00300F5D9FFE100BFAA
:10298000306820F480303060306820F4802030607F
:10299000FEF76EFA054600BF306880037FF569AF29
:1029A000FEF766FA401B64284FF00300F4D9E6E115
:1029B000306840F480203060306840F4803030600F
:1029C000FEF756FA054600BF306880033FF551AF69
:1029D000FEF74EFA401B6428F6D9E4E070682169DE
:1029E00020F0FE4040EA016002E000BF41EA003012
:1029F00070602078C00654D5306900F03801B06AA4
:102A0000082905D0182919D100F00300012815D193
:102A10003068C00503D5E069802840F08580FEF766
:102A20001FFA41F2030188421ED8206A71682028EB
:102A300021F0F84132D141F0804031E0E0690028D6
:102A4000306819D040F080003060FEF711FA05467A
:102A50003068C005E3D4FEF70BFA401B02284FF0A4
:102A60000300F5D98BE100BFF068216A20F07C50AB
:102A700040EA0160F06014E020F080003060FEF772
:102A8000F7F905463068C0050BD5FEF7F1F9401B94
:102A900002284FF00300F5D971E100BF41EA8060E0
:102AA00070602078000743D42078800654D42078C2
:102AB000400765D4656A9DB3306900F03800182876
:102AC00040F0A880012DB16A306B2DD001F00302D7
:102AD000A36A9A4228D1C1F30511E26A914223D137
:102AE0000146226B6FF35F21013A91421CD1C0F382
:102AF0004622616B01398A4216D1C0F30642A16BAE
:102B000001398A4210D1C0F30660E16B0139884275
:102B10000AD1706BA16CC0F3CC00814240F03281CD
:102B2000002001B0F0BD00BF012001B0F0BD00BF2A
:102B300060690028706F39D040F001007067FEF7BF
:102B400097F90546706F8007AED4FEF791F9401BE8
:102B50000228F7D927E000BFA0690028306847D0D5
:102B600040F480503060FEF783F9054630688004F9
:102B70009DD4FEF77DF9401B0228F7D913E000BF72
:102B8000D6F8000440F48070C6F80004FEF770F92F
:102B9000054600BFD6F80004C00519D4FEF768F951
:102BA000401B6428F6D9032001B0F0BD20F00100DD
:102BB0007067FEF75DF90546706F80077FF574AFAB
:102BC000FEF756F9401B02284FF00300F4D9D6E077
:102BD000A068002840D0052858D001285AD0306F6E
:102BE00020F001003067306F20F0040055E000BF96
:102BF00020F480503060FEF73BF9054630688004D1
:102C00007FF555AFFEF734F9401B02284FF0030063
:102C1000F4D9B4E0306820F080703060FEF728F915
:102C2000022D05460CD100BF3068800148D5FEF763
:102C30001FF9401B02284FF00300F5D99FE000BFA9
:102C4000306880017FF56CAFFEF712F9401B022857
:102C50004FF00300F4D992E0306F20F001003067AC
:102C6000306F20F004003067FEF702F9054641F2AC
:102C70008837306F80077FF51DAFFEF7F9F8401BEE
:102C8000B8424FF00300F4D979E000BF306F40F054
:102C900004003067306F40F001003067FEF7E8F85D
:102CA000054641F2883700BF306F80073FF502AF1D
:102CB000FEF7DEF8401BB8424FF00300F4D95EE0A7
:102CC00004F12807B06A40F2F33188438ECF0843FD
:102CD000591E40EA02104FF47E426FF35F21B0624A
:102CE00002EB47204FF4FE0280B2E36B0844A16B75
:102CF00002EB01414FF0FE4201F4FE0102EB0362E0
:102D0000084402F0FE4108443063F06A4FF6F8715F
:102D100020F00100F062706BA26C884340EAC200B0
:102D20007063F06A216C20F00C000843F062F06AD6
:102D3000616C20F002000843F062F06A40F48030D9
:102D4000F062F06A40F40030F062F06A40F48020F3
:102D5000F062F06A40F00100F062306840F080708C
:102D60003060FEF785F80446306880013FF5D8AE44
:102D7000FEF77EF8001B02284FF00300F4D901B0E3
:102D8000F0BD00BFF06A20F00100F062FEF770F8BD
:102D90000546FEF76DF8A842FBD0706B4FF6F87150
:102DA000A26C884340EAC2007063F06A40F0010000
:102DB000F062002001B0F0BD411E0020B0EB116FA9
:102DC00002D00120704700BF4EF21002F023CEF275
:102DD000000251604EF62351CEF200010B70072124
:102DE0009060116070470000704700000000000014
:102DF0007047000000000000704700000000000065
:102E0000B0B590F83C20012A4FF002025BD080F868
:102E10003D2040F2004C0268C4F2010C42F4806391
:102E200063455368D2F808E002BF23F470034C688E
:102E3000234341F2FF740D68C4F2000423F07003D1
:102E4000A24243EA050353600CDC40F2FF73C4F274
:102E500000039A4216DCB2F1804F29D040F20043C1
:102E600018E000BF40F2FF33C4F201039A4217DCBE
:102E700041F60003C4F200039A4219D00023C4F2C1
:102E8000010309E040F60003C4F200039A420FD0A8
:102E900040F60043C4F200039A4209D00DE000BF9F
:102EA00044F20003C4F201039A4201D0624504D106
:102EB0002EF080038968194391600022012180F877
:102EC0003D1080F83C201046B0BD0000000000001E
:102ED00060B310B5044690F83D0028B9002084F88E
:102EE0003C00204600F024F8022084F83D002068D1
:102EF000211D03F0FDF9012084F8480084F83E000C
:102F000084F83F0084F8400084F8410084F84200CF
:102F100084F8430084F8440084F8450084F84600AF
:102F200084F8470084F83D00002010BD0120704760
:102F300080B582B040F600410068C4F200018842CA
:102F40001CBF02B080BD44F2E8400022C5F602007A
:102F5000016841F0080101600068002100F00800EC
:102F6000019001983220FEF7E3FA322002B0BDE86A
:102F70008040FEF7C9BA000090F83D1001291BD12E
:102F8000022180F83D10016841F2FF70C4F2000098
:102F90008142C86840F00100C8600FDC40F2FF7059
:102FA000C4F20000814217DCB1F1804F2CD040F216
:102FB0000040C4F2000025E00120704740F2FF30DD
:102FC000C4F20100814213DC41F60000C4F20000AB
:102FD000814219D0002013E040F60000C4F2000046
:102FE000814211D040F60040C4F200000AE000BF68
:102FF00044F20000C4F20100814205D040F20040DA
:10300000C4F2010081420BD107228868C0F201029C
:1030100002400020062A18BFB2F5803F00D1704759
:10302000086840F0010008600020704700000000C0
:1030300080B590F83C20012A4FF0020200F0A780F2
:1030400080F83D208822D0F800C0CFF6CE72DCF8A0
:1030500008301A40CCF808200B686F2B0EDDB3F156
:10306000101F37DAB3F5005F46DA702B00F092805C
:10307000B3F5805F00F08480D6E000BF2F2B33DDF6
:103080004F2B3FDC302B6FD0402B40F0CD80D1F860
:1030900004E0C968DCF82030DCF8202022F00102CE
:1030A000CCF82020DCF8182022F0F00242EA0111CE
:1030B00023F00A02CCF8181042EA0E01CCF82010D6
:1030C0004FF68872DCF80810CFF6CF721140473106
:1030D00054E000BF2F21C0F210018B423ADCB3F163
:1030E000101F41D020213BE0002B18BF102B3BD0FC
:1030F000202B39D098E000BF60D0B3F5801F33D0CB
:1031000092E000BF502B6DD0602B40F08D80D1F845
:1031100004E0C968DCF82030DCF8202022F010023E
:10312000CCF82020DCF8182022F4704242EA013169
:1031300023F0A002CCF8181042EA0E11CCF82010AF
:103140004FF68872DCF80810CFF6CF721140673165
:1031500014E000BF3021C0F210018B4204D04021A6
:10316000C0F210018B425FD14FF68872DCF8081074
:10317000CFF6CF721140194341F00701CCF8081087
:103180000022012180F83D10002180F83C101046FB
:1031900080BD00BFD1E901E3C968DCF8082043EA3B
:1031A0000E0322F47F4243EA01211143CCF80810B8
:1031B000DCF8081041F07701E0E700BFD1E901E356
:1031C000C968DCF8082043EA0E0322F47F4243EA90
:1031D00001211143CCF80810DCF8081041F48041BB
:1031E000CCE700BFD1F804E0C968DCF82030DCF897
:1031F000202022F00102CCF82020DCF8182022F058
:10320000F00242EA011123F00A02CCF8181042EA57
:103210000E01CCF820104FF68872DCF80810CFF6BB
:10322000CF7211405731A9E70122AAE70000000040
:10323000002857D02DE9F04381B0044690F83D00B6
:103240000D4628B9002084F83C00204600F04CF8D8
:10325000022084F83D0020684BF6F872CFF6FE722B
:10326000816811408160211D03F042F820684FF60B
:10327000FF79D0F808808269D0F820C0AF69D5E91D
:10328000026122EA090246EA07264FF6FC47BE43DE
:10329000EF6911432A6931432E6A41EA07216F69B8
:1032A000D5E9003E41EA02112CF0AA0242EA0E02E0
:1032B00043EA080341EA06318360816142EA07116B
:1032C0000162012084F8480084F83E0084F83F0041
:1032D00084F8440084F8450084F83D00002001B0E3
:1032E000BDE8F0830120704710B586B040F60002BB
:1032F0000068C4F20002002190420591CDE903115B
:10330000CDE9011122D040F20041C4F2000188420F
:103310004CD144F2E0401D24C5F60200816841F022
:1033200002018160816801F0020100910099016849
:1033300041F0010101600068C02100F0010000902F
:1033400000980020C5F602001EE000BF44F2E040F5
:103350001E24C5F60200816841F004018160816885
:1033600001F0040100910099016841F00801016039
:10337000006800F00800009000200099C5F60200E7
:103380004FF4405100F5406001910221029100226A
:10339000059101A9CDE90322FDF772FC002100226D
:1033A0002046FEF7C5F82046FEF7AEF806B010BD81
:1033B00080B590F83E20042990F83F3090F844E022
:1033C00090F845C00AD0B9B9012A4FF0010208BFF0
:1033D000BEF1010F34D0104680BD00BF0122012B89
:1033E00008BFBCF1010FF6D1022180F83F1080F830
:1033F0004510006820E000BF012A4FF0010208BF1D
:10340000012BE8D1BEF1010F08BFBCF1010FE2D1E1
:103410004FF0020280F83E2080F83F2080F84420E0
:1034200080F8452089B10068016A21F0010101623C
:10343000016A41F00101016210216FF0100208E001
:10344000022180F83E1080F84410006801216FF0DE
:103450000102036A1A400262026A114301620168B2
:10346000002241F001010160104680BD0000000013
:103470007047000000000000F0B581B0044600680D
:10348000C5680669B10717D515F0020114D06FF0B1
:1034900002010161012121778069800704D0204663
:1034A000FFF7E6FF06E000BF204600F09DF820464B
:1034B00000F046FB00202077700719D515F00400B6
:1034C00016D020686FF00401016102212177806924
:1034D00010F4407F04D02046FFF7CAFF06E000BF8B
:1034E000204600F081F8204600F02AFB00202077DB
:1034F000300717D515F0080014D020686FF00801C8
:10350000016104212177C069800703D02046FFF7BD
:10351000AFFF05E0204600F067F8204600F010FB02
:1035200000202077F00619D515F0100016D020687D
:103530006FF01001016108212177C06910F4407F0C
:1035400004D02046FFF794FF06E000BF204600F0BD
:103550004BF8204600F0F4FA00202077F00718BF5F
:1035600015F0010006D020686FF0010101612046CE
:1035700000F0B2FB05F0800716F4025F18BF002FC1
:1035800002D1F00509D410E020686FF40251016106
:103590002046FFF72DFCF00507D537B120686FF402
:1035A000807101612046FFF71FFC700609D515F0F8
:1035B000400006D020686FF040010161204600F015
:1035C0005BFEB0060CD515F0200009D020686FF026
:1035D00020010161204601B0BDE8F040FFF70CBCBE
:1035E00001B0F0BD000000007047000000000000C6
:1035F0002DE9F04190F83C30012B03D10220BDE8C9
:10360000F08100BF4FEAB202052A31D8DFE812F09C
:10361000060038007600B400DA000001036843F6C3
:10362000FF76C4F201061C6AB3421A6A24F002044F
:1036300022F001021A621A46D3F804E052F818CFB9
:103640008D6844EA0504D1F8008040F3078144F214
:103650000007C4F20107BB4200F00B8144F60007EB
:10366000C4F20107BB4200F0048144F20047FCE0D1
:103670000121002280F83C200846BDE8F08100BF0F
:10368000036840F2004E43F48067C4F2010E1C6AE6
:1036900077451A6A24F0200422F010021A621A46B2
:1036A0005D6852F818CF8E6844EA061407D1CE68D8
:1036B0006FF0400724F0C00407EA0616344343F6CF
:1036C000FF76D1F80080C4F20106B34240F3EC80EB
:1036D00044F20007C4F20107BB4200F0EC8044F65C
:1036E0000007C4F20107BB4200F0E58044F2004746
:1036F000C4F20107BB4200F0DE80E3E0036840F261
:10370000004E43F48067C4F2010E1C6A77451A6AC2
:1037100024F4007422F480721A621A465D6852F82A
:103720001CCF8E6844EA062407D1CE6840F2FF47DA
:10373000360224F44064BE43344343F6FF76D1F8A6
:103740000080C4F20106B34240F3D48044F2000783
:10375000C4F20107BB4200F0D48044F60007C4F273
:103760000107BB4200F0CD8044F20047C4F20107DC
:10377000BB4200F0C680CBE0036843F6FF77C4F29B
:103780000107D3F820C0BB421A6A22F480521A62A1
:103790001A465C6852F81C6F0D68D1F808E040F3D7
:1037A000CF8044F20007C4F20107BB4200F0D3808F
:1037B00044F60007C4F20107BB4200F0CC8044F29B
:1037C0000047C4E0036843F6FF77C4F20107D3F86B
:1037D00020C0BB421A6A22F480321A621A465C6820
:1037E00052F8546F0D68D1F808E040F3D38044F2EA
:1037F0000007C4F20107BB4200F0D78044F600077F
:10380000C4F20107BB4200F0D08044F20047C8E098
:10381000036843F6FF77C4F20107D3F820C0BB4228
:103820001A6A22F480121A621A465C6852F8546FBF
:103830000D68D1F808E040F3D98044F20007C4F2E3
:103840000107BB4200F0DD8044F60007C4F2010727
:10385000BB4200F0D68044F20047CEE00027C4F21D
:103860000107BB4205D040F20047C4F20107BB424A
:1038700005D1CF6824F00C0427F004073C43B34281
:1038800040F3E28044F20006C4F20106B34200F0C5
:10389000E68044F60006C4F20106B34200F0DF8081
:1038A00044F20046D7E000BF0027C4F20107BB4244
:1038B00001D0734506D1D1E90576374325F440663A
:1038C00046EA870548F6FF475D60CFF6FF6707EADF
:1038D0000C0747EA08279F614F6809699F631C62CC
:1038E0009F6947F400679F619F6927F480679F6124
:1038F000A7E000BF0027C4F20107BB4201D0734517
:1039000006D1D1E90576374325F4405646EA071536
:103910004FF68C775D60CFF6FE7707EA0C0747EA33
:103920000807DF614F680969DF631C62DF6947F0E0
:103930000807DF61DF6927F00407DF61ADE000BF42
:103940000027C4F20107BB4205D040F20047C4F291
:103950000107BB4204D14F6924F4804444EA871430
:1039600048F6FF475C60CFF6FF673E402CF40057F7
:1039700046EA0524DC614E6809691E6447EA0E3791
:103980001F62DF6947F40067DF61DF6927F4806742
:10399000DF6156E00027C4F20107BB4205D040F2C8
:1039A0000047C4F20107BB4204D14F6924F48034BC
:1039B00044EA07244FF68C775C60CFF6FE77033736
:1039C0003E402CF4003746EA05045C654E68096900
:1039D0009E6547EA0E471F625F6D47F008075F6507
:1039E0005F6D27F004075F6557E000BF0027C4F252
:1039F0000107BB4205D040F20047C4F20107BB42B9
:103A000004D14F6924F4802444EA872448F6FF4710
:103A10005C60CFF6FF6707F540773E402CF4001757
:103A200046EA05245C654E680969DE6547EA0E577B
:103A30001F625F6D47F400675F655F6D27F4806705
:103A40005F65090229E000BF0026C4F20106B34207
:103A500005D040F20046C4F20106B34206D12EF46E
:103A60004077D1E90565374347EA050E4FF68C7577
:103A7000C3F804E0CFF6FE750CEA050747EA08072D
:103A80009F614F6809695F631C629F6947F008077F
:103A90009F619F6927F004079F61136819431160B4
:103AA0000021002280F83C200846BDE8F08100009B
:103AB00060B310B5044690F83D0028B9002084F8A2
:103AC0003C00204600F024F8022084F83D002068E5
:103AD000211D02F00DFC012084F8480084F83E000E
:103AE00084F83F0084F8400084F8410084F84200E4
:103AF00084F8430084F8440084F8450084F84600C4
:103B000084F8470084F83D00002010BD0120704774
:103B100081B00068B0F1804F02D001B0704700BFA3
:103B200044F2E840C5F60200016841F0010101607D
:103B3000006800F001000090009801B0704700009C
:103B4000704700000000000071B10A1F4FEAB20286
:103B5000032A11D8DFE802F002161E2400F13F0309
:103B60001B78012B13D120E090F83E20012A0ED1C2
:103B7000022280F83E2032E000F143031B78012B43
:103B800005D112E000F140031B78012B0DD001207C
:103B9000704700BF00F141031B78012B05D0F6E709
:103BA00000F142031B78012BF1D1032A08D8DFE88A
:103BB00002F0030B0F1300BF022280F83F200EE03B
:103BC000022280F843200AE0022280F8402006E02A
:103BD000022280F8412002E0022280F8422002689E
:103BE00001F01F00012101FA00F0116A8143116206
:103BF0004FF6FF71C4F200018A42116A40EA0100E7
:103C0000106219DC40F2FF70C4F2000082422FDD26
:103C100040F60000C4F20000824243D040F600406B
:103C2000C4F2000082423DD041F60000C4F2000020
:103C3000824237D048E000BF43F6FF700021C4F253
:103C40000100C4F20101824244F20000C4F201000A
:103C500018DD82421ED044F60003C4F201039A42EA
:103C600018D044F20043C4F201039A4212D02BE070
:103C7000B2F1804F16D040F20040C4F20000824200
:103C800010D021E08A4205D040F20043C4F2010383
:103C90009A4219D1536C8A4243F40041516418BFCF
:103CA00082420BD107219068C0F20101014000203F
:103CB000062918BFB1F5803F06D1704740F2004099
:103CC000C4F201008242EDD0106840F001001060A3
:103CD00000207047000000002DE9F04381B02DED79
:103CE000028B40F23C21C2F20041884210D040F2E7
:103CF0008821C2F20041884222D040F2D421C2F28F
:103D00000041884234D0BDEC028B01B0BDE8F083A5
:103D100040F27800C2F2004090ED000A40F26000EC
:103D2000C2F20040B5EE400AF1EE10FA016817DA6F
:103D300001390160BDEC028B01B0BDE8F08300BF2A
:103D400040F27C00C2F2004090ED000A40F26400B4
:103D5000C2F20040B5EE400AF1EE10FA0168E7DB6E
:103D600001310160BDEC028B01B0BDE8F08300BF02
:103D700004F03EFE40F2E006C2F20046B0780128B0
:103D800016D1706A012823D140F20007C2F2004721
:103D9000796811F1020F13D340F268000021C2F2DA
:103DA0000040016040F26C00C2F2004001600FE090
:103DB0000130B070BDEC028B01B0BDE8F08300BFF4
:103DC000072902D001290BD0D1BB502004F0D4F830
:103DD0000020B070BDEC028B01B0BDE8F08300BFE5
:103DE00038780128306A3BD13044C07E412800F049
:103DF000D780422870D140F21800C2F20040026819
:103E0000D6E90A0110F52F704FEAE27341F1000183
:103E1000121A73EB010280F0518140F21C02C2F2CF
:103E20000042D6E90C54126815F52F734FEAE27C74
:103E300044F1000ED21A7CEB0E02C0F0D4803FE1B8
:103E4000881E0428C4D8DFE800F0054B6B0305008A
:103E5000BEE700BF3878012840F08080592086E016
:103E60003044007F422800F0C380412834D1B0792B
:103E7000002840F0FB8040F21800C2F200400268C7
:103E8000D6E90A0110F52F754FEAE27341F10004FB
:103E9000521B73EB040280F0E98040F21C02C2F274
:103EA0000042D6E90C35126813F52F784FEAE27418
:103EB00045F10005B2EB080274EB050280F0D680F4
:103EC00010F5166041F10001FCF745FA08EE100A02
:103ED00040462946B8E000BF0020786078E700BF80
:103EE000B07903283FF674AFDFE810F02400320108
:103EF0007001040003F0B8FF40F268007169C2F27B
:103F0000004000220029C4F2A01202607FF460AFDA
:103F1000012030710020B07178600220A8E100BF5C
:103F2000B07903283FF654AFDFE810F00400120127
:103F300050018E0140F21800C2F200400068B062E9
:103F4000C11740F21C00C2F20040F1620068306309
:103F5000C01770630120B0713AE700BF022903D196
:103F6000522003F0D1FF7968062902D1472003F0DF
:103F7000CBFF06F1280533CDFCF7EDF908EE100A6A
:103F800020462946FCF7E7F900EE900AB0EE480A11
:103F900003F0AEFF03F024FF03F066FF18E700BF55
:103FA00040F21800C2F200400268D6E90A0110F59A
:103FB0002F754FEAE27341F10004521B73EB0402C8
:103FC00080F0888040F21C02C2F20042D6E90C3533
:103FD000126813F52F744FEAE27C45F10005121BBD
:103FE0007CEB05027CD25020012103F0C5FFEFE6F7
:103FF000B079D8BB40F21800C2F200400268D6E99E
:104000000A0110F52F704FEAE27341F10001121A14
:1040100073EB01022AD240F21C02C2F20042D6E93E
:104020000C98126819F52F744FEAE27348F10005F5
:10403000121B73EB050219D2FCF78DF908EE100A7A
:1040400019F5166048F10001FCF785F900EE900AB9
:10405000B0EE480A03F04CFF7968502003F08CFF63
:10406000B07901287FF4B4AE02E000BF0120B07146
:1040700003F0B6FE03F0F8FE40F2B800C2F20040D2
:1040800090ED000A20EE001AB2EE040AB4EE401AD7
:10409000F1EE10FABFF69CAE40F2CC00C2F2004046
:1040A00090ED001A21EE011AB4EE401AF1EE10FA6A
:1040B000BFF68EAE0020B071786089E6D6E90C5468
:1040C000FCF749F908EE100A15F5166044F10001F5
:1040D00010E000BFD6E90C2312F52F7443F1000560
:1040E00010F5166041F10001FCF735F908EE100AF1
:1040F00020462946FCF72FF900EE900AB0EE480A58
:1041000003F0F6FE03F06CFE03F0AEFE40F2B800E2
:10411000C2F2004090ED000A20EE001AB2EE040A4E
:10412000B4EE401AF1EE10FABFF652AE40F2CC00F7
:10413000C2F2004090ED001A21EE011AB4EE401ACE
:10414000F1EE10FABFF644AE0720786040E600BFFB
:10415000D6E90A0140F2DC54356B0019776B41F166
:104160000001FCF7F8F808EE100A281947F10001E1
:10417000FCF7F1F800EE900AB0EE480A03F0B8FE42
:1041800003F072FE03F02CFE40F2B800C2F20040D1
:1041900090ED000A20EE001AB2EE040AB4EE401AC6
:1041A000F1EE10FABFF614AE40F2CC00C2F20040BD
:1041B00090ED001A21EE011AB4EE401AF1EE10FA59
:1041C000BFF606AE0220B07102E600BFD6E90A01D2
:1041D00040F2DC52346B8018756B41F10001FCF742
:1041E000BAF808EE100AB4F1C80065F10001FCF756
:1041F000B2F800EE900AB0EE480A03F079FE03F040
:1042000033FE03F0EDFD40F2B800C2F2004090ED45
:10421000000A20EE001AB2EE040AB4EE401AF1EEE3
:1042200010FABFF6D5AD40F2CC00C2F2004090EDDE
:10423000001A21EE011AB4EE401AF1EE10FABFF6A0
:10424000C7AD0320B071C3E503F00EFE40F2680075
:104250007169C2F2004000220029C4F2A01202607B
:104260007FF4B6AD012030710020B0710721796074
:104270003870ADE50000000070470000000000004D
:1042800090F88410012901D1022070472421C0F840
:10429000881002681368116823F0005321F00101AF
:1042A00011600021416613602022C0F8882080F848
:1042B00084100846704700007047000000000000AE
:1042C000704700000000000070B590F88420012ABB
:1042D00002D1022070BD00BF2422C0F888200268ED
:1042E000D0F864E0BEF1000FD2F800C0136823F0EC
:1042F00001031360936823F0606341EA0301916056
:104300001AD0916849F2126E9368C0F6000E5B0FE6
:1043100049F21A65C1F34266C0F600051EF8034073
:10432000E95C2301B3FBF1F11EF80630AE5D1B0121
:10433000B3FBF6F302E000BF01210123A0F86A10ED
:104340002021A0F86830C2F800C0C0F88810002111
:1043500080F88410084670BD70B590F88420012A5A
:1043600002D1022070BD00BF2422C0F8882002685C
:10437000D0F864E0BEF1000FD2F800C0136823F05B
:1043800001031360936823F0604341EA03019160E5
:104390001AD0916849F2126E9368C0F6000E5B0F56
:1043A00049F21A65C1F34266C0F600051EF80340E3
:1043B000E95C2301B3FBF1F11EF80630AE5D1B0191
:1043C000B3FBF6F302E000BF01210123A0F86A105D
:1043D0002021A0F86830C2F800C0C0F88810002181
:1043E00080F88410084670BD70470000000000008F
:1043F000704700000000000070470000000000004F
:1044000070B50446006840F62F01C26911402029AA
:10441000016886680ED101F0200306F080555B1913
:104420001AD0616F002900F07D802046BDE8704001
:10443000084700BF40F60F031A420DD0012340F297
:104440002015C1F20003C0F2004506EA030C01EAA0
:10445000050313EB0C0367D1E36E012B05D112F0BA
:10446000100318BF11F010034CD1D3020AD516F473
:10447000800307D04FF4801101622046BDE87040F0
:10448000FFF7B6BF100606D501F0800006F4000362
:10449000C01840F0A18150066ED511F040006BD0DD
:1044A000206850E8000F216820F0400041E8000239
:1044B000F2B1206850E8000F216820F0400041E888
:1044C0000002002A1FBF206850E8000F216820F07A
:1044D00040001CBF41E80002002A09D0206850E8D3
:1044E000000F216820F0400041E80002002AD7D1E7
:1044F0002020C4F888000020A0672046BDE8704056
:1045000000F0D6BC102101628068400616D4B4F8D1
:104510005C00B4F85E10B4F85E20002A18BF884230
:1045200040F08A8170BD00BFD30718BF11F48073BB
:104530002ED1930706F0010E36D440E0D4F8800067
:1045400040F20F42C4F202020168914200F34A8134
:104550006F22C4F20202914200F3F6813F22C4F2BC
:104560000202914200F30C821022C4F20202914234
:1045700000F02B82282225E2100240F14B8111F03D
:10458000804000F047812046BDE87040FFF72CBF17
:1045900001230362D4F8903043F00103C4F8903053
:1045A000930706F0010E0AD5BEF1000F07D00223D3
:1045B0000362D4F8903043F00403C4F890305307FA
:1045C0000AD5BEF1000F07D004230362D4F890305F
:1045D00043F00203C4F8903013070CD501F0200318
:1045E00053EA0C0307D008230362D4F8903043F059
:1045F0000803C4F8903013050BD511F0806308D080
:104600004FF400630362D4F8903043F02003C4F801
:104610009030D4F89030002B3FF484AF12F0200299
:104620000AD001F0200106F08052891804D0616F91
:1046300011B1204688472068D4F89010806800F0B7
:10464000400001F02801401806D12046FFF7D4FEB3
:104650000020C4F8900070BD206850E8000F216869
:1046600020F4907041E80002F2B1206850E8000F99
:10467000216820F4907041E80002002A1FBF2068E2
:1046800050E8000F216820F490701CBF41E8000240
:10469000002A09D0206850E8000F216820F49070AB
:1046A00041E80002002AD7D14FF6FE70CEF6FF7027
:1046B000216851E8021F2268014042E80213DBB181
:1046C000216851E8021F2268014042E80213002BD2
:1046D0001FBF216851E8021F226801401CBF42E849
:1046E0000213002B08D0216851E8021F2268014004
:1046F00042E80213002BDBD1E06E012827D12068AD
:1047000050E8000F216820F0100041E80002F2B1EB
:10471000206850E8000F216820F0100041E80002F6
:10472000002A1FBF206850E8000F216820F0100009
:104730001CBF41E80002002A09D0206850E8000FA1
:10474000216820F0100041E80002002AD7D1202083
:10475000C4F88C000020E066216860678868400625
:1047600064D5206850E8020F216820F0400041E83D
:104770000202F2B1206850E8020F216820F04000E8
:1047800041E80202002A1FBF206850E8020F21689A
:1047900020F040001CBF41E80202002A09D0206836
:1047A00050E8020F216820F0400041E80202002A90
:1047B000D7D1D4F88000C8B346F2B161C0F6000189
:1047C0000165FCF7E9F800283FF4ACAED4F88000AE
:1047D000016DBDE870400847A16F00297FF425AE48
:1047E000A0E600BF40F26F42C4F20202914200F321
:1047F000B78040F23F42C4F20202914200F3C88007
:1048000040F21042C4F20202914200F0DE8040F217
:104810002842D7E0D0017FF585AEB1F1FF3FC8BF98
:1048200070BD2046BDE87040FFF74ABD2046BDE898
:104830007040FFF7E1BD00BF401A216851E8001F3A
:10484000226821F4907142E80013F3B1216851E825
:10485000001F226821F4907142E80013002B1FBF53
:10486000216851E8001F226821F490711CBF42E8C2
:104870000013002B09D0216851E8001F226821F4A1
:10488000907142E80013002BD7D14FF6FE71CEF69F
:10489000FF71226852E8022F23680A4043E802268B
:1048A000DEB1226852E8022F23680A4043E802265C
:1048B000002E1FBF226852E8022F23680A401CBF47
:1048C00043E80226002E08D0226852E8022F23680F
:1048D0000A4043E80226002EDBD12021C4F88C10C8
:1048E0000021E1666167216851E8001F226821F01C
:1048F000100142E80013F3B1216851E8001F22685B
:1049000021F0100142E80013002B1FBF216851E87D
:10491000001F226821F010011CBF42E80013002B89
:1049200009D0216851E8001F226821F0100142E8F7
:104930000013002BD7D181B2022020672046BDE8AA
:104940007040FFF7B9BC00BF9F22C4F2020291423F
:1049500028DC7022C4F20202914236D0882231E073
:1049600040F29F42C4F20202914223DC40F27042C4
:10497000C4F20202914228D040F2884222E000BFF5
:104980004022C4F2020291421FD058221AE000BF16
:1049900040F24042C4F20202914216D040F2584224
:1049A00010E000BFA022C4F2020291420DD0B82252
:1049B00008E000BF40F2B842C4F20202914204D0C3
:1049C00040F2A042C4F20202914249688AB2002A2F
:1049D0003FF4A8ADB4F85C309A42BFF4A3ADA4F89C
:1049E0005E10C069B0F5807F00F0A980206850E8B3
:1049F000000F216820F4807041E80002F2B12068C5
:104A000050E8000F216820F4807041E80002002A7D
:104A10001FBF206850E8000F216820F480701CBF81
:104A200041E80002002A09D0206850E8000F216800
:104A300020F4807041E80002002AD7D1206850E8B5
:104A4000020F216820F0010041E80202F2B1206863
:104A500050E8020F216820F0010041E80202002A1C
:104A60001FBF206850E8020F216820F001001CBF22
:104A700041E80202002A09D0206850E8020F2168AC
:104A800020F0010041E80202002AD7D1206850E856
:104A9000020F216820F0400041E80202F2B12068D4
:104AA00050E8020F216820F0400041E80202002A8D
:104AB0001FBF206850E8020F216820F040001CBF93
:104AC00041E80202002A09D0206850E8020F21685C
:104AD00020F0400041E80202002AD7D12020C4F88B
:104AE0008C000020E066206850E8000F216820F06C
:104AF000100041E80002F2B1206850E8000F216880
:104B000020F0100041E80002002A1FBF206850E892
:104B1000000F216820F010001CBF41E80002002AAD
:104B200009D0206850E8000F216820F0100041E80B
:104B30000002002AD7D1D4F88000FBF795FC0220B0
:104B40002067B4F85C00B4F85E10401A81B22046C9
:104B5000BDE87040FFF7B0BB10B5E0B10446D0F837
:104B6000880028B9002084F88400204600F028F846
:104B70002420C4F888002068A16A0268002922F075
:104B80000101016002D0204601F066FC204602F0DF
:104B900097FA012802D1012010BD00BF20684168AA
:104BA00021F490414160816821F02A01816001680F
:104BB00041F0010101602046BDE8104001F0BCBC9D
:104BC000B0B5B8B0044602A8C0210025CDE93655DD
:104BD000CDE934553395FBF7B3FB44F2004120682F
:104BE000C4F20001884237D041F20041C4F2010111
:104BF000884259D041F20001C4F20101884240F0DC
:104C00008D80002003900120029002A8FCF73CFE5A
:104C100008B1FBF721FC44F2E0402524C5F6020070
:104C2000016941F010010161016901F01001019178
:104C30000199016841F0020101600068002100F063
:104C400002000190C5F6020101984FF440403390F4
:104C500001F58060042150E00220029002A8039533
:104C6000FCF712FE08B1FBF7F7FB44F2E040262404
:104C7000C5F60200816841F400318160816801F469
:104C8000003101910199016841F001010160006862
:104C9000072100F00100019001980C2033900020C2
:104CA000C5F6020029E000BF002003900120029019
:104CB00002A8FCF7E9FD08B1FBF7CEFB44F2E040A7
:104CC0004724C5F60200016941F020010161016934
:104CD00001F0200101910199016841F00401016096
:104CE0000068002100F004000190C5F6020101985F
:104CF000C020339001F500600721379133A90222CB
:104D000034920022CDE93522FBF7BAFF00210022C0
:104D10002046FCF70DFC2046FCF7F6FB38B0B0BD92
:104D200080B5D0F88C30202B06D10123002918BF84
:104D3000002A03D1184680BD022080BD0023C3662F
:104D400040F60043D0F800C0C5F600039C4503D0F0
:104D5000DCF804301B0205D402F00EFC00231846D8
:104D600080BD00BF036853E800CFD0F800E04CF0EE
:104D700080634EE8003CBCF1000FEDD0036853E8BF
:104D800000CFD0F800E04CF080634EE8003CBCF16E
:104D9000000F1FBF036853E800CFD0F800E04CF0CD
:104DA00080631CBF4EE8003CBCF1000FD4D0036808
:104DB00053E800CFD0F800E04CF080634EE8003CB0
:104DC000BCF1000FCED1C7E740F22031C2F2004162
:104DD000884227D040F24841C2F2004188422DD09B
:104DE00040F2B431C2F20041884218BF704710B59A
:104DF00040F2E004C2F20044A17B207CF02908BF0D
:104E00000F2829D0FA2908BFAF2827D1E07B322804
:104E100032DD332838D0BB283ED0AA281ED141200D
:104E200060771BE040F2E00240F22030C2F2004224
:104E3000C2F2004002F1380103F03ABF40F2E00054
:104E4000C2F2004000F15401421C40F24840C2F25C
:104E5000004003F069BF00BFE07B6062002124F8DE
:104E60000E1F40F2B4300322C2F20040A17021466E
:104E7000BDE81040FFF754BF112811D02228EDD112
:104E8000462003F041F8E9E740F200000321C2F2B6
:104E900000404160E2E700BF42206077DEE700BFEC
:104EA00040F200004FF0FF31C2F200404160D5E710
:104EB0007047000000000000FEE700000000000056
:104EC00070B5044600688369DB0603D40021002224
:104ED00069E000BF0E461021C161816989065ED478
:104EE000711C52D015463EBBFBF7C2FF20684268DA
:104EF00094F8421083691B040CD512F4804209D146
:104F0000202907D0416841F480414160FBF7B0FFA0
:104F1000054600BF20688169890605D4FBF7A8FF14
:104F2000401B1A28F6D328E081698906DCD536E0D3
:104F300020688169890632D4FBF79AFF401BB04292
:104F4000F6D92068426894F8421083691B040BD597
:104F500012F4804208D1202906D0416841F48041F2
:104F60004160FBF785FF0546206880698006DFD435
:104F7000FBF77EFF401B1A28F6D3206801228169C7
:104F8000242110E08169890609D48169890606D443
:104F9000816989065CBF81695FEA8161F2D5202160
:104FA000C161012204218369DE0505D541F00101BB
:104FB0004FF48072C26101225E0505D49B050AD4BC
:104FC00072B9002070BD00BF41F008019A054FF48E
:104FD0008062C26104D541F002014FF40072C261E7
:104FE0008269920701D5002282628269D20703D1C9
:104FF000826942F0010282614EF600034268CFF6F8
:1050000000631A404260606C08436064202084F8AA
:105010004100002084F8420084F84000012070BD67
:105020002DE9F0410446006880690840401AB0FA52
:1050300080F04009904233D10D4616461F46581C59
:10504000DDF818801CD0BFBB002120464246FFF788
:1050500037FF002851D1FBF70BFF206881692940F9
:10506000491BB1FA81F14909B1423AD0806928401F
:10507000401BB0FA80F04009B042E5D010E000BF1C
:105080004FF0FF3120464246FFF71AFFA8BB2068C9
:1050900080692840401BB0FA80F04009B042EFD050
:1050A0000020BDE8F08100BF80692840401BB0FAB5
:1050B00080F04009B042F3D1204639464246FFF71E
:1050C000FFFED0B9FBF7D4FEA0EB0800B842206881
:1050D000EAD981692940491BB1FA81F14909B142F4
:1050E000E2D1606C40F020006064202084F8410030
:1050F000002084F8420084F840000120BDE8F081DF
:1051000070B5044600688069800635D415460E46A1
:1051100019B928E0806980062ED4204631462A46F7
:10512000FFF7CEFE30BBFBF7A3FE401BB04220686A
:10513000F0D981698906EDD4606C40F0200060648C
:10514000202084F84100002084F8420084F84000C8
:10515000012070BDFBF78CFE206881698906EBD5C4
:105160008069800608D4002120462A46FFF7A8FE61
:105170000028EFD0012070BD002070BD00000000AD
:1051800070B5044600688069800720D415460E4635
:10519000481C11D00EBB00BF002120462A46FFF755
:1051A0008FFEA8BBFBF764FE20688169890723D5C1
:1051B00080698007F0D50AE04FF0FF3120462A468B
:1051C000FFF77EFE20BB206880698007F4D50020B1
:1051D00070BD00BF80698007F9D4204631462A4659
:1051E000FFF76EFEA0B9FBF743FE401BB0422068FC
:1051F000F0D981698907EDD4606C40F020006064CB
:10520000202084F84100002084F8420084F8400007
:10521000012070BD000000002DE9F04F87B044F27E
:10522000E0400025C5F6020040F20048CDE90555F2
:105230000168C5F6020841F010010160016808F537
:10524000406601F0100101910199016841F080016F
:1052500001600168012201F080010191019901685A
:1052600041F00101016001684FF0010A01F0010104
:1052700001910199016841F004010160016801F0A8
:10528000040101910199016841F002010160016886
:1052900001F0020101910199016841F008010160EA
:1052A00000684CF2030100F00800019001983046BC
:1052B000FBF7CEFD4FF4485100224046FBF7C8FDF6
:1052C00008F500694FF4E06100224846FBF7C0FD95
:1052D0004FF4006101224846FBF7BAFD08F58067EC
:1052E0004FF48061012238464FF4806BFBF7B0FD2C
:1052F00002AC0820CDE90205304621460495FBF7B3
:10530000BFFC02A9102081E8210438462146FBF7A2
:10531000B7FC02A9052081E8210440462146FBF79D
:10532000AFFC4CF203002146CDE9020A3046CDE93C
:105330000455FBF7A5FC4FF448502146CDE9020A7D
:105340004046CDE90455FBF79BFC4FF470602146C5
:10535000CDE9020A4846CDE90455FBF791FC3846F1
:105360002146CDE902BACDE90455FBF789FC07B027
:10537000BDE8F08F0000000080B540F2481045F60F
:105380000001C2F2004041F24F72C4F20001C0F2CB
:105390005002C0E90012002181600122C0E903210E
:1053A000C0E90511C0E90711FBF7CEFD08B1FBF715
:1053B00053F840F248100021C2F20040FBF760FDB4
:1053C00008B1FBF749F840F248100021C2F2004052
:1053D000FBF77EFD08B1FBF73FF80220BDE88040F7
:1053E000FBF79ABD0000000080B540F29C1045F626
:1053F0000041C2F2004041F24F72C4F20001C0F21B
:105400005002C0E90012002181600122C0E903219D
:10541000C0E90511C0E90711FBF796FD08B1FBF7DC
:105420001BF840F29C100021C2F20040FBF728FD5F
:1054300008B1FBF711F840F29C100021C2F20040C5
:10544000FBF746FD08B1FBF707F80420BDE88040F4
:10545000FBF762BD0000000010B590B040F2F01004
:105460000024C2F200400994CDE90644CDE9044489
:105470004FF08041016007218461C0E9011442F2CC
:105480000F71C0E90314FEF713FB08B1FAF7E4FF4C
:1054900040F2F01008A9C2F2004008940A94FDF707
:1054A000AFFC08B1FAF7D8FF60200190002005900A
:1054B000CDE9020040F2F01001A9C2F20040002242
:1054C000FEF796F808B1FAF7C7FF40F2F01401A909
:1054D000C2F2004404222046FEF78AF808B1FAF727
:1054E000BBFF2068B0F1804F02D010B010BD00BFEC
:1054F00044F2E040C5F60200016841F0010101609C
:1055000000680BA900F001000B900B9803200B9092
:1055100002200C900020CDE90D0001200F9000200A
:10552000C5F60200FBF7ACFB10B010BD0000000098
:1055300010B58CB040F23C2040F20041C2F2004075
:105540000024C4F200010194C0E900144FF6FF7179
:105550008460C0E903148021816103210B94CDE9AB
:1055600003140121CDE90514CDE9091403A9CDE9FE
:105570000744FDF75DFE08B1FAF76EFF40F23C20EC
:105580006946C2F2004000940294FDF739FC08B16C
:10559000FAF762FF0CB010BD10B58CB040F2882055
:1055A00040F60001C2F200400024C4F20001019460
:1055B000C0E900144FF6FF718460C0E90314802134
:1055C000816103210B94CDE903140121CDE9051478
:1055D000CDE9091403A9CDE90744FDF729FE08B177
:1055E000FAF73AFF40F288206946C2F20040009480
:1055F0000294FDF705FC08B1FAF72EFF0CB010BDC0
:1056000080B588B040F2D42040F60042C2F200409B
:1056100000210791C4F20002CDE905110291026058
:10562000EF22C0E9012142F20F72C0E9032180217B
:105630008161FDF74DFC08B1FAF70EFF4FF4805081
:10564000049040F2D42004A9C2F20040FDF7F0FC1F
:1056500008B1FAF701FF00200190039040F2D42036
:10566000C2F2004001A9FDF7CBFB08B1FAF7F4FE46
:1056700008B080BD0000000080B540F2203041F24B
:105680000001C2F20040C4F201010C2201604FF49B
:10569000E13141600021C0E902110161C0E9052149
:1056A000C0E90711C0E90911FFF756FA08B1FAF786
:1056B000D3FE40F220300021C2F20040FEF74CFE43
:1056C00008B1FAF7C9FE40F220300021C2F20040D2
:1056D000FEF7FAFD08B1FAF7BFFE40F22030C2F241
:1056E0000040FEF7CDFD002808BF80BDBDE880402A
:1056F000FAF7B2BE0000000080B540F2B43044F2C8
:105700000041C2F20040C4F200010C2201604FF4DB
:10571000E13141600021C0E902110161C0E90521C8
:10572000C0E90711C0E90911FFF716FA08B1FAF745
:1057300093FE40F2B4300021C2F20040FEF70CFEAE
:1057400008B1FAF789FE40F2B4300021C2F20040FD
:10575000FEF7BAFD08B1FAF77FFE40F2B430C2F2AC
:105760000040FEF78DFD002808BF80BDBDE88040E9
:10577000FAF772BE0000000080B540F2484041F2E6
:105780000041C2F20040C4F201010C2201604FF45A
:10579000E13141600021C0E902110161C0E9052148
:1057A000C0E90711C0E90911FFF7D6F908B1FAF706
:1057B00053FE40F248400021C2F20040FEF7CCFD0B
:1057C00008B1FAF749FE40F248400021C2F2004019
:1057D000FEF77AFD08B1FAF73FFE40F24840C2F208
:1057E0000040FEF74DFD002808BF80BDBDE88040A9
:1057F000FAF732BE00000000FEE7000000000000E3
:10580000FEE70000000000002DE9F04F85B040F2F7
:10581000481400254FF480760127C2F200440DF1B0
:10582000120B0DF113084FF0000900BF09F1B00091
:105830008DF8100004A87821CDE90007002201238B
:1058400020460296FBF7D8FB0DF111007821CDE937
:1058500000070022012320468DF811500296FBF725
:10586000CBFB10208DF81200782100220123204666
:10587000CDE900B70296FBF7BFFB4FF0000A00BF6F
:1058800078214022012320468DF81350CDE900876E
:105890000296FBF7B1FB0AF101004FFA80FABAF168
:1058A000FF3FEDDCB9F1070F09F10109BED305B0E7
:1058B000BDE8F08F0000000080B5C820FBF7CCF9F0
:1058C000BDE8804002F05CB92DE9F04F89B040B2EC
:1058D0000D460028A2F1200248BF023520EAE071FF
:1058E0001027A5F1500001F00F0647EA1117102B01
:1058F000D4B240F0498140F2481B8DF81800C2F242
:10590000004B06A80090012001907821002201237D
:1059100058464FF001094FF48078CDF80880FBF726
:105920006BFB0DF119007821CDE90009002201235C
:1059300058468DF81970CDF80880FBF75DFB0DF126
:105940001A007821CDE900090022012358468DF87C
:105950001A604FF00109CDF80880FBF74DFB49F2C2
:105960001A012001C0F60001059601EB0416402241
:10597000085C78218DF81B00012358460DF11B04AB
:10598000CDE90049CDF80880FBF736FB7078317916
:1059900096F802A096F80390039178218DF81B00E9
:1059A0000120019040220123584604970094CDF82D
:1059B0000880FBF721FB78214022012358468DF80F
:1059C0001BA0012700940197CDF80880FBF714FB7A
:1059D00078214022012358468DF81B90CDE90047DD
:1059E000CDF80880FBF708FB03988DF81B007821A1
:1059F000402201235846CDE90047CDF80880FBF747
:105A0000FBFA707978218DF81B004022012358465B
:105A1000CDE90047CDF80880FBF7EEFAB0797821A0
:105A20008DF81B00402201235846CDE90047CDF8F0
:105A30000880FBF7E1FAF07978218DF81B0040220D
:105A400001235846CDE90047CDF80880FBF7D4FA8A
:105A5000A5F14F008DF81C0007A87821CDE90007BB
:105A6000002201235846CDF80880FBF7C5FA0498B8
:105A70008DF81D000DF11D007821CDE900070022F1
:105A800001235846CDF80880FBF7B6FA05988DF843
:105A90001E000DF11E007821CDE900070022012330
:105AA0005846CDF80880FBF7A7FA307A78218DF8B0
:105AB0001F004022012358460DF11F04CDF8088035
:105AC000CDE90047FBF798FA707A78218DF81F002E
:105AD000402201235846CDE90047CDF80880FBF766
