:020000040800F2
:10000000E81C0024AD02000879930008698B000801
:1000100071930008E9590008C9A900080000000010
:10002000000000000000000000000000D99B000854
:10003000F15900080000000081990008E19B0008C8
:10004000C7020008C7020008C7020008C70200086C
:10005000C7020008C7020008C7020008C70200085C
:10006000C7020008C7020008C7020008C70200084C
:10007000C7020008C7020008C7020008C70200083C
:10008000C7020008C7020008C7020008C70200082C
:10009000C7020008C7020008C7020008C70200081C
:1000A000C7020008C7020008C7020008C70200080C
:1000B000C7020008C7020008C7020008C7020008FC
:1000C000C7020008C7020008C7020008C7020008EC
:1000D000C7020008C7020008C7020008C7020008DC
:1000E000C7020008C702000800000000C70200089D
:1000F000C7020008C7020008C7020008C7020008BC
:10010000C7020008C7020008C7020008C7020008AB
:10011000C7020008C7020008C7020008C70200089B
:10012000C7020008C7020008C7020008C70200088B
:10013000C7020008C7020008C7020008C70200087B
:1001400000000000000000000000000000000000AF
:10015000C7020008C7020008C7020008C70200085B
:10016000C7020008C7020008C7020008C70200084B
:10017000C7020008C7020008C7020008C70200083B
:10018000C7020008C7020008C7020008C70200082B
:10019000C7020008C7020008C7020008C70200081B
:1001A000C7020008C7020008C7020008C70200080B
:1001B000C7020008C7020008C7020008C7020008FB
:1001C000C7020008C7020008C7020008C7020008EB
:1001D000C7020008C7020008C7020008C7020008DB
:1001E000C7020008C7020008C7020008C7020008CB
:1001F000C7020008C7020008C7020008C7020008BB
:10020000C7020008C7020008C7020008C7020008AA
:10021000C7020008C7020008C7020008C70200089A
:10022000C7020008C7020008C7020008000000005B
:10023000C7020008C702000800000000C70200084B
:10024000C7020008C7020008C7020008C70200086A
:10025000C7020008C7020008C7020008C70200085A
:10026000C7020008C7020008C7020008C70200084A
:10027000C7020008C7020008C7020008000000000B
:10028000C7020008C7020008C702000800000000FB
:1002900000000000C7020008DFF80CD005F092FB58
:1002A0000048004771DF0008E81C0024064880472A
:1002B00006480047FEE7FEE7FEE7FEE7FEE7FEE74B
:1002C000FEE7FEE7FEE7FEE7299D00089902000829
:1002D000FE49C1F8E80070472DE9F04FDFF8ECB3B4
:1002E0000026044685B0174698468A463546B146EC
:1002F000DBF8AC0005F0B7F93A46434605F030FAB2
:100300007ED3DBF8B00005F0AEF93A46434605F07F
:100310003FFAF5D3B4F90000B4F90610401A05F01D
:10032000A2F93A46434605F01BFA00D20126B4F979
:100330000E00B4F91410401A05F095F93A464346F8
:1003400005F00EFA00D2761CB4F91C00B4F92210A4
:10035000401A05F088F93A46434605F001FA00D202
:10036000761CDB4B012E4BDC00223846414605F063
:100370005EF807460E46B4F90000B4F90610401ABC
:1003800005F071F93A46334605F002FA00D201252C
:10039000B4F90E00B4F91410401A05F064F93A46A5
:1003A000334605F0F5F900D26D1C31463E460F4646
:1003B000B4F91C00B4F92210401A05F054F9324681
:1003C0003B4605F0E5F900D26D1C002D03DD02204F
:1003D00005B0BDE8F08F002606EB460004EB800573
:1003E0000390B5F90A0005F03EF9DAE904784346CE
:1003F0003A4605F016F883460091B5F9040000E08E
:1004000053E005F030F943463A4605F00AF85A46FB
:10041000009B05F00CF883460291B5F9080005F041
:1004200022F9DAE9027843463A4604F0FAFFCDE9C8
:100430000001B5F9020005F016F943463A4604F00A
:10044000F0FFDDE9002304F0F2FF80460491B5F9E6
:10045000060005F008F9DAE900572A463B4604F0A1
:10046000E0FFCDE90001039834F9200005F0FBF826
:100470002A463B4604F0D5FFDDE9002304F0D7FF10
:100480004246049B04F02CFF5A46029B04F028FFCE
:100490000022134605F064F901D209F10109761C26
:1004A000032E99DBB9F1020F01DA012090E7002059
:1004B0008EE788490A684B68D00180EAD20080EA5A
:1004C000031048608B68520380EAC30382EA531228
:1004D000520282EAD0208B600860704770B50546F2
:1004E000FFF7E7FF05F0A4F87B4904F07DFE6FF00D
:1004F0001F06314604F0E8FE11F0F2FE0446FFF755
:10050000D8FF05F095F8314604F0DEFE10F0FF4FFD
:1005100001D14FF07E5005F010F911F0F5FE0022E8
:100520004FF0404304F083FF05F04AF911F043FF18
:10053000294604F059FE2146BDE8704004F054BE3F
:100540002DE9FE4F054690460E46184605F0F5F893
:10055000CDE90010D6E9302304F069FF04460F46C8
:10056000404605F0EAF80291F5E93023834604F0AD
:100570005EFF22463B4604F0B3FE65E830010024EE
:10058000DDE90010074606EBC40082460CC8384679
:1005900004F04DFF05EBC4078046D7E900238946E8
:1005A0005846029904F043FF42464B4604F098FE39
:1005B000C7E90001DDE90010DAE9242304F037FF80
:1005C000D7E92423804689465846029904F02FFF34
:1005D00042464B4604F084FE641CC7E92401062C05
:1005E000CEDB0024DDE90010074606EBC400D0E9AD
:1005F0001223384604F01BFF05EBC4020746D2E97C
:1006000012C38846914658460299624604F00FFF8D
:100610003A46434604F064FE641CC9E91201092C01
:10062000E0DB0024DDE90010074606EBC400D0E95A
:100630000C23384604F0FBFE05EBC4020746D2E962
:100640000CC38846914658460299624604F0EFFE74
:100650003A46434604F044FE641CC9E90C01032CED
:10066000E0DBBDE8FE8F2DE9F04F044691B00F4668
:10067000086804F0F8FFCDE90E0105460E467868DB
:1006800004F0F1FF81468A46B86804F0ECFF834627
:100690008846D4E930015F460022104B04F020FE6A
:1006A000C4E93001D4E90C012A46334604F018FEAF
:1006B000C4E90C01D4E90E014A46534604F010FE89
:1006C000C4E90E0143463A460AE000005003002404
:1006D0000000044000000024DB0FC9400000F03F90
:1006E000D4E9100104F0FCFDC4E910012A463346A8
:1006F0002846314604F09BFECDE90501D4E90023EC
:1007000004F0EEFDC4E900014A465346284631464E
:1007100004F08DFECDE90001D4E9022304F0E0FDF0
:10072000C4E9020143463A462846314604F07FFEBA
:10073000CDE90301D4E9042304F0D2FDC4E90401A6
:100740004A4653464846514604F071FECDE907013A
:10075000D4E9062304F0C4FDC4E9060143463A4641
:100760004846514604F063FED4E9082304F0B8FD7E
:10077000C4E908013A4643461046414604F057FE94
:10078000D4E90A2304F0ACFDC4E90A01DDE905015E
:100790002A46334604F04BFED4E9122304F0A0FDB0
:1007A000C4E91201DDE900014A46534604F03FFE68
:1007B000D4E9142304F094FDC4E91401DDE9030134
:1007C00043463A4604F033FED4E9162304F088FD8C
:1007D000C4E91601DDE900012A46334604F027FE8C
:1007E000D4E9182304F07CFDC4E91801DDE9070110
:1007F00053464A46CA461F46CDE9000104F017FE9B
:10080000CDE90210D4E91A2304F06AFDC4E91A0103
:100810005D46434646465A465046394604F007FE72
:10082000834633462A46049104F001FED4E91C2392
:1008300004F056FDC4E91C01DDE90E8399464246E9
:100840003146284604F0F3FD42464B4604F0EFFDE6
:10085000D4E91E2304F044FDC4E91E015846524663
:100860003B46049904F0E3FDD4E9202304F038FD6D
:10087000C4E920012A4633461046314604F0D7FD2C
:1008800033462A4604F0D3FDCDE90601D4E92223FC
:1008900004F026FDC4E9220142464B464046494643
:1008A00004F0C5FD834642464B460C9104F0BFFD63
:1008B00042464B4604F0BBFDD4E9242304F010FD6E
:1008C000C4E92401DDE9021052463B4604F0AFFDC5
:1008D000D4E9262304F004FDC4E92601DDE906017C
:1008E00033462A4604F0A3FDD4E9282304F0F8FC9B
:1008F000C4E92801584652463B460C9904F097FD3E
:1009000052463B4604F093FDD4E92A2304F0E8FC68
:10091000C4E92A01584633462A460C9904F087FD5B
:1009200033462A4604F083FDD4E92C2304F0D8FC96
:10093000C4E92C01DDE9000133462A4604F077FDC5
:1009400033462A4604F073FDD4E92E2304F0C8FC94
:10095000C4E92E0111B03CE52DE9F74F0446B8B0CB
:10096000D4E90C0102460B46CDE9040104F05FFD19
:10097000D4E90023CDE90C23D4E930560746884654
:100980002846314604F053FD43463A4604F049FDFB
:10099000CDE90201D4E90E0102460B46CDE91A0168
:1009A00004F045FDD4E9062307468846284631462B
:1009B000CDE9102304F03BFD43463A4604F031FDF7
:1009C000CDE90001D4E9100102460B46CDE90E0144
:1009D00004F02DFDD4E90A2307468846284631460F
:1009E000CDE9142304F023FD43463A4604F019FDF3
:1009F000CDE90801DDE91A210B46DDE9040104F027
:100A000016FDD4E90223074688462846314604F0FD
:100A10000EFD43463A4604F004FD3491DDE90E2113
:100A200082460B46DDE9040104F001FDD4E904230C
:100A3000074688462846314604F0F9FC3A464346C4
:100A400004F0EFFC8946DDE90E2183460B46DDE923
:100A50001A0104F0ECFCD4E908230746884628462E
:100A6000314604F0E4FC3A46434604F0DAFC07461B
:100A70008846DDE90401DDE9142304F0D8FCCDE962
:100A80000A01D4E916232846314604F0D0FCCDE90A
:100A90001601DDE90401DDE9102304F0C8FCCDE90D
:100AA0001201D4E914232846314604F0C0FCCDE9F4
:100AB0000601DDE90401DDE90C2304F0B8FCCDE911
:100AC0000401D4E912232846314604F0B0FCDDE9E4
:100AD000042304F0A6FCDDE9062304F001FCDDE9B3
:100AE000122304F09EFCDDE9162304F0F9FBDDE996
:100AF0000A2304F096FC4FF0FF3204F079FDCDE9B3
:100B00002601DDE91A01DDE9142304F090FCCDE9AA
:100B10001601D4E91C232846314604F088FCCDE9AF
:100B20001201DDE91A01DDE9102304F080FCCDE9B2
:100B30000A01D4E91A232846314604F078FCCDE9AD
:100B40000601DDE91A01DDE90C2304F070FCCDE9B2
:100B50000401D4E918232846314604F068FCDDE995
:100B6000042304F05EFCDDE9062304F0B9FBDDE9B3
:100B70000A2304F056FCDDE9122304F0B1FBDDE9A1
:100B8000162304F04EFC4FF0FF3204F031FDCDE9A6
:100B90000401DDE90E01DDE9142304F048FCCDE990
:100BA0000A01D4E922232846314604F040FC0DF125
:100BB000380CCDE906019CE80F0004F038FCCDE9C3
:100BC0001001D4E920232846314604F030FCCDE959
:100BD0001201DDE90E01DDE90C2304F028FCCDE96A
:100BE0000C01D4E91E232846314604F020FCDDE93F
:100BF0000C2304F016FCDDE9122304F071FBDDE99F
:100C0000102304F00EFCDDE9062304F069FBDDE9A6
:100C10000A2304F006FC4FF0FF3204F0E9FC3791A0
:100C20000546DDE90201DDE9002304F000FCDDE911
:100C3000082304F0FCFBCDE90601DDE902013A4698
:100C4000434604F0F4FB3A46434604F0F0FBCDE99A
:100C50000A01DDE900015A464B4604F0E8FB5A461A
:100C60004B4604F0E4FBCDE90C01012250463499D7
:100C700004F0BEFC5A464B4604F0D9FB3A464346C4
:100C800004F0D5FB06460E91DDE908015246349B7F
:100C900004F0CDFB5246349B04F0C9FB32460E9B58
:100CA00004F0BFFBDDE90C2304F01AFBDDE90A23A5
:100CB00004F016FBDDE9062304F0B3FB0022134623
:100CC000CDE90C0104F04CFD7ED03A464346504637
:100CD000349904F0ACFB2A46379B04F0A8FBCDE91D
:100CE0000A01DDE908015246349B04F0A0FBCDE97E
:100CF0002310DDE9042304F09AFBCDE90601DDE9C8
:100D00000001DDE9082304F092FBDDE9262304F06D
:100D10008EFBCDE910013A4643461046194604F0D1
:100D200086FBDDE9262304F082FBCDE90E01DDE937
:100D300004233846414604F07AFB06461291DDE969
:100D400000012A46379B04F072FB3246129B04F0E6
:100D500068FB5A464B4604F06AFBDDE90E2304F0BB
:100D6000BFFADDE9102304F05CFBDDE9062304F0A3
:100D7000B7FADDE90A2304F054FBCDE912015A4623
:100D80004B465046349904F052FB199106462A46C8
:100D9000379B04F04CFBCDE90A01DDE92310DDE9C6
:100DA000262304F044FBCDE90601DDE90201DDE97B
:100DB000082304F03CFBDDE9042304F038FB5A4629
:100DC0004B46CDE90E0100E006E11046194604F05D
:100DD0002EFBDDE9042304F02AFBCDE90801DDE95F
:100DE00026235846494604F022FBCDE91001DDE9EF
:100DF00002012A46379B04F01AFBDDE9102304F0B8
:100E000010FB3A46434604F012FBDDE9082304F0E8
:100E100067FADDE90E2304F004FBDDE9062304F0A4
:100E20005FFADDE90A2304F0FCFACDE90E01DDE901
:100E300004233046199904F0FAFA06460891DDE9D0
:100E400000015A464B4604F0F2FADDE9262304F08D
:100E5000EEFACDE90601DDE90201DDE9002304F047
:100E6000E6FA2A46379B04F0E2FACDE90001349B0A
:100E700052461046194604F0DAFA2A46379B04F027
:100E8000D6FADDE926238B460A905046349904F0C1
:100E9000CEFA0DF1080C054689469CE80F0004F0D7
:100EA000C6FA2A464B4604F0BCFA3A46434604F0DA
:100EB000BEFA5B460A9A04F013FADDE9002304F057
:100EC000B0FADDE9062304F00BFA3246089B04F081
:100ED000A8FA05460E46DDE91201DDE90C2304F00F
:100EE00018FB399A81468A46C2E90001DDE90E0104
:100EF000DDE90C2304F00DFB399A07468846C2E968
:100F00000201DDE90C232846314604F002FB399A40
:100F100005460E46C2E90401D4E9102304F087FA1D
:100F20000291D4E90E2383463846414604F07FFA05
:100F3000CDE90001D4E90C234846514604F077FA84
:100F4000DDE9002304F0CCF95A46029B04F0C8F90D
:100F5000012204F04DFB83460091D4E90001D4E95D
:100F6000062304F0BDF9D4E90A2304F0B9F95A467E
:100F7000009B04F056FAD4E9302304F0CAFACDE914
:100F800000012A4633461046194604F050FA04463A
:100F90008B463A4643461046194604F048FA054641
:100FA0000E464A4653461046194604F040FA2A4671
:100FB000334604F095F95B46224604F091F9DDE9E9
:100FC000002304F08DF911F0C1F93A9AC2E9000149
:100FD00001203BB0BDE8F08F0020FAE72DE9F34F88
:100FE0009DB004461E98D0E9006732463B46304625
:100FF000394604F01CFAD4E90C939A464A4604F0A8
:1010000016FA4A46534604F012FA05468846D4E9D1
:10101000300132463B46CDE9080104F008FA324679
:101020003B46CDE90B0104F002FAD4E90023CDE9F7
:10103000062304F0FCF92A46434604F0F2F9019134
:10104000DDE9062383463046394604F0F0F94A4686
:10105000534604F0ECF905468846DDE90B01D4E976
:10106000122304F0E4F95A46019B04F0DDF92A4604
:10107000434604F035F9CDE90001012230463946F6
:1010800004F0B6FA1E9ACDE90201D2E9025398465D
:101090002A4604F0CCF94A46534604F0C8F9D4E98C
:1010A0000E23CDE9042304F0C2F983460A91DDE959
:1010B0000801012204F09CFA32463B46CDE91401B6
:1010C00004F0B5F943462A46CDE90F0104F0AFF923
:1010D000D4E9022304F0ABF9DDE9002304F000F9C0
:1010E0005A460A9B04F09DF9CDE900014A46534651
:1010F0003046394604F09BF9CDE90D01D4E906B339
:101100005A460A9304F093F906460F46DDE90B01AF
:10111000D4E9142304F08BF9DDE9002304F084F909
:1011200032463B4604F0DCF8CDE90001DDE902017E
:101130001E9AD2E904631F46324604F078F94A4603
:10114000534604F074F9D4E91023CDE9022304F0E6
:101150006EF981468A46DDE90F013B46324604F0CE
:1011600066F9D4E9042304F062F9DDE9002304F010
:10117000B7F84A46534604F054F9CDE90001DDE9D9
:101180000D01D4E90A939A464A4604F050F9CDE994
:101190000E01DDE90B01D4E9162304F048F9DDE97D
:1011A000002304F041F9DDE90E2304F099F8CDE9BC
:1011B0000001DDE906016FF0010204F019FADDE932
:1011C000062304F034F9CDE90C01DDE908016FF0E4
:1011D000010204F00DFACDE90E01D4E9242304F054
:1011E00026F9DDE9002304F07BF8DDE90C2304F0A7
:1011F00018F9CDE90001DDE906232846414604F04F
:1012000016F9DDE9042304F012F9CDE91201DDE954
:1012100008012A46434604F00AF9CDE90B01D4E956
:10122000182304F004F9DDE9002304F0FDF8DDE9FA
:10123000122304F055F8CDE90001DDE906014FF075
:10124000FF3204F0D5F95A46CDE916010A9B04F0A5
:10125000EEF8CDE91A01DDE908014FF0FF3204F0A4
:10126000C7F9CDE91101D4E92A2304F0E0F8DDE95A
:10127000002304F035F8DDE91A2304F0D2F8CDE9B3
:101280000001DDE906233046394604F0D0F8DDE9F7
:10129000022304F0CCF8CDE91A01DDE90801324659
:1012A0003B4604F0C4F8CDE90601D4E91E2304F05E
:1012B000BEF8DDE9002304F0B7F8DDE91A2304F0F5
:1012C0000FF8CDE90001DDE916014A46534604F066
:1012D000AEF8CDE90801DDE91101D4E92C2304F0D1
:1012E000A6F8DDE9002303F0FBFFDDE9082304F0A5
:1012F00098F8CDE900012A4643461046194604F005
:1013000096F8DDE9042304F092F8DDE9042304F003
:101310008EF8CDE91601DDE90B012A46434604F0BB
:1013200086F85A460A9B04F082F8DDE9002303F0B0
:10133000D7FFDDE9162304F074F8CDE900015A4621
:10134000284641460A9B04F072F8DDE9042304F0C4
:101350006EF8CDE91601DDE90B01D4E91A2304F09A
:1013600066F8DDE9002304F05FF8DDE9162303F0F9
:10137000B7FFCDE9000101222846414604F038F9C3
:1013800032463B4604F053F8DDE9042304F04FF8FD
:10139000DDE9022304F04BF8CDE90801DDE9140191
:1013A0002A46434604F043F832463B4604F03FF8F1
:1013B000D4E9082304F03BF8DDE9002303F090FFB3
:1013C000DDE9082304F02DF8CDE90001DDE904236F
:1013D0002846414604F02BF84A46534604F027F8C5
:1013E00080460D46DDE90B01D4E91C2304F01FF80B
:1013F000DDE9002304F018F842462B4603F070FFA5
:10140000054601916FF0010258460A9904F0F0F880
:101410005A460A9B04F00BF880460091DDE90E0164
:10142000D4E9262304F003F82A46019B03F058FF71
:101430004246009B03F0F5FF80460D465A46304673
:1014400039460A9B03F0F3FFDDE9022303F0EFFFC7
:10145000CDE90001DDE90601D4E9202303F0E7FF2F
:1014600042462B4603F0E0FFDDE9002303F038FF9E
:10147000054688464FF0FF3258460A9904F0B8F8FE
:101480004A46534603F0D3FF83460091DDE911013C
:10149000D4E92E2303F0CBFF2A46434603F020FF76
:1014A0005A46009B03F0BDFF0546884632463B4640
:1014B0001046194603F0BBFFDDE9022303F0B7FF36
:1014C000DDE9022303F0B3FF83460091DDE9060165
:1014D00032463B4603F0ABFF4A46534603F0A7FFB4
:1014E0002A46434603F0FCFE5A46009B03F099FF50
:1014F000054688464A4653463046394603F097FF2C
:10150000DDE9022303F093FF06460F46DDE90601FD
:10151000D4E9222303F08BFF2A46434603F084FFDD
:1015200032463B4603F0DCFE074688466FF0010278
:101530004846514604F05CF84A46534603F077FFAC
:1015400006460D46DDE90E01D4E9282303F06FFFBE
:101550003A46434603F0C4FE1FB032462B46BDE870
:10156000F04F03F05EBF30B50446B0F88C0089B090
:1015700000040690B4F88E000D4600040790B4F8FD
:10158000900088340004089002A80AF0E1FF029954
:1015900006982B46401A06900399079806AA401A07
:1015A000079004990898401A08902088616A80B2D0
:1015B0000AF0EAFD09B030BD2DE9F04786B00D46CE
:1015C0006946FFF7D0FF002637463446E9466FF0FC
:1015D0000F0A0DF10C0859F8240004F020F85146C8
:1015E00003F072FE48F82400014603F0FDFD04F00C
:1015F000A4F832463B4603F073FE641C06460F46D1
:10160000032CE8DB10F0A2FE06460F46002458F833
:10161000240004F092F832463B4603F07AFF04F0CF
:10162000CFF855F8241003F087FD45F82400641C1A
:10163000032CECDB686D401C68650BF079FAE867F9
:1016400006B0BDE8F0872DE9F04104460BF02CF818
:1016500040BB0AF0A9FF042824D0FE4920460E46CC
:10166000FFF7AAFFFC4DD5E95C01814205DB30465E
:1016700003F0FDF90020C5F87401208E4FF0040638
:10168000C00515D504F118000BF002F88009B0F57B
:10169000C87F0AD2D5F8B800002850DD401EC5F832
:1016A000B8004AE00120BDE8F081C5F8B86044E028
:1016B000D4F8A010D5F81401081A01D4034600E0AC
:1016C0004342E44A4FF4A02C583A634505DDD4E97F
:1016D00029035365C2E913102FE00312D4F8A47054
:1016E000D5F818015B43381A01D4864601E0C0F1F1
:1016F000000EE64505DDD4F8A800D164C2E91470F7
:101700001BE0001200FB0033D4F8A800D5F81C1130
:10171000401A01D4014600E0414261450DDC00124F
:1017200000FB0030B0F5403FB4DBA034C5F8B86032
:1017300094E80B004C3282E80B000020B3E7022053
:10174000B1E72DE9F04F93B0C34CD0E90023D4F8B2
:10175000A81004EBC101C1E90023D4F8A810491C6A
:10176000C4F8A810D0E9022304EBC101C1E90023A9
:10177000D4F8A810491CC4F8A810D0E9042304EB3D
:10178000C100C0E90023D4F8A800401CC4F8A80098
:10179000152802DB0020C4F8A8001822AE490CA8C6
:1017A00003F08BFC1822AC4904A803F086FC012648
:1017B0000DF130090DF1100AA346002406EB46088E
:1017C00008EB04010BEBC10509EBC407D5E90023C5
:1017D000D7E9000103F0DCFF03D2D5E90001C7E936
:1017E0000001D5E900230AEBC407D7E9000103F0A3
:1017F000B7FF03D2D5E90001C7E90001641C032C3F
:10180000DEDB761C072ED8DBDDE90401DDE90C23E5
:1018100003F007FE05460C46DDE90601DDE90E236F
:1018200003F0FFFD2A46234603F09AFF02D2284622
:10183000214605E0DDE90601DDE90E2303F0F1FDB7
:1018400005460C46DDE90801DDE9102303F0E9FD5A
:101850002A46234603F084FF04D213B028462146CB
:10186000BDE8F08FDDE90801DDE9102313B0BDE824
:10187000F04F03F0D6BD2DE9F0419CB006460024A0
:101880000E945520CDE90F401190744D0AA80AF02E
:101890001FFE12A90AA80BF0C3FA16AA0EA912A8D5
:1018A0000BF0E2FA6A460AA916A80BF0DDFA0198D5
:1018B0006B4F00F596700190029800F596700290BB
:1018C000039800F5967003903846FEF707FE03F084
:1018D000DBFE0199084401903846FEF7FFFD03F056
:1018E000D3FE0299084402903846FEF7F7FD03F054
:1018F000CBFE039908440390304601A9FEF7B3FEDE
:10190000D6E930010022574B03F042FF35D21AAA24
:1019100004A93046FFF720F878B3DFF84C81DDE901
:1019200008010022434603F07CFD02460B4603F00B
:101930007EFD06460F46DDE906010022434603F020
:1019400070FD02460B4603F072FD04460D46DDE9CC
:1019500004010022434603F064FD02460B4603F0F7
:1019600066FD22462B4603F0BBFC32463B4603F0A5
:10197000B7FC10F0EBFC04460D461CB0204629468F
:10198000BDE8F0410022394B03F0C3BD10B5E8219A
:10199000374803F0B9FB3048364920F8BC1F4A0CE1
:1019A000C280C1818282818342842B48E821E83849
:1019B00003F0AAFB28490020C1F8B40010BD2DE9AE
:1019C000F04F254F0446C5B0006BC7F8A001204674
:1019D000FFF739FE00287DD1D7F8941107F1BC003C
:1019E0003D90012911D1B4F98C004090B4F98E00DA
:1019F0004190B4F99000429040A91D48FEF733FE93
:101A000004F18C013D9800F023FBD7F80801002871
:101A100002DD401EC7F8080115480022E8381346C9
:101A2000D0E93051284603F0B3FE7CD21049E822B9
:101A3000E839684603F041FB0D4840A9E838FEF755
:101A400012FE0B493EAA2039A1F1C8004391FEF7CE
:101A500083FF11E0700400245003002400408F40F5
:101A6000000028410000344000C0724000000840DF
:101A7000800100240080FFFF002866D0FE484399C3
:101A8000FFF7ACFAD7E9402305460E46E03703F0EE
:101A9000C8FCDFF8E4B380468946DBE93001002268
:101AA000F64B03F0BEFC02460B464046494603F0A7
:101AB00030FD10F04BFCDBE9308B81468A4600227A
:101AC000EE4B4046594603F0ACFC42465B4603F001
:101AD000AEFC00E0C1E080468B460122284631463C
:101AE00003F086FD42465B4603F013FD10F02EFC2A
:101AF000B86803F022FE77E8382303F098FC4A46E2
:101B0000534603F02DFE03D3D7F80801002822DD49
:101B1000E8226946D84803F0D0FAD7F8E800E03761
:101B200003F00BFE00E00FE077E8382303F07FFCC2
:101B30004A46534603F014FE4CD24FF4FA7001F0BB
:101B40007BFD0A20C7F8080144E0E8226946CA483C
:101B500003F0B3FA3EE0D7F8980101283AD1D7F85C
:101B6000B400401CC7F8B40000200BF0C5FFDFF83C
:101B700008831022D8E9320103F03AFD03F0BEFDDC
:101B80003A90D8E93401102203F032FD03F0B6FD9B
:101B90003B90D8E93601102203F02AFD03F0AEFD98
:101BA0003C9003213AA80BF0EBFED8E9300100226B
:101BB000B34B03F0EDFD0BD2B24A41461346084643
:101BC000FEF7BEFC40464399FFF708FA05460E466D
:101BD000C7E94056208EC00509D5B4F87400C00589
:101BE00005D5A948FFF747FE05460E4601E0A74E7A
:101BF0000025A1480022E830A54BD0E9301C08465A
:101C0000614603F0ADFD28D39F493EAA2039A1F1DA
:101C1000C8000291FEF7A0FE00287DD0D4F8AC00E9
:101C200003F021FD02460B469A489B4903F071FCE4
:101C3000804689460298FFF784FD82468B464246DD
:101C40004B4603F0A5FD09D20022944B28463146AD
:101C500003F086FD02D2FFF799FE8EE142464B4625
:101C60005046594603F07CFD7ED200228C4B28461C
:101C7000314603F075FDF7D27F4E0022E836894BDE
:101C8000D6E9300103F084FDEED2DFF8ECB100229A
:101C90001346DBE9300103F063FD72D1304602994F
:101CA000FFF79CF9B84607F58077B14603C7D6F829
:101CB000C060D9F8C47004460D4600226F4B304610
:101CC000394603F0AEFB32463B4603F0B0FB064616
:101CD0000F4601222946204603F08AFC32463B4645
:101CE00003F017FC10F032FB04460D46D8F8E8006C
:101CF00003F023FDD8E9382303F099FB22462B4655
:101D000003F02EFDA7D33DAC029994E80D00FEF739
:101D1000E3FA02289FD000E030E100289DD1D8F8F6
:101D20009801012899D100200BF0E6FE4C461022C4
:101D3000F4E9320103F05CFC03F0E0FC3A90D4E9F2
:101D40000201102203F054FC03F0D8FC3B90D4E9CC
:101D50000401102203F04CFC03F0D0FC3C90032162
:101D60003AA80BF00DFE01E0FDE00AE001200BF0C7
:101D700073FE192003900490059003A80BF060FEF9
:101D8000E8E0B946D7F8B40003F06DFCD6E930239B
:101D900003F0BFFB444A454B03F0FAFCB2D336488C
:101DA0000299E830FFF71AF9B246D6F8C060DAF8BF
:101DB000C47080460D460022304B3046394603F051
:101DC00030FB32463B4603F032FB06460F4601220B
:101DD0004046294603F00CFC32463B4603F099FB93
:101DE00010F0B4FA06460F46D9F8E80003F0A5FC57
:101DF000D9E9382303F01BFB32463B4603F0B0FC25
:101E0000CCD33DAE029996E80D00FEF765FA0028A6
:101E10007ED15F465646D7E93623D6E93601C83625
:101E2000C83703F0FEFA02460B4603F000FBD7E981
:101E3000022382468B46D6E9020103F0F2FA0246FB
:101E40000B4603F0F4FACDE90001D7E9002376E868
:101E5000320103F0E6FA02460B4603F0E8FADDE948
:101E6000002303F03DFA52465B4603F039FA10F0C6
:101E70006DFA07468A461BE0980000240000F03FF8
:101E800000409F406666E63E68020024000008406D
:101E9000000034409A9999999999A9410000F83F16
:101EA0000000104000003E400AD7A3703D0AE73F03
:101EB000D4F8AC0003F0D7FB3A46534603F0B7FA28
:101EC0006FF01D0203F094FB04460F4600228D4B79
:101ED00003F05EFC15D300228B4B2046394603F0FD
:101EE00057FCBFF4B8AED9F8B40003F0BCFBD6E998
:101EF000302303F00EFB4FF03332844B03F030FC01
:101F0000EFD2D9F898014C4601287FF4A4AE00E046
:101F100033E000200BF0F0FDC4E94085F6E9320122
:101F2000102203F065FB03F0E9FB3A90D6E90201C9
:101F3000102203F05DFB03F0E1FB3B90D6E90401C6
:101F4000102203F055FB03F0D9FB3C9003213AA883
:101F50000BF016FD6E494FF07E530022A1F1E80010
:101F6000FEF7EEFA77E66A4800226A4BD0E93014B1
:101F70000846214603F00CFCF4D3002045B06FE482
:101F800070B5654C0546D4F80C0110B9284600F030
:101F90008AF8D5F8B01044F6206081420ADAD4F805
:101FA000102111448142C4F810114FF0000005DBEC
:101FB000C4F810012846BDE8704000E570BD042259
:101FC0004FF4C871AFF247000BF042BAAFF24F00C6
:101FD0000BF0AABE4E4810B5E821E83803F094F89B
:101FE000FFF7D4FC4FF4D4714B4803F08DF84A4C02
:101FF0004FF07E50C4F8E80004F5907004F5887442
:1020000002F09FFC0A2020664FF08240E0641E2010
:10201000E0664248A067424860674248E0670020A7
:1020200010BD10B5FFF7D6FF002805D1AFF2710043
:10203000BDE810400BF0ECBB10BD10B5AFF2BF0017
:102040000BF072FEAFF28900BDE810400BF038BF14
:1020500030B50022C2EBC20331F9124030F91350FF
:10206000AC420ADD02EB42040D8820F8245000EB5C
:1020700084044D8865808D88A58000EB430331F989
:102080001240B3F906309C4209DA02EB420300EB3E
:1020900083030C88DC804C881C818C885C81521CFA
:1020A000032AD7DB30BD70B51B4DD0F8AC200446F9
:1020B000EAB1D3170020192102F0ADFF45F8AC0FAB
:1020C00054F8AC2F0020D317052102F0A4FF68605C
:1020D00022680020D317962102F09DFF03F0C3FA77
:1020E000C5E90D01AC3D0120C5F80C0170BD6FF0D4
:1020F0000040C5F8AC00C5F8B0000B498005C5E943
:102100003801F0E700001040000004403333C33FC3
:102110008001002400409F4050030024CDCCCC3EE1
:102120003333333F9A99193FFFFFDF4110B5F94927
:10213000C4074FF040434FF0804205D08B66CB661A
:10214000C1E91C328A67CA67840709D5C1F8003122
:10215000C1F80431C1E94232C1F81021C1F814219B
:10216000400709D5C1F89831C1F89C31C1E96832FE
:10217000C1F8A821C1F8AC2110BD2DE9F14F82B002
:10218000002102988A468946806F00287DD000226F
:102190000020401C0428FCDB02984FF0000C00EBF0
:1021A000C203D3E90010A1FB0167D3E9065400FB89
:1021B000017701FB0077CDE90067A646AE1B64EB13
:1021C0000704AB460327A6FB075804FB078406FB5E
:1021D0000C44DDE90067AD197C41A5FB016704FBF8
:1021E000017405FB0045D3E90C47341B65EB07057B
:1021F000CDE900455D46A5FB05670324A6FB045811
:102200000EFB0B770BFB0E7707FB048406FB0C44DD
:10221000D3E91263761B63EB04034C18A4FB017C27
:1022200040EB000505FB01C504FB0055A7FB014C75
:1022300005FB01C507FB0055A4FB017C05FB01C59F
:1022400004FB0054F6196341DDE90045AD0045EAA1
:102250009475A400A4FB017C05FB01C104FB0014E0
:10226000F01B73EB040103D50023404263EB010133
:10227000BAEB000479EB010301DA82468946521C6D
:10228000032A85DB5046494600E010E003F0D5F90B
:10229000A149896B02F0DAFF03F00FFA9D4AD2F8E8
:1022A0000C2203B09200BDE8F04F02F0F4BE002013
:1022B00003B00146BDE8F08F2DE9F14F0020009AF0
:1022C0000146926FF2B300240022521C042AFCDB68
:1022D000009A02EBC405AA46D5E90029A2FB023CFC
:1022E000D5E906769E46FB1A0325A3FB057809FB74
:1022F00002CC02FB09CB66EB0B0606FB05854FF013
:10230000000C03FB0C5617EB0E03A3FB027C46EB01
:102310000B0606FB02C203FB0923DAE90C25BA1AF5
:10232000AB4103D50025524265EB0303851A71EBDF
:10233000030501DA10461946641C032CC4DB03F0C4
:102340007CF900E00EE07449896B02F07FFF03F036
:10235000B4F9704AD2F80C22BDE8F84F02EB420201
:1023600002F099BE00200146BDE8F88F2DE9FE433A
:10237000684D80460024D5F810626F4605EBC40115
:102380003246D1E9020102F077FE05EB8401B1F893
:1023900084100904401847F8240004F10104032CB8
:1023A000ECDB5C489821083002F0AEFE0120FFF71C
:1023B000BDFE95F8E8010199042807D1D5F8180267
:1023C000B0F5201F02DD052085F8E801524C009889
:1023D000636AC11A01D40E4600E01E1A0198A26A6F
:1023E000801A01D4074601E0019FD71BBE4206DDDB
:1023F000002901D4084606E00098181A03E00028D6
:1024000001D50198101A029AE16A521A01D41346B2
:1024100001E0029BCB1A834205DB002A01D410465F
:1024200001E00298081AD8F824100AF0B9FCD5F88F
:102430001812814206DD032168460BF065FB02207D
:102440000BF0FAFB009860620198A0620298E062CB
:10245000BDE8FE83304AC2E9020170472E4AC2E954
:10246000060170472C4AC2E904017047294AD2F894
:10247000E0310360D2E97402C1E900027047254AE5
:10248000D2F8E0310360D2E97602C1E90002704778
:102490002DE9FE4781460020EA468A6F22B901EB0A
:1024A000800339F91020DA6701EB800239F9103026
:1024B000D46F1D1B4AF82050136E9D4200DD156637
:1024C000D36E9D4200DAD5660123002422464FEAEE
:1024D000E578A3FB056704FB057403FB084433465A
:1024E00002EB420601EBC60606EBC00CDCE9007607
:1024F000FF186641CCE90076521C042AE9DB401C37
:102500000328CADB886F401C88670120C1F890004F
:10251000BDE8FE87F80400245807002430B50023E6
:1025200002EB830550F823405B1CEC66032BF7DBC2
:10253000C2F88810916F79B1002102EB810450F844
:102540002130E56F5B1B00D55B42256E9D4200DAB2
:102550002366491C0329F0DB906F401C9067012023
:10256000C2F8900030BD10B500210B4600EB81028F
:10257000491CD46ED46713660329F7DBD0F88810A2
:1025800040F8783FC0E9051310BDD0E92210081AC1
:1025900070470146D1E91802824200DB1046896E7D
:1025A000814200DB084670472DE9F0478046501E07
:1025B000012686408946C2F12007404602F06BFDA5
:1025C00004460D46404649463A4602F055FD3A4615
:1025D00002F061FDB04203DD641C45F1000505E039
:1025E0007142884202DA641E45F1FF3520462946D1
:1025F000BDE8F087F7490020086248628862C86237
:10260000086448648864C864086348638863C8636E
:10261000086548658865C865704730B5EE4AD2F8E8
:10262000483223B1D2E990542D1A8C4101DAC2E923
:1026300090015B1CC2F8483230BD30B5E64AD2F892
:10264000583223B1D2E994542D1A8C4101DAC2E9EF
:1026500094015B1CC2F8583230BD30B5DE4AD2F866
:1026600028322BB1D2E98845041B71EB050401DA4D
:10267000C2E988015B1CC2F8283230BD30B5D64AA9
:10268000D2F838322BB1D2E98C45041B71EB05042A
:1026900001DAC2E98C015B1CC2F8383230BD2DE989
:1026A000F0470246CC48012508308046C36E016ED3
:1026B000046FC91A436E1B1B8B4200DB1946836EE5
:1026C000D8F87400181A884200DB0146C14F603701
:1026D000F86B884204DA002400F00AFA204687E703
:1026E000108E0124BC4EC0054FF000010ED5D6F867
:1026F00080303068834209DBB2F87420D20506D5F9
:10270000D6F8B021824201DB052400E00C4674B308
:10271000600719D5AF48C8388146FFF72EFD000D78
:1027200040EA01300915C6E97601D7E904321B1ADF
:102730008A4102DA0025FFF7A1FF9821484602F0FE
:10274000E3FC0420FFF7F2FCE0070ED04046FFF761
:1027500014FDC6E97C01D7E906340246181A8C41FB
:1027600003DA00251046FFF778FF284640E7FFE729
:1027700002203DE71EB5044690F83000C0F38110FA
:10278000032804D19449201D0831FFF781FE94F8F5
:102790007400C0F38110032805D18E4904F148006C
:1027A000C839FFF775FED4F8B8008B4AC0F381131F
:1027B000A0326946032B0FD0C0F3411003281AD171
:1027C000002004EB8003D3F8A0309B1341F82030A5
:1027D000401C0328F5DB09E0002004EB4003B3F9BB
:1027E0008C3041F82030401C0328F6DB6846D4F8D2
:1027F000C010FFF793FE1EBD2DE9F04705460020EF
:10280000296BCA0567D501F05001402900D101208C
:1028100095F8741001F05001402900D1012095F87D
:10282000B8106D4C01F05001402900D030B100F0DB
:102830005FF90020C4F8E00184F8E801654ED4F89F
:102840000812E86A6036814225D0C4F808020A28D6
:10285000306B0ADA40002060716B491CC4F80C121E
:1028600002F0DDFE0FF0A7FD04E02060706BC4F8FD
:102870000C02B06BC4F81402D4F80C02C0F11000C2
:10288000C4F810024FF48040C4F8180296F83410CF
:1028900019208840F0632846FFF76CFF94F8E81190
:1028A000DFF8349105274FF0020809F1A009072944
:1028B00011D2DFE801F0041127305E7E8500D4F8E4
:1028C000E001411CC4F8E0110A2804DB00F010F913
:1028D000012084F8E80186E0D4F89800012810D19E
:1028E0002846FFF7DCFE10B1012803D004E084F88D
:1028F000E87101E084F8E8814846FFF734FEFFF70D
:1029000079FE70E0032084F8E8012846FFF72EFDE9
:1029100000F0EEF867E02846FFF7C1FEF0B30128AB
:1029200061D1B5F8B8004FF00403C00515D548468D
:10293000FFF72FFE0146C017C4E97410D6E902C2A2
:10294000BCEB0101824102DA84F8E87108E04846F4
:10295000FFF71BFE316A884202D384F8E83124E095
:10296000F4E97601FFF769FED4E90601FFF755FEA9
:1029700039E0B5F8B800C0050BD54846FFF709FEA9
:102980000146C017C4E97410D6E90232591A8241CF
:1029900008DB2846FFF783FE00B100E002E00128D3
:1029A00003D020E084F8E8711DE02846FFF7DEFC44
:1029B000D6E7062084F8E80101200BF03DF90DE090
:1029C0002846FFF76CFE012801D038B10BE084F8EF
:1029D000E88108E0F8060024F804002400F088F8F4
:1029E0004846FFF7C0FD002002E610B50021401068
:1029F000002802D001F10101F9DC454C4FF0010043
:102A000001F1010100FA01F0C4E90C0102F007FE36
:102A10000FF0D1FCA06394F8341019208840E063D3
:102A200010BD10B54FF418713A4802F06DFB40210B
:102A3000374802F069FB0720FFF778FB344840F283
:102A4000DC510022C0E906121421C0E902124FF441
:102A50001671C0E9041230492E4C01620120C4F8FD
:102A6000E4011920FFF7C1FF0020C4F8080210BDDF
:102A700010B54FF41871274802F046FB0720FFF706
:102A800055FB244801210022C0F8E41180F8E81128
:102A9000032101200BF0C0F807226421AFF2A72028
:102AA000BDE810400AF0D4BC10B501200BF0C4F80A
:102AB000AFF2BB20BDE810400BF036B910B5FFF700
:102AC000B0FF002805D1AFF25700BDE810400AF072
:102AD0009FBE10BD10B5FFF7E7FFAFF26B00BDE87A
:102AE00010400BF0EDB90B49D1E97C0170477047FC
:102AF000084810B59821083002F006FB98210748D5
:102B000002F002FBBDE810400520FFF70FBB0000FC
:102B100058070024F80400240008AF2F30060024D2
:102B20002DE9FC5F0D460026416B99469246B04662
:102B3000002904DBD0F8BC00032800D10126FF499E
:102B40002422081F02F0B9FAFC4FC03F0024C7F846
:102B5000E05007EB8400D0F8BC10404602F0ECFADD
:102B6000641C80460A2CF4DBF54902F06FFBF54C3F
:102B700080464FF0C80BC7F8E400BAF1320F21DBF2
:102B80004846C7F81CB102F04AFD00900190EE499A
:102B9000284602F05BFB019902F026FB214602F079
:102BA00055FB0446BAF57A7F33DBE8492846009C9A
:102BB00002F04CFB214602F017FBE24902F046FB13
:102BC000044626E041F2883199FBF1F04042D7F803
:102BD0001C1100EB80004018C7F81C0102D5002032
:102BE000C7F81C01484602F01AFD8246D84928461B
:102BF00002F02CFB514602F0F7FA214602F026FBC8
:102C00000446D7F81C0120B9D7F82801012800D1C3
:102C10000024D7F8200100B12C46CE49894500D1C7
:102C20002C4614F0FF4F11D04046C7F8E8804146CB
:102C300002F0D4FA20F00040C74902F0E7FD22D2AA
:102C4000D7F8B80010F0FF4F03D01CE0D7F8E80029
:102C5000EDE7C6B14846C7F81CB102F004FD0446D2
:102C60000E46284602F069FD0022BC4B02F051FCE2
:102C70002246334602F0DBFB0022B94B02F049FC4E
:102C800002F09EFD04462046BDE8FC9F2DE9F04F72
:102C9000ABB04FF0000AA94FCDF810A0C03FCDF85F
:102CA00014A0CDF818A00446D7F82011022003295B
:102CB0007DD0002620AD07EB8600D0F8A80002F0FA
:102CC000AEFC6FF01D0102F0FFFA45F82600761CFD
:102CD000042EF0DB0FA809F0FBFB24A809F06CFC24
:102CE000964B24AA183B0FA92046279300F0F4F92D
:102CF000064604F1180009F0CBFC82099548D7F884
:102D00003031834200DB034631462046FFF708FF9F
:102D1000BB4607F1B806D7F8EC1002F065FA306050
:102D20000BA809F0D5FB13A90BA80AF0FDFA8348FC
:102D30000FAA3C300BA906460AF096F831460BA8BC
:102D40000AF06EF800210DF13C080DF14C090DF16F
:102D5000100E00221346104601EB410C0CEB00074D
:102D600059F8276008EB8007401C7F680328C6FBE2
:102D70000723F3DB900F40EA83004EF82100491C43
:102D80000329E6DBDBF820015F4600287DD05046B2
:102D9000CDF818A0404202F042FC6FF01D094946F0
:102DA00002F092FA0FF09CFAD046564600E074E02A
:102DB000CDE9000A0698CDF808A0404202F02FFCA9
:102DC000494602F081FA0FF0B9FA0390D7F83001C2
:102DD00041F2883190FBF1F04FF0804A02F01FFC85
:102DE00028902990069802F01AFCDFF878B159462D
:102DF00002F02CFA299902F029FA514602F026FA3B
:102E000002F042FC40000690DDF8A0A002F007FCB2
:102E1000594602F0E9F9514602F0E6F902F034FCB5
:102E2000069002F0FCFB494602F04EFA0FF058FA09
:102E3000CDE907060996069802F0F1FB494602F033
:102E400043FA0FF07BFA0A901CAA694620A80AF000
:102E50009BF86A4607A91CA80AF096F8D4F8BC00AB
:102E6000EA46002810DD00261E215AF8260045F803
:102E7000260002F029FA02F007FC07EB8601761C17
:102E8000C1F8A800042EEFDB00E00BE0D4F8BC0092
:102E90004FF0FF3503280AD106E0C7F820012BB018
:102EA000BDE8F08F069875E700F067FEF0B357F8BD
:102EB000A80F02F0B4FB4E46494602F005FA1C90FA
:102EC000786802F0ACFB314602F0FEF91D90B8685C
:102ED00002F0A5FB314602F0F7F91E90F86802F007
:102EE0009EFB314602F0F0F91F90B86FA83F002812
:102EF000D5D0D7F8B8002946A83702F0E5F90FF089
:102F0000EFF91E2102F0E0F902F0BEFBC7E900086C
:102F1000C7F808802946386902F0D6F90FF00EFA92
:102F20001E2102F0D1F902F0AFFB00E01CE0F860D6
:102F3000D4F8C010A83F279844E0000058080024A7
:102F40000000204100409C450000484300004842EA
:102F50000000C84340420F000E2DB23D00007940F2
:102F60000088B340E10237472946D7F8B80002F09D
:102F7000ABF90FF0B5F9CDE90708CDF82480294663
:102F8000D7F8B80002F0A0F90FF0D8F90A906A4615
:102F900007A920A809F0F8FF68460AF099F800256B
:102FA00056461E2156F8250002F08EF902F06CFB01
:102FB00007EB85016D1CC1F8A800042DF1DBD4F8E6
:102FC000C01027980AF050FDD7F8200100288FD0B4
:102FD000401E62E770B590F8B810664ACC064FF014
:102FE00000034FF0030101D4C2E94813B0F82041B7
:102FF000E40509D4048EE40503D5B0F87440E40573
:1030000002D4C2E948131AE0D2F8341139B1D0E938
:103010003013C91A4FF47A73B1FBF3F105E0D0F81D
:10302000B01044F62064A14202DBC2F830110AE07D
:10303000D2F82C512944C2F82C11A14201DA002007
:1030400070BDC2E94B31FFF721FEF8E710B54FF430
:103050009C71484802F058F8464C4FF080400021DF
:10306000C4F8FC0044F8A80F4248A8300AF0FCFC61
:103070004FF47A7060674FF07E50606410BD3D4938
:10308000C1F8EC00002070473A49C1F8280100203F
:1030900070473849C1F834010020704704224FF4CA
:1030A0001671AFF2CF000AF0D3B9AFF2D7000AF031
:1030B0003BBE10B5FFF7CAFF2E490020C1F828011A
:1030C000C1F83401AFF22B00BDE810400AF0A0BBFC
:1030D000AFF237000AF0F4BE2DE9FF470C46254950
:1030E0001546074699463C220C31224801F0E5FF7F
:1030F000204950225831A1F1100001F0DEFF1D4E91
:1031000095E8070006F13C031B4D83E807001ECC41
:1031100006F1980080E81E00D6F82401401CC6F88D
:103120002401062802DD0620C6F82401C0F10604A9
:1031300007F1A00818E006EB04116A46484648313A
:1031400009F092FE04EB440006EB80016A4640461B
:1031500008F036FF074625F0004120F0004002F05D
:103160004BFB00D23D46641C062CE4DB04B0284631
:10317000BDE8F08798070024002474491FB5014674
:103180001022684601F099FFF6489DE80E0080E89D
:103190000E00F5499DF80C0081F8B001002004B044
:1031A00010BD1FB5EF490EC98DE80E00EE49102283
:1031B00091F8B0118DF80C10694601F07EFF0020E7
:1031C000EDE72DE9F04F91B000251821684601F098
:1031D0009BFF0024182106A801F096FFE249A046B3
:1031E000C14691F8C00101287ED1D1F8B8B1D1F81B
:1031F000B4A10022C2EBC20000EB4001DA4800EBB0
:10320000810E9EF850000F90002863D000215EE0F0
:103210005EF82130DDE900676D1CD8170E939B190D
:103220007841CDE900300EEB8100EDB243690D939A
:10323000DDE9027CDE17DB1946EB0C06CDE9023630
:10324000836ADDE9047CDE170C93DB1946EB0C0680
:10325000CDE90436C06B0E9BDDE9067C83FB006381
:10326000360C46EA0346F6194CEB2343CDE90663D8
:103270000D9BDDE9087C83FB00634FEA164646EAB6
:103280000346F6194CEB2343CDE908630C9BDDE9BB
:103290000A7C83FB00634FEA164646EA0346F619AA
:1032A0004CEB2343CDE90A6380FB00634FEA1646EB
:1032B00046EA034616EB080849EB234904445845FF
:1032C00001DA834602E0504500DD8246491C0F9832
:1032D00088429DDC521C052A8CDBA348AAEB0B011B
:1032E000D0F8BC01814200E053E052DBA5FB08723C
:1032F000E01700260F9006FB082005FB09000E9042
:1033000084FB0410090C41EA00410014CDE90C01D2
:1033100006A800EBC601D1E90002A0FB05BC02FB38
:1033200005C2002100FB012C684600EBC601D1E973
:103330000002A0FB043802FB04820F9900FB01206D
:10334000190C0CAA41EA00494FEA204A92E80B0006
:1033500087EA010283EA000852EA080212D07A1AC8
:1033600063EB0003BBEB09006CEB0A0C4FEA0C416A
:1033700041EA1041000401F04EFE7B4901EB860159
:10338000C1F8A401761C032EC2DB7748012180F826
:10339000B01111B00020BDE8F08FF8B5724D0E46A7
:1033A0000446D5E96D01091A052291FBF2F1301AA4
:1033B00090FBF1F0C0B28DF80000042801D9202064
:1033C000F8BDC0EBC00000EB400005EB800191F8B8
:1033D0005000052816D0421C81F850209DF800109E
:1033E000C1EBC10101EB410105EB810202EB800160
:1033F000CE63236842F8203060684861A068886224
:103400000020F8BD01F14003181F1022194601F0F9
:1034100054FE9DF800001022C0EBC00000EB4000FD
:1034200005EB8000011D01F048FE9DF80000102210
:10343000C0EBC00000EB400005EB800000F118017C
:10344000143001F03AFE9DF800001022C0EBC000DD
:1034500000EB400005EB800000F12C01283001F06A
:103460002CFE0420BAE730B585B0044603A96846AF
:1034700009F0E2F804A809F0DBF902282BD0D4F80F
:10348000E4000399401A384991F8B02112B308B307
:10349000D1F8A421009C80FB0232150445EA1342B6
:1034A00022440092D1F8A821019C80FB023215042D
:1034B00045EA134222440192D1F8AC11029A80FBF2
:1034C0000110030443EA11401044029003216846AE
:1034D0000AF01AFB0CE0606B032809D109F0C0F870
:1034E00030B168460399FFF758FF08B9FFF769FE46
:1034F00005B0002030BD10B54FF4E2711A4801F05C
:1035000003FE19481949C0F8B4114FF4AA01C0F8D4
:10351000B8114FF4A021C0F8BC11012180F8C011EE
:10352000002010BD1049C1F8B801002070470E49B5
:10353000C1F8B401002070470B49C1F8BC0100205C
:10354000704758B10849D1F8A4210260D1F8A821E8
:103550004260D1F8AC1181600020704705207047AF
:1035600024207047740A0024D00800240000D8FFEB
:1035700020B12D4981F8C0010020704724207047F8
:10358000294B93F8B101002818D0D3E96D10401AE7
:10359000052190FBF1F00020C0EBC00101EB4101DF
:1035A00003EB810191F8502022B1002100E0491C79
:1035B0008A42FCDC401C0528EEDB00207047082214
:1035C00096211A4809F044BF18480AF0ADBB10B55F
:1035D000FFF791FF4FF49A731022154915480AF02E
:1035E000D3F820B9AFF229000AF012F908B101208E
:1035F00010BD0D49012081F8B101002010BD10B5AA
:10360000094C94F8B101002808D008480AF08CFB56
:10361000AFF255000AF054FC08B1012010BD0020A3
:1036200084F8B10110BD0000D00800246734000800
:10363000A33100087D310008002803DDFE49012286
:10364000C1E920020020704710B5B821FA4801F006
:103650005BFDF948F949C160F9498160F9490160A8
:10366000F94941604FF0804141664FF4FA61C1670A
:10367000F649C0F89C10002010BD2DE9F041EE4C39
:103680000E4607460025216802F0C0F811D33846DF
:10369000616802F0B1F80CD32069012813D13046DB
:1036A000E16802F0B3F804D33046A16802F0A4F850
:1036B00009D2606F20B9E048A16D18300AF0D4F942
:1036C0000120C4E91D05D4E91E01884204DB606FB6
:1036D000012800D1E5656567BDE8F08170B50C464D
:1036E000054608F005FFD44A002110B9D8488542A4
:1036F00002DD1161516102E01069002808D15069B2
:1037000020445061B0F5FA7F02DD0120C2E90401D6
:1037100070BDF0B58DB00D4614460646694609F0F9
:1037200003FE09AA3146284609F09EFB2946304689
:1037300009F076FB0021EC460DF1240E00231A4619
:10374000184601EB41073D180EEB80065CF825504A
:103750007668401CC5FB06320328F4DB980F40EA6C
:10376000820044F82100491C0329E7DB0DB0F0BDBD
:10377000B1490020C1F88C00704770B504468068DC
:1037800001F04DFF014601F02FFD0546606801F094
:1037900046FF014601F028FD0646206801F03FFF84
:1037A000014601F021FD314601F0C6FC294601F039
:1037B000C3FC0EF000FEBDE870406FF00F0101F099
:1037C00083BD70B50E4600259B4C012130B1012808
:1037D0000CD0C4F8981044F88C5F29E0C4F8A060BD
:1037E000C4E92965E4E92415A56070BD3046D4F824
:1037F000A01001F0F3FC20F00040D4F89C1001F080
:10380000FBFF13D254F8945F31466D1C256020698C
:1038100001F092FC2061943C312DE6DD022144F858
:10382000901F8C4901F012FDA06170BD44F8905FBB
:10383000656070BD2DE9FF4F8BB000267E4C0546BC
:10384000039604960596D4F88800934637460028D8
:103850007ED008F015FF10B103A808F0D9FED4F807
:103860008000A146002819DD01204C46C9F88400DB
:1038700008F006FF48B103A808F00AFF8009B0F578
:10388000C87F02D2D4F8800004E0D4F88000401B46
:10389000C4F88000002801DCC4F8847009F048F9FD
:1038A000002855D000240E9850F8240001F0B7FEEF
:1038B00082465BF8240001F0B2FE6FF00F0841462B
:1038C00001F002FD514601F08FFC414601F0FCFC85
:1038D000314601F031FC641C0646032CE3DB5846FC
:1038E000FFF74BFF01460690304601F0AFFC4FF06A
:1038F0007E58DFF864A1404501DD404602E05045B6
:1039000000D950460EF0DCFC8346D9F88C004E46B8
:1039100070B13168069801F06FFF09D2716806989E
:1039200001F074FF04D25946D6F89000FFF749FF22
:10393000684608F061FF40490C22AC31684601F04E
:10394000EEFB18B9D6F8980001286CD13A4800E08F
:10395000C6E09DE80E00AC3080E80E00009818B973
:10396000019808B9029858B36846FFF706FF044665
:1039700010F0FF4F57D0DFF8E4902046494601F0A1
:103980002DFC014601F030FC0EF015FD706049463B
:10399000204601F0D1FB014601F026FC0EF00BFDA4
:1039A0003060029801F03BFE6FF00F0101F08CFCDB
:1039B000214601F04BFC044640451FDD444620E013
:1039C0002048306020487060D6F89800012804D064
:1039D0001B48B0601948F06025E0D6F89C80D6F806
:1039E000A8404146204601F0F9FBB0604146204620
:1039F00001F0A2FBC6F89870F06014E0544500D9BD
:103A0000544620460EF05CFCD6F89C1001F0E6FB14
:103A1000B06020460EF054FCD6F89C1001F08CFBF0
:103A2000C6F88C70F060DFF81080F16D08F158086E
:103A300001BB0120002413E0940A00240000B442DA
:103A40000000B4C2000070420000F0417B142E3E22
:103A500000401C4600004842000080BF000020419A
:103A6000F06506EB04104146183008F081FD641C37
:103A7000042CF6DB434907AA0C460C98FFF749FED5
:103A800021460C9809F0CCF903A808F001FE01F0DA
:103A9000CFFD6FF0050101F017FC2946FFF71EFE70
:103AA00059460698FFF7E9FDD6E91E01884201DA7A
:103AB0002844B067706F90B9306E28443066B0F516
:103AC0007A7F0CDD2F4930223C39A1F11000376696
:103AD00001F0F3FA2B4841461C3808F049FD706F9D
:103AE0000FB0BDE8F08F70B588B0044604A808F0A8
:103AF00063FDD4E93001451A684608F0E9FC064642
:103B000004AB04F1A00269462846FFF793FE09F0D2
:103B1000BFFF08B0304670BD04224FF49671AFF27B
:103B2000390009F095BCAFF241000AF0FDB810B5BC
:103B3000FFF78AFD00280DD1124800216438C0F833
:103B40008C100121C0F88810AFF23300BDE810409E
:103B500009F05EBE10BD10B5AFF275000AF0E4F8D2
:103B6000AFF27D00BDE810400AF0DEB80549012043
:103B70006439C1F88C000020704702486438406FF7
:103B800070470000F80A00242DE9F043044699B07C
:103B90001D4691460E46806801F041FD014601F048
:103BA00023FB8046606801F03AFD014601F01CFBF2
:103BB0000746206801F033FD014601F015FB394648
:103BC00001F0BAFA414601F0B7FA0EF0F4FB0746ED
:103BD00020F000404FF08D4101F018FE7ED2306899
:103BE00001F01DFD6FF01D08414601F06DFB0490D2
:103BF000706801F014FD414601F066FB0590B06865
:103C000001F00DFD414601F05FFB0690F06801F008
:103C100006FD414601F058FB00260C9607902068EF
:103C200001F0FDFC394601F011FB0D90606801F0D8
:103C3000F6FC394601F00AFB0E90A06801F0EFFC9B
:103C4000394601F003FB0F9010AA0CA904A809F053
:103C50009BF914A904A809F0EFF86A4614A910A862
:103C600009F092F90199084601F0BEFA029904465A
:103C7000084601F0B9FA214601F05EFAFE49884291
:103C800001DAFE4C0BE0FE49884201DAFD4C06E009
:103C9000FD49884202DA4FF07A5400E0FB4C484676
:103CA00001F0BDFCFA4901F0D1FA214601F09CFA7D
:103CB000044608962146029801F096FA0990019868
:103CC000214680F0004001F08FFACDE90A066A46ED
:103CD00004A908A809F058F96A4600E025E004A9FB
:103CE000104609F079F8684609F0BAF91E210098E3
:103CF00001F0EAFA01F0C8FC28601E21019801F0E9
:103D0000E3FA01F0C1FC68601E21029801F0DCFAC0
:103D100001F0BAFCA8601E21039801F0D5FA01F069
:103D2000B3FCE86019B0BDE8F08396E80F0085E8C1
:103D30000F00F7E72DE9F05F05460C46806801F0BB
:103D40006EFC014601F050FA0746686801F067FC16
:103D5000014601F049FA0646286801F060FC014678
:103D600001F042FA314601F0E7F9394601F0E4F991
:103D70000EF021FB4FF07E59002706464FF0804899
:103D8000484505DCC4E90087A760E760BDE8F09F0F
:103D9000A86801F044FC314601F058FA8246014619
:103DA000484601F01BFA4FF40006B04200DA00204A
:103DB0004FF0FF3101F088FA0EF0FDFA83464946D4
:103DC000504601F0B9F9B04200DA00204FF0FF315F
:103DD00001F07AFA0EF0EFFA8246686801F01FFCF3
:103DE000014601F001FA0646286801F018FC014678
:103DF00001F0FAF9314601F09FF90EF0DCFA0646BF
:103E00004845BFDD1E21504601F05EFA01F03CFC42
:103E10002060686801F003FC314601F017FA59464A
:103E200001F0E2F91E2101F04FFA01F02DFC606073
:103E3000286801F0F4FB314601F008FA594601F018
:103E4000D3F9944901F0D0F901F01EFCC4E902074E
:103E50009CE72DE9F04105460C46C06801F0DFFB08
:103E6000014601F0C1F98046A86801F0D8FB01467F
:103E700001F0BAF90746686801F0D1FB014601F08C
:103E8000B3F90646286801F0CAFB014601F0ACF917
:103E9000314601F051F9394601F04EF9414601F041
:103EA0004BF9B0F5000F06DA4FF08040206000209B
:103EB0006060A0602DE00EF07EFA01464FF07E506B
:103EC00001F0C4F91E2101F0FFF90646286801F04F
:103ED000A6FB314601F088F901F0D6FB2060686846
:103EE00001F09DFB314601F07FF901F0CDFB6060F0
:103EF000A86801F094FB314601F076F901F0C4FBAB
:103F0000A060E86801F08BFB314601F06DF901F02B
:103F1000BBFBE060BDE8F08170B5044690F830006E
:103F200088B0400676D5A069002801DB014600E094
:103F300041424FF480320026574D91420BDAE1693D
:103F4000002900DA4942914205DA216A002900DAA3
:103F50004942914260DB002800DA40424FF4C80138
:103F600088420BDCE069002800DA4042884205DC28
:103F7000206A002800DA4042884201DD032000E088
:103F80000220A863696BA06A814219D06863A06AA5
:103F900001F045FB414901F059F91D2101F094F967
:103FA00001F0CBFB3E4A3F4B01F041FA082201F001
:103FB0001FFB00223C4B01F0ACFA01F09FFB286391
:103FC0000496296BA06908F0EBFE0590296BE06967
:103FD00008F0E6FE0690296B206A08F0E1FE0790E3
:103FE0006A4604A92C4808F03FFF00982A4A80013D
:103FF000009001986946800101900298800102902A
:10400000039880010390104608F0D2FE224908462A
:10401000FFF71FFF08B070BDAE63FBE72DE9F0436B
:104020000446D0F820018FB041067CD51A4DD4F853
:1040300010111E4B2A68891AD4F82C215A438A423F
:1040400001DA032100E00221A963810504F58870EB
:10405000804601D51049D4E0002104A808F0ECFA0C
:104060000D490C223C3104A801F059F808BBD4F8E2
:104070002801A96D88421BE017B75139A69BC43BA4
:104080000AD7233C8FC2753DCDCC4C3ECDCCCC3E27
:104090000014CD47000080CE4C0B0024002474494E
:1040A000112D4454FB2109400080664071981C008A
:1040B0007ED0208807AB80B204AA616A08F064F859
:1040C000099801F0ACFA014601F08EF8074608980D
:1040D00001F0A5FA014601F087F80646079801F0BD
:1040E0009EFA014601F080F8314601F025F8394684
:1040F00001F022F80EF05FF90646E84901F074F885
:10410000E74901F0A3F86FF00F0101F0DDF8074671
:10411000D4F8280101F083FA394601F065F8E14945
:1041200001F094F800E06EE04FF0FF3101F0CCF8C0
:1041300007460EF0D5F8814638460EF0FFF80746E0
:104140004FF08040864204DAA8640020E8642865C5
:1041500033E01E21484601F0B7F801F095FAA86453
:10416000079801F05CFA8146CF49384601F03CF8E7
:104170000746494601F038F8314601F067F801F08A
:1041800083FAE864089801F04AFA0146384601F0DB
:104190002BF8314601F05AF801F076FA28650998B3
:1041A00001F03DFA0146384601F01EF8314600E0C4
:1041B0000EE001F04BF801F067FA04AB686593E894
:1041C000070005F13C0383E80700D4F82801A8653F
:1041D0006A46B649404608F047FEB4480AAA143079
:1041E0006946044608F040FE2146404608F018FEA5
:1041F000AE486A460AA9483808F036FEAB49684618
:104200004839FFF726FE0FB08DE51FB50446A748D5
:104210006946483808F004FEA44A6946283A204610
:1042200008F022FEA1491DCC383981E81D001FBDD0
:104230002DE9F0479D4E0446483E90F8740006F183
:104240005C0A06F12008012500F05001103692B0FA
:1042500004F5887904F15C07402906D094F8200120
:1042600000F0500040280DD01EE031463846FFF7E0
:1042700061FDB4F82001C0050CD55146484608F050
:10428000CFFD07E05146484608F0CAFDB4F8740077
:10429000C00509D585486946483808F0C1FD424641
:1042A0006946304608F0E0FDB4F82001C00520461C
:1042B00002D5FFF7B3FE01E0FFF72EFE7B49324641
:1042C0004839404608F0D0FD94F87400400671D596
:1042D000208EB4F820110843C00578D50FAA3946BE
:1042E000304608F051FFD4E9172080FB0001C2FBE3
:1042F0000201626E6D4FC2FB0201483F4FF08042E7
:10430000801A71F1020014DB04A808F001FADDE95B
:10431000042080FB0001C2FB0201069AC2FB0201DD
:104320004FF08042801A71F1020002DB0420B86372
:104330000BE0B86B042808D041F28832022806D07E
:10434000032804D001283AD009E0002507E0E16EF7
:1043500091FBF2F5012D00DA0125032800D0AD0014
:10436000534800244543109807948002294608F0DA
:1043700017FD08900F9829464042800208F010FD72
:10438000CDE909040BAA314607A808F06DFD3246B5
:104390000BA9104608F00CFD31460846FFF759FD01
:1043A00042486946483808F03BFD42466946304677
:1043B00008F05AFD12B00020BDE8F08707E0E06E7B
:1043C00090FBF2F0012800DA01204500C7E73346F0
:1043D00019463846E26EFFF7D7FBE1E770B50446B1
:1043E000008EC105D4F8200107D4B4F87410C905B3
:1043F00003D4C10501D4002070BDC0F301200328FF
:1044000008D02046FFF714FF2848A16B383809F080
:1044100077FCF0E704F5887124482EC9383880E825
:104420002E00F1E7234809F07FBC204810B56C212D
:10443000483800F069FE1D484FF08041483801615E
:1044400001600162C163C165002010BD1D4810B547
:10445000082219A1006800F062FE08B1322010BDE8
:104460001322BDE81040C821124808F0F1BF10B572
:10447000FFF7DBFF002805D1AFF22F00BDE81040A9
:1044800009F0C6B910BD10B50A4809F04DFCAFF2ED
:104490004300BDE8104009F013BD0000DB0F4940A8
:1044A0000000344300247449000080CE940B0024A3
:1044B000A69BC400DD430008654D504C20352E31CD
:1044C000000000009000002410B5FE4BFE4AFF4C97
:1044D000002002EB8001401CC0B2CC620B620328BA
:1044E000F7D310BD70B5F84E002506EB8504D4F85F
:1044F000B410206A01F080F902D2D4F8B40020622E
:10450000D4F8B410E06A01F081F902D2D4F8B40012
:10451000E0626D1CEDB2032DE7D370BD3EB50B46D6
:10452000B0F8481009040091B0F84A10009A090444
:104530000191B0F84C1009040291E3494C6E121B32
:104540000092019A8C6E121B0192029AC96E511A46
:104550000291816EB0F844006A4680B207F014FE02
:104560003EBDF0B5D84F00242546D7F894208DB035
:104570002E46012A01D1C7F8946009A9FFF7CEFFA2
:1045800005A808F019F8059909986022A0EBA13058
:10459000099006990A98A0EBA1300A9007990B9808
:1045A000A0EBA130CA490B90081F00F086FD0DF169
:1045B000240CC7489CE80E00143080E80E006846C2
:1045C00008F0A6F8C24960226C31081F00F075FDA2
:1045D000BF489DE80E00803080E80E0000210922CF
:1045E000D7F82C04401CC7F82C0401EB410007EB62
:1045F0008000DDF800C0D0F84C33491C93FBF2F387
:104600001C44D0F85033092993FBF2F31D44D0F831
:10461000543393FBF2F31E44D0F8B83393FBF2F318
:1046200063440093D0F8BC33DDF804C093FBF2F38D
:1046300063440193D0F8C003029B90FBF2F018444E
:104640000290CDDB002C00DA6442002D00DA6D42CE
:10465000002E00DA76420098002800DA40420090EE
:104660000198002800DA404201900298002800DA00
:1046700040420290009900208C4200DA012001990A
:104680008D4200DA401C02998E4200DA401CD7F8B5
:104690002C14092900DB401C04280DD197F82404B0
:1046A00002280BD901468848D7F82824643009F03D
:1046B000DFF8012009F0D4F80DB0F0BD09F0BCF826
:1046C000FAE72DE9F047804D0027DFF8088285F8EA
:1046D0002474DFF80492DFF804A206463C46C5F8CD
:1046E000287405EB8400E96BD0F8CC0001F08EF85B
:1046F00018D8D5E914010022534600F092FE21F0AB
:10470000004142464B4601F02BF80BD295F82404A9
:10471000401C85F824040120D5F82814A04001434A
:10472000C5F82814641CE4B2032CDAD395F82404E9
:1047300080B3002406EBC400D0E90021104600F04D
:10474000DDFF05EB8401641CE4B24866032CF1D361
:10475000C5F82C74A868042802DA95F82404A86027
:1047600095F82404032815D15D49E868884211DCD6
:10477000D5E914010022534600F053FE21F0004118
:1047800042464B4600F0ECFF04D2A868032801D152
:104790000420A86053492869884215DA5249E8681C
:1047A000884211DCD5E914010022534600F039FE9D
:1047B00021F000414D4A4E4B00F0D2FF04D2A868D0
:1047C000042801D10520A860BDE8F0872DE9F0415B
:1047D0003D4C0746D4F8A404012803D00025284600
:1047E000BDE8F08143494FF07E52A1F1E800134645
:1047F0000646FBF7A5FE344A3046503202F5AC714E
:10480000FCF7AAF80500EAD06068401C6060D4E9B3
:10481000140100F073FFB96E08F0C2FA00F0FFFE59
:104820006FF00F0100F050FD00F087FFC4E91401A4
:10483000D4E96A0100F062FFA065D4E96C0100F0E0
:104840005DFFE065D4E96E0100F058FF2066D4E911
:1048500068010022284B00F09BFFC0D2274A314656
:1048600013460846FBF76CFEB9E72DE9F041044614
:104870000025D4E903010126022700F0C7FF10D26A
:104880006169E06800F0C2FF0BD22564D4E904013D
:1048900000F0BCFF02D8C4E91167A1E7C4E91176B2
:1048A0009EE7D4E9031000F0B1FF2FD2D4E9040150
:1048B00000F0ACFF2AD226646169E06800F0A6FF30
:1048C00021D81DE000401CC6B80B002400401C4647
:1048D000080F00249A9999999999B93F0000F03FDF
:1048E000AE47E13D00007A43BC74933C9CC420B0C9
:1048F0007268913F800D00240070A740CDCCCC3E63
:10490000C4E911576CE7C4E9117569E72764D4E974
:10491000030100F07BFF02D8C4E9115660E7C4E947
:1049200011655DE700221146C26440F8212000EBCA
:104930008103491C5A620329F7DB0121C0E91D12DA
:10494000704730B504461420A0650A202066002573
:1049500084F870502046FFF7E5FF656530BD2DE90E
:10496000F04387B06946FFF7D9FD00252E462C4657
:10497000E8466FF00F0903AF58F8240000F04FFE2F
:10498000494600F0A1FC47F82400014600F02CFC49
:1049900000F0D3FE2A46334600F0A2FC641C054614
:1049A0000E46032CE8DB0DF0D1FCDFF8B48505469C
:1049B0000E460024B94659F8240000F0BEFE2A46EF
:1049C000334600F0A6FD00F0FBFE08EB8407D7F8A5
:1049D000301400F0B1FB641CC7F83004032CEADB90
:1049E000D8F88414491CC8F884140121C8F8AC1400
:1049F00007B0BDE8F0832DE9F04186B0054604AA72
:104A000003A9684608F060F8002637463446E846B1
:104A100058F82400014600F0E7FB00F08EFE324615
:104A20003B4600F05DFC641C06460F46032CEFDBA2
:104A30000DF08CFC06460F46002458F8240000F0C8
:104A40007CFE32463B4600F064FD00F0B9FE55F8AE
:104A5000241000F071FB45F82400641C032CECDBEF
:104A6000686D401C68650120E86706B0B8E62DE96E
:104A7000F05F0025DFF8ECA404464FF07E5BA8460B
:104A8000206D00F0CCFD014654F8250000F0DEFB5F
:104A900004EB85060746B169514501D381F0004119
:104AA000574501D2384601E087F0004000F096FB00
:104AB000B7613063D4F83C905946484600F08EFB0D
:104AC000716A00F091FB394600F036FB494600F070
:104AD000BDFB7062504501D380F00040F06044F8A7
:104AE00025806D1C032DCBDB2046FFF7BEFEE06C5E
:104AF000B0F57A7F01DA401CE06494F87010042667
:104B000003270125206C4FF0050A06290AD2DFE8A9
:104B100001F0030B142A4E326567C4F84C80A56778
:104B200084F87050BDE8F09FE06F0128FAD10220B0
:104B300084F87000C4F87880F4E704EB8009616EB3
:104B4000D9F80C0000F062FE03D884F8706040468B
:104B50002AE0A16ED9F80C0000F04EFE2ED81BE022
:104B60006567A567DEE704EB8000616EC06800F052
:104B70004DFED7D8E9E704EB8009A16ED9F80C0007
:104B800000F03AFE08D9F849D9F83000884206D931
:104B9000216EE06C8842C5DB84F87070E0E784F831
:104BA00070604046C4F84C806067A067BAE704EBC9
:104BB0008000E16EC06800F01FFEB3D884F870A0DA
:104BC000C4F84C80CCE710B5044600F028FDE74956
:104BD00000F00AFBE64900F039FB4FF0FF3100F02E
:104BE00073FB00F0AAFD0DF073FB1E2200F000FD28
:104BF00000F084FDDA49C1E9204010BD2DE9F04FF5
:104C000091B000250446009501950295C06E44F6CA
:104C10002061D34E884206DBD6F88010884210D03F
:104C2000FFF7D1FF0DE0D6F848231044C6F848033B
:104C300088427DDBE16E814201D0FFF7C4FFC6F8F8
:104C40004853206BC6F8B0042046FFF788FE06F5EF
:104C5000906003C8814204DBC648FFF708FFC6F82E
:104C60008454D6F8A804012802D12046FFF779FC25
:104C7000D6F8A40401285BD1684607F091FD02999B
:104C8000084600F0B1FA01998046084600F0ACFAF7
:104C900000990746084600F0A7FA394600F04CFA9A
:104CA000414600F049FA0DF086FB0E21F06000F05D
:104CB0000BFB00F0E9FCADF81C00AF49A946ADF8CC
:104CC0001E50ADF8205007A80991FDF7E1FB03A89D
:104CD00007F0BAFD316F039808F062F80546716F6E
:104CE000049808F05DF80544B16F059808F058F88D
:104CF0000544F16F069808F053F805EB000803AF80
:104D0000002597E80F0006F170070DF1340A87E8D7
:104D10000F000DF1280B04EB4507A16E37F8480F83
:104D2000000408F03DF84AF8250000F078FC00E0A7
:104D300098E06FF00F0100F0C7FA06EB85014861BB
:104D4000388801044BF825106D1CEDB2032DE2D319
:104D500089480AA9E8380746FBF785FCD6F82813E6
:104D6000306881427EDBD4F8E40000F058FC6FF03C
:104D70000F0100F0A9FAD6F8D810054611F0FF4F40
:104D800006D0284600F02AFA20F00040C6F8DC00E1
:104D9000C6F8D850B068062811D2DFE800F0030347
:104DA00003030A1A7548B0634FF07E50F063C820C1
:104DB00004E07348B0637348F06364203064208E6D
:104DC000C00509980BD4FDF777FA00F036FC684966
:104DD0000AE06D48B0636D48F0633220EEE7FDF7FE
:104DE000CCF900F02AFC6A4900F030FA30619821D1
:104DF000099800F089F9D6F8841041453BDA30690A
:104E0000B0F5000F37DBB16B00F0F6FC33D2316C3C
:104E10007068884205DA2046FFF7D8FC002852D097
:104E20000BE05C49D6F8B000884206DB2046FFF76D
:104E3000CDFC002847D0C6F80490002006EB800186
:104E4000401C4A69C0B2C1F8B4200328F6D3FFF76A
:104E500049FB002406EB8405E96A286A00F0BEF9E4
:104E6000641C00E02EE0E4B2C5F8CC00032CF1D3C2
:104E70004948FFF726FC002406EB84056969D5F84C
:104E8000980000F0ABF9641C20F00040E4B2C5F8D3
:104E9000A400032CF0D3F6E9290100F04DF9B16824
:104EA00000F04AF9F0600020A43E06EB8001401CAF
:104EB0004A69C0B2C1F898200328F6D3E8213846E1
:104EC00000F022F9002011B0BDE8F08F10B54FF4CA
:104ED0009761234800F018F9214C0A202060400710
:104EE0002067FFF7F1FA2348FFF72BFD2068C4F88D
:104EF00080044FF08440C4F86C041E20C4F88C0475
:104F00002648C4F898042648C4F894042548C4F8F0
:104F10009C041920FDF769FD002010BD012240F21C
:104F20005231AFF2273008F093BAAFF22F3008F0C9
:104F3000FBBE10B5FFF7CAFF002805D1AFF2230072
:104F4000BDE8104008F064BC10BD10B5AFF253309E
:104F500008F0EAFEAFF23B00BDE8104008F0B0BF39
:104F6000B80B002400008080CDCC4CBD368D27408E
:104F700000247449E80F0024680E00240080BB441C
:104F8000000096439A99993F000070423333B33F33
:104F90000050C347CDCC4C3D600D0024CDCCCC3E61
:104FA000CDCC4C3F3333333F01488068704700001D
:104FB000B80B00242DE9F05F0546002092469B4681
:104FC00088460646814640241BE02846414647461F
:104FD000224600F03BFC53465A46C01A914110D37A
:104FE00011461846224600F047F82D1A67EB0108D3
:104FF0004F4622460120002100F03EF817EB000941
:105000004E41201EA4F10104DFDC484631462A4609
:105010004346BDE8F09F2DE9F0410024061B2546DC
:1050200071F1000605DA01240027D0EB070067EBD9
:105030000101161E73F1000605DA0027D2EB070204
:10504000012567EB0303FFF7B5FF86460E461746BB
:105050009C46AC4204D00025D0EB050E65EB010662
:1050600024B10020D2EB000760EB030C7046314600
:105070003A466346BDE8F081202A04DB203A00FA74
:1050800002F1002070479140C2F1200320FA03F39F
:10509000194390407047202A06DBCB17203A41FA8B
:1050A00002F043EAE07306E041FA02F3D040C2F1B5
:1050B0002002914008431946704710B5431A9342A5
:1050C00009D28318881803E010F8011D03F8011DA8
:1050D000521EF9D210BD40EA01039B0703D009E03C
:1050E00008C9121F08C0042AFAD203E011F8013BD4
:1050F00000F8013B521EF9D210BDD2B201E000F817
:10510000012B491EFBD270470022F6E710B513466B
:105110000A4604461946FFF7F0FF204610BD30B599
:1051200004460020034600E05B1C934203D2E05C8F
:10513000CD5C401BF8D030BDF0B480EA0102D40F42
:105140004200B2EB410F02D20246084611464A0025
:1051500042D0C30DDDB2C1F3C752AD1A202D35DAEE
:10516000C1F3160141F4000204B15242C5F1200618
:1051700002FA06F12A411044B3EBD05F23D0C4B148
:10518000012DA0EBC35009DCF0BC4FF0004202EA55
:10519000C352DBB200F5000000F071BB400000F12B
:1051A000807000EBC350A0F1807040EAD1704900DC
:1051B00009E0490841EAC071A0EBC35000F50000C6
:1051C000400800EBC350F0BC00F050BB614201222C
:1051D00002EB4101001BF6E7F0BC704781F0004193
:1051E000AAE780F00040A7E780EA010210B502F0CC
:1051F0000043400022D04A001FD0010E01EB126193
:10520000C0F35600C2F3560240F4000042F400021C
:10521000A0FB022000047F39140400D0401C50EA97
:10522000124001D44000491EC2B20C0604EBD0105B
:10523000401C4008802A02D003E0002010BD20F06E
:105240000100002900DA0020184310BD30B480EAC4
:10525000010202F0004530F0004221F0004013D07E
:1052600090B1C30DD40DC2F31601C0F31600E41AB9
:1052700041F4000140F400027D34914201D3641CEA
:1052800000E04900002C02DA30BC002070474FF4E7
:1052900000000023914201D3891A034340084FEADA
:1052A0004101F7D151B1914202D14FF0004105E0E7
:1052B00002D24FF0010101E06FF0010103EBC45095
:1052C000284430BC00F0D2BA420005D0C0F3C75227
:1052D0005242914201DC0020704700EBC150704700
:1052E0002DE9FE4F804681EA0300C00F0C46009076
:1052F00021F0004123F00045B8EB0200A94105D29E
:105300004046214690461C460B46024623F000408C
:10531000104347D0270DC7F30A00C3F30A51029088
:10532000401A019040286BDAC3F3130040F4801B4D
:105330000098924620B10023D2EB030A63EB0B0BDB
:1053400001985946C0F140025046FFF795FE0646C7
:105350000D4650465946019AFFF79DFE10EB080096
:105360006141002487EA115284EAE7731A4340D06E
:10537000009A62B3019A012A4FEA075215DC001B1A
:1053800061EB02014FF0004202EA0752CDE9004210
:10539000001C41F5801132462B4600F0ADFA03B0F7
:1053A000BDE8F08F40462146F9E7001B61EB0201A2
:1053B000001C41F5801300185B412018A2F500176E
:1053C00047EB030140EAD570B6196D4111E06D0855
:1053D0004FEA360645EAC0754FEA0752001B61EBFB
:1053E0000201001C41F5801149084FEA3000001904
:1053F000514132462B4603B0BDE8F04F00F06DBA84
:105400000098012240000023D0EB020263EBE0731E
:10541000009821464FEAE074B8EB000061EB04010C
:10542000E9E783F000435BE781F0004158E72DE9AD
:10543000FE4F81EA030404F0004421F0004100948F
:105440004FF0000B23F0004350EA01045ED052EA13
:1054500003045BD0C3F30A54C1F30A552C44A4F2ED
:10546000F3340194A0FB0254C1F3130141F4801101
:10547000C3F3130343F4801301FB024400FB034E08
:10548000840A970A44EA815447EA8357A4FB0768D1
:1054900002958D0A05FB07854FEA932C04FB0C54FB
:1054A0002705029D4FEA065847EA1637B5EB08056F
:1054B0006EEB070C870E920E47EA811742EA8312C1
:1054C000A7FB0201B6EB0B0164EB00042B0D43EAD2
:1054D0000C335E1844EB1C50DA465146E7FB0201E0
:1054E000C5F313044FEA0B3343EA14534FEA043273
:1054F000019C43EA0603A4F10C040294009CCDE94C
:1055000000B400F0F9F903B0BDE8F08F00200146C7
:10551000F9E72DE9F04D81EA030404F0004B21F096
:10552000004514464FF0000A23F0004150EA0502FE
:1055300020D054EA01021DD0C5F30A570246C5F334
:105540001303C1F31300C1F30A5640F4801543F46A
:105550008013A7EB0608101BD64608F2FD3873EB44
:10556000050002D308F1010801E092185B41B8F18F
:10557000000F03DA00200146BDE8F08D00204FF453
:105580008011064684460EE0171B73EB050705D312
:10559000121B63EB050306434CEA010C49084FEA72
:1055A000300092185B4150EA0107EDD152EA030046
:1055B00012D082EA040083EA0501084305D0101BDB
:1055C000AB4106D20122002306E000224FF0004347
:1055D00002E06FF0010253101AEB06004CEB085189
:1055E00010EB0A0041EB0B01BDE8F04D00F075B97E
:1055F00070B521F0004303430CD0C1F30A550024D9
:10560000D5EB040564EB0403D617AD1AB34102DBF6
:105610000020014670BD201841EB025170BDC10F42
:1056200080EAE0700844CA079623002100F027B9F9
:1056300096230022114600F022B9F0B4CA17CB0F0E
:1056400050405140C61841F100054FEAC37231463F
:1056500028004FF0960303D0B623F0BC00F00FB93A
:1056600030460021F9E70EB5C10F80EAE07008442A
:10567000CA07002140F233438DE80E000A460B466C
:1056800000F03AF903B000BD00F0004220F0004005
:10569000C10DC0F3160040F400007F2901DA00209C
:1056A0007047962903DCC1F19601C84001E09639A4
:1056B0008840002AF4D04042704710B500F0004402
:1056C00020F00040C20DC0F3160040F400007F2A15
:1056D00002DA0020014610BD0021962A03DCC2F147
:1056E0009602D04002E0963AFFF7C6FC002CF2D0BA
:1056F0000023D0EB030063EB010110BD70B5C1F3D3
:105700000A5201F000450024C1F3130140F2FF33B7
:1057100041F480119A4201DA002070BD40F2334317
:105720009A42A2F2334203DC524200F08FF800E0CA
:1057300090402C43F1D0404270BD00F0004230F068
:1057400000400AD0C10D01F56071C0F3160042EAB5
:105750000151C208400711437047002001467047BD
:1057600030B5041E71F1000404DB4FF000444042E8
:1057700064EB0101141E73F1000405DB1C464FF0BD
:105780000043524263EB04038B4208BF824230BDA8
:1057900030B5041E71F1000404DB4FF000444042B8
:1057A00064EB0101141E73F1000405DB1C464FF08D
:1057B0000043524263EB0403994208BF904230BD5C
:1057C00001F0004330B421F0004150EA010206D05C
:1057D0000A0DA2F56072C1F31301002A02DC30BC8D
:1057E00000207047440F44EAC104C100E01830BCF7
:1057F00000EBC25000F03AB8002801DBC0F10040D5
:10580000002901DBC1F1004181427047002801DB22
:10581000C0F10040002901DBC1F10041884270471E
:1058200030B50B46014600202022012409E021FA70
:1058300002F59D4205D303FA02F5491B04FA02F56D
:105840002844151EA2F10102F1DC30BD202A04DB40
:10585000203A21FA02F00021704721FA02F3D040E9
:10586000C2F1200291400843194670470029A8BFA1
:105870007047401C490008BF20F00100704710B479
:10588000B0FA80FC00FA0CF050EA010404BF10BC2E
:10589000704749B1CCF1200421FA04F411FA0CF15B
:1058A00018BF012121430843A3EB0C01CB1D4FEA94
:1058B00000614FEA102042BF002010BC704700EB8F
:1058C000C35010440029A4BF10BC7047401C4900BD
:1058D00008BF20F0010010BC704710B5141E73F112
:1058E000000408DA401C41F1000192185B411A43A0
:1058F00001D120F0010010BD2DE9F04D92469B46EC
:1059000011B1B1FA81F202E0B0FA80F22032904691
:10591000FFF7B2FB04460F4640EA0A0041EA0B01DA
:1059200053465A46084313D0114653EA010019D092
:10593000C8F140025046FFF789FF05460E46504623
:1059400059464246FFF798FB084305D0012004E082
:1059500020463946BDE8F08D0020054346EAE07652
:105960002C4337430A986305E40AA0EB08000022A1
:10597000FD0A44EA47540A3002D500200146E9E70F
:10598000010510196941DDE9084500196941BDE8C3
:10599000F04DA2E7C1F30A52C1F3130140F2FF3305
:1059A00041F480119A4202DA00200146704740F229
:1059B00033439A42A2F2334202DC5242FFF746BF1F
:1059C000FFF75ABB064C074D06E0E06840F00103C4
:1059D00094E8070098471034AC42F6D3FAF760FC1D
:1059E000EC3F01080C400108FEE700000000000049
:1059F0007047000000000000EFF3108072B600BF97
:105A0000FEE7000000000000B0B5044600F008F911
:105A100040F218010546C2F20041621C097818BF25
:105A20000C4400BF00F0FCF8401BA042FAD3B0BD0C
:105A30002DE9F04F82B00D68002D00F0CB8000F111
:105A4000264242F2004302F1FF72C5F602030A2623
:105A500098424FEAB22444F2F44E08BF0926092CBA
:105A600040F2040C38BF4FEAB226C5F6020EC5F666
:105A7000000C009600220027002609E001360D6880
:105A800035FA06F307F1040702F1020200F0A280E2
:105A9000012303FA06F415EA0408EFD0D1F804A0B4
:105AA00003230AF0030B9340ABF101056FEA0309EE
:105AB000012D0FD88368CD6803EA090395402B4375
:105AC0008360CAF300154368A34305FA06F4234331
:105AD000436005E0BBF1030F02D14FF0030B21E05F
