:020000040800F2
:10000000500B0024E5030008796A000831610008FC
:10001000716A000859160008B18D00080000000040
:10002000000000000000000000000000D97200087D
:10003000611600080000000081700008E1720008ED
:10004000FF030008FF030008FF030008FF03000888
:10005000FF030008FF030008FF030008FF03000878
:10006000FF030008FF030008FF030008FF03000868
:10007000FF030008FF030008FF030008FF03000858
:10008000FF030008FF030008FF030008FF03000848
:10009000FF030008FF030008FF030008FF03000838
:1000A000FF030008FF030008FF030008FF03000828
:1000B000FF030008F974000809750008FF03000831
:1000C000FF030008FF030008FF030008FF03000808
:1000D000FF030008818D0008918D0008FF030008D0
:1000E000FF030008FF03000800000000FF030008F2
:1000F000FF030008FF030008FF030008FF030008D8
:10010000FF030008FF03000819750008FF0300083B
:10011000FF030008FF030008FF030008FF030008B7
:10012000FF030008FF030008FF030008FF030008A7
:10013000FF030008FF030008FF030008FF03000897
:1001400000000000000000000000000000000000AF
:10015000FF030008FF030008FF030008A18D00084B
:10016000FF030008FF030008FF030008FF03000867
:10017000FF030008FF030008FF030008FF03000857
:10018000FF030008FF030008FF030008FF03000847
:10019000FF030008FF030008FF030008FF03000837
:1001A000FF030008FF030008FF030008FF03000827
:1001B000FF030008FF030008FF030008FF03000817
:1001C000FF030008FF030008FF030008FF03000807
:1001D000FF030008FF030008FF030008FF030008F7
:1001E000FF030008FF030008FF030008FF030008E7
:1001F000FF030008FF030008FF030008FF030008D7
:10020000FF030008FF030008FF030008FF030008C6
:10021000FF030008FF030008FF030008FF030008B6
:10022000FF030008FF030008FF03000800000000B0
:10023000FF030008FF03000800000000FF030008A0
:10024000FF030008FF030008FF030008FF03000886
:10025000FF030008FF030008FF030008FF03000876
:10026000FF030008FF030008FF030008FF03000866
:10027000FF030008FF030008FF0300080000000060
:10028000FF030008FF030008FF0300080000000050
:1002900000000000FF03000800F002F800F092F8F0
:1002A0000AA090E8000C82448344AAF10107DA45D1
:1002B00001D100F087F8AFF2090EBAE80F0013F091
:1002C000010F18BFFB1A43F001031847D8AD000017
:1002D000F8AD0000103A24BF78C878C1FAD85207A8
:1002E00024BF30C830C144BF04680C6070470000B0
:1002F0000023002400250026103A28BF78C1FBD82F
:10030000520728BF30C148BF0B6070476E2900F00C
:100310004383702900F0B38166290AF01A826529A7
:100320000AF0178267290AF0148261290AF0138201
:1003300003681B0A28BF41F08001692900F024816D
:10034000642900F02181752900F01E816F2900F0D9
:100350001384782900F07F81E92900F0AD83E42936
:1003600000F0AA83F52900F0A783EF2900F010849C
:10037000F82900F07E810368DB0928BF41F0800185
:10038000632900F0EB87732900F0F087E32900F080
:10039000FB87F32901F00080002070471FB50AF0A9
:1003A000CBF901F053F80400002000210AF0AEF967
:1003B000401C6060002000210AF092F9E0601FBD3F
:1003C00010B510BD01F014F81146FFF7E7FF08F073
:1003D00063FF01F0F1F803B4FFF7F2FF03BC01F093
:1003E00035F900000948804709480047FEE7FEE765
:1003F000FEE7FEE7FEE7FEE7FEE7FEE7FEE7FEE7D5
:1004000004480549054A064B704700002974000856
:100410009902000850050024500B002450070024C6
:100420005007002453EA020C00F069802DE9F04BDC
:100430004FF00006002B1FBFB3FA83F503FA05F453
:1004400024FA05F65E4012BF1643B2FA82F502FAAC
:1004500005F4C5F120051EBF22FA05FC44EA0C0490
:10046000203556EA044C4FEA144418BF641C4FF080
:1004700000084FF00009904271EB030C39D30029BA
:1004800019BFB1FA81F701FA07F6B0FA80F700FA5E
:1004900007F6C7F120071EBF20FA07FC46EA0C0644
:1004A0002037B6FBF4FCA7EB0507103F07F01F0B46
:1004B000CBF120062CFA06F60CFA0BFB44BFB34630
:1004C0000026202FA4BF5E464FF0000B5BEA060C0F
:1004D00008BF4FF0010B19EB0B0948EB0608ABFB0B
:1004E000027C06FB02CC0BFB03CCC01B71EB0C01A6
:1004F000C1E70B46024641464846BDE8F08B13B5BE
:10050000084318BF4FF0FF300146AFF30080BDE84D
:100510001C4070471CB50C46064B7B446946009056
:10052000204600F052FA04460020694600F060FAC6
:1005300020461CBDD304000070B5044685690068E0
:10054000C10601D5302600E02026C00707D070BDC7
:10055000D4E9012130469047206A401C20626D1E7C
:10056000F6D570BD70B5044685690078C00707D11F
:1005700070BDD4E9012120209047206A401C2062F0
:100580006D1EF6D570BD00002DE9F0410646002431
:1005900010687529314616A510D000F069F90028B9
:1005A00002DA404213A507E031688A0701D512A597
:1005B00002E0490704D511A5012401E000F061F92A
:1005C00000210A2206F1240709E0B0FBF2FCB0FB8F
:1005D000F2F302FB1C00303078541846491C002806
:1005E000F3D123462A463046BDE8F04100F07BB9FE
:1005F000000000002D0000002B0000002000000083
:10060000F0B40D460188090502D5214C7C4402E076
:100610001F4C7C440E34002100F1240608E002F057
:100620000F071209E75D42EA03721B097754491C60
:1006300052EA0307F3D102780023120704D5702D84
:1006400006D009B1022311342246F0BC00F04BB9A8
:1006500001231034F8E770B504460D4621461068B2
:1006600000F00FF9024629462046BDE870400023FD
:10067000C6E7D21D22F00703D3E90023C0E70368D1
:10068000126843F0200303600823C3610023B7E727
:100690004AA100002DE9F05F894604464FF0000AA8
:1006A000DFF874B1FB44C0F820A02046E168884719
:1006B000002874D0252806D0D4E901219047206A6B
:1006C000401C2062F1E700265F462046E16888472B
:1006D0002028054607DB312D05D2781910F8200CAB
:1006E00008B10643F1E7B00701D526F00406C4F8C7
:1006F0001CA00027C4F818A02A2D09D0284609F00C
:10070000E7FF38B304EB8708303DC8F8185019E00C
:1007100059F8041B204604EB87029161E168884781
:10072000012F054618D1E069002820DA26F02006BE
:100730001DE0D8F8180000EB800005EB40003038D1
:10074000C8F818002046E1688847054609F0C0FF50
:100750000028EED1012F0AD02E2D08D12046E168C5
:1007600088477F1C0546022F46F02006C4DBA0699F
:10077000002803DA404246F00106A061F00701D0EC
:1007800026F010066C2D0BD0682D09D04C2D39D0D9
:100790006A2D35D0742D35D07A2D33D016E038E05F
:1007A000E1682F4620468847B842054609D16C2F9C
:1007B00026D04FF48060E16806432046884705460E
:1007C00004E06C2F1AD04FF4807006430DB3A5F1EE
:1007D0004100192802D8203546F400664A462946C9
:1007E000204626604E46FFF791FD80B101280BD0D0
:1007F000F61D26F0070000F1080956E74020E4E75F
:100800008020D8E70020D6E706F104094DE7284606
:1008100052E7206ABDE8F09FDAA000004FF0000226
:1008200000B5134694469646203922BFA0E80C50E6
:10083000A0E80C50B1F12001BFF4F7AF090728BFC1
:10084000A0E80C5048BF0CC05DF804EB890028BF3D
:1008500040F8042B08BF704748BF20F8022B11F066
:10086000804F18BF00F8012B7047704770477047E2
:1008700009684A0501D540B27047C905FCD500B2E8
:10088000704709684A0501D5C0B27047C905FCD553
:1008900080B2704770B50C460546012A05D028780D
:1008A000800600D5EA69002302E0012305E05B1C15
:1008B000934202D2E05C0028F9D1A869E618C01A78
:1008C000A861286A184428622846FFF735FE04E02C
:1008D000D5E9012114F8010B9047B442F8D328461A
:1008E000FFF740FE70BD2DE9F0470D469946924650
:1008F000044600F124080168880604D5E06921F067
:100900001001216000E00120A84201DD471B00E04A
:100910000027A1697A1902EB0900081AA061207862
:10092000C00602D42046FFF707FE002608E0D4E9FF
:1009300001211AF806009047206A401C761C2062AC
:100940004E45F4DB2078C0060AD52046FFF7F4FDBB
:1009500006E0D4E9012130209047206A401C206243
:10096000381EA7F10107F4DC07E0D4E9012118F8EB
:1009700005009047206A401C2062281EA5F1010551
:10098000F3DC2046FFF7EEFD2078000602D50220BA
:10099000BDE8F0870120FBE711680268006A530593
:1009A00001D508700AE0D30501D5088006E01306DA
:1009B00003D5C217C1E9000200E0086001207047BA
:1009C00001694A1C02610878704700B58FB0CDE913
:1009D00001310021059105497944CDE90310114603
:1009E0006846FFF757FE0FB000BD0000E5FFFFFFB0
:1009F0000A6802F8010B0A60704700002DE9FF5FEA
:100A000015468A460446DFF8AC80F8440027D8E94A
:100A100000103E46CDE9001010E03AF816106A4684
:100A200002A800F0BDFC411C07D02178890603D53F
:100A3000E269391891420DD80744761C2078800667
:100A400002D5E069B84205DDAE42E6DB3AF81600B1
:100A50000028E2D1A069C01BA0612046FFF76CFD11
:100A6000D8E90010CDE90010002017E03AF818107E
:100A70006A4602A800F094FCB0F1FF3F81460BD01B
:100A800000250DF1080B05E0D4E901211BF8050054
:100A900090476D1C4D45F7D308F10100B0428046E8
:100AA000E4DB206A384420622046FFF75BFDBDE8A6
:100AB000FF9F0000869D00002DE9F0418046D21D79
:100AC00022F007020025D2E90002F52915A614D06C
:100AD000011E72F1000106DA0023D0EB030063EB84
:100AE000020211A608E0D8F800108B0701D50FA666
:100AF00002E0490701D50EA601251146002408F1A0
:100B0000240704E000F04EF830323A55641C50EAF5
:100B10000102F7D12B46324621464046BDE8F0415E
:100B2000FFF7E1BE000000002D0000002B000000D8
:100B30002000000030B4002100F1240408E002F09D
:100B40000705D208303542EA4372DB086554491C78
:100B500052EA0305F3D10468002310A2250708D543
:100B600004F020040C4304D0C46901230CA2641EC9
:100B7000C46130BCFFF7B7BE10B50446214610680B
:100B8000FFF77FFE02462046BDE810400023D1E774
:100B9000D21D22F00701D1E90023CBE700000000BD
:100BA0003000000030B5B0F10A0271F100034FEAE5
:100BB000900E4EEA817EB0EB0E0061EB91014FEAA0
:100BC000101E4EEA017E10EB0E0041EB11114FEAB0
:100BD000102E4EEA016E10EB0E0041EB11214FEA90
:100BE000104E4EEA014E10EB0E0041EB1141401841
:100BF00041F100014FEAD00040EA41704FEAD101D3
:100C00004FEA810444EA907410EB800544EB010440
:100C10006D1944EB0404521BA3414FF0000348BF7D
:100C20000A3200D530BD401C41F1000130BD2DE934
:100C3000FF4F0C461E464FF0FF378BB0D2E9000144
:100C4000DDF860800A908A46C1F30A5505B93D4631
:100C5000002108464FF00000BAF1000F00F44000F8
:100C600005DA00EB80004FF4400101EA50004FEA42
:100C70009059B9F1010F00DDB9460A9850EA4A00CF
:100C80000ED044F61050A5F2FF3545432F14B8F1AD
:100C9000000F1ED07542291E1EDDC9F100021CE0A6
:100CA000B8F1010F4FF0000001D0302103E0F24312
:100CB00005E02154401CB042FBDB304600220021FD
:100CC00021540B99C1F80880C1E900200FB0BDE89C
:100CD000F08FBD1B6D1CDEE74A4600DA694206A8AC
:100CE00000F0F8FB06AB93E8070003AB83E80700CE
:100CF00050460A9909F00CF98DE80700A0F500505C
:100D00001F3800900398002D0ADD42F21F014A4669
:100D10000844002303A90390684609F075FB09E025
:100D2000A0F500504A461F38002303A903906846E7
:100D300009F07FFB8DE807000004000C03D04FF0A2
:100D4000FF30410800E01046B8F1000F03D0002248
:100D5000009215461EE0751E05D4FFF723FF3032C2
:100D600062556D1EF9D5B3460122084302D0002218
:100D70007F1C04E02078302801D100227F1E002A49
:100D8000099784D01DE0112D07DAFFF70BFF3032F1
:100D900062556D1C50EA0102F5D1084302D000985B
:100DA000C8B10EE00021681E05E0235C625C63545C
:100DB0002254401E491C8142F7DBAB46A81B401E53
:100DC0000990002004F80B000B98099AC0F80880DD
:100DD000C0E9002B7AE711264FF0000857E72DE90C
:100DE000F04F88460446D21D22F0070191B0D1E9A8
:100DF0000001CDE90A0109F053FC02460B98C00F2F
:100E000001D02D2007E02068810701D52B2002E0CA
:100E1000202101EAC000032A099001D0072A05DB3E
:100E200003464146204600F015FB0BE12078800682
:100E300001D5E06900E00620B8F1650F814606D0D3
:100E4000B8F1660F18D0B8F1670F70D131E000200B
:100E5000B9F1110F009001DB112301E009F1010349
:100E60000AAA01A90CA8FFF7E2FEDDE90C70002632
:100E700009F10105834647E001204B4600904FF001
:100E800000470AAA01A90CA8FFF7D1FEDDE90DB0C1
:100E90000C995D46002610B909F101000D18B9EB57
:100EA000050003D4C0F1FF3609F10105A5EB0900E7
:100EB0002BE0B9F1010F01DA4FF001090020B9F17F
:100EC000110F0090484601DD112300E003460AAAF5
:100ED00001A90CA8FFF7ABFEDDE90C704D4600261A
:100EE0008346207800070AD4AB4500DA5D4601A8A6
:100EF000012D04DD411911F8011C302907D04F459F
:100F000002DA17F1040F04DA012082460FE06D1EA9
:100F1000EEE7002F02DCED1B3E4403E0781CA84204
:100F200000DD7D1CB81B00F1010A4FF0004720785E
:100F3000000703D4AA4501DB4FF0FF3A0021B7F1C7
:100F4000004F0DF143088DF8431024D002202B23CD
:100F5000002F01DA7F422D230A21021EA0F1010099
:100F600000DC5FB197FBF1FC97FBF1F201FB1C7C0D
:100F700017460CF1300C08F801CDEEE7A8F101009E
:100F800003702188090501D5452100E06521A0F104
:100F9000010800F8011C09980FA9A1EB0807FF1D23
:100FA00000B10120411901EBEA70A1693844081A27
:100FB000401EA0612078C00602D42046FFF7BCFA8C
:100FC000099828B1D4E901219047206A401C206289
:100FD0002078C00622D52046FFF7AEFA1EE0002E8C
:100FE00004DBB34502DD01A8805D00E03020D4E9D8
:100FF00001219047206A401C2062761CAAF1010062
:101000005FEA000A0AD100F021FAC0680168405C7A
:10101000D4E901219047206A401C2062281EA5F1D6
:101020000105DCDC07E0D4E9012118F8010B904749
:10103000206A401C2062381EA7F10107F3DC20461D
:10104000FFF790FA032011B041E600002DE9F04FC0
:1010500004460D46D21D22F0070089B0D0E9009762
:101060004846394609F01CFB0246F80F01D02D23F3
:1010700007E02068810701D52B2302E0202101EA47
:10108000C0038DF820300BB1012000E00020032ABE
:10109000824601D0072A04DB2946204600F0DAF90F
:1010A0003FE12078800601D40D2500E0E569C7F313
:1010B0000A560D2D49DA00214FEA175B08464FF01A
:1010C0000000002F00F4400007DA00EB80004FF42E
:1010D000400100EBD07001EA60008115012901DDBB
:1010E0004FF0FF3100224FEA850CBCF1180F06D3F8
:1010F0001346ACF118004FF08052C24003E04FF4A9
:10110000801323FA0CF30CF10C0CBCF1200F04D368
:10111000ACF1200C09FA0CF001E007FA0CF0002900
:101120004FF0004801DD18B90FE00ED140450CD357
:1011300019EB02095F4121B9404502D19F4329EAD9
:101140000209BBEB175F00D0761C2088000502D592
:101150007B48784402E07A487844193808AA30235A
:1011600002F80A30037C0AF10101002E0AF1020A9A
:1011700053546A4602DC4FF0300101E04FF0310178
:101180004FF001088DF8001002D0A6F2FF3603E000
:1011900059EA470100D06B4E002D02DC2178090787
:1011A00004D54FF002082E218DF80110C44600210D
:1011B0000BE0C7F303433F01C35C491C6D1E02F8FB
:1011C0000830052908F1010801DA002DF1DC0021C1
:1011D0000CE000EB1973491C1B786D1E082902F8FE
:1011E00008304FEA091908F1010801DA002DF0DC96
:1011F00021688B0602D516E0A8F10108E04505DD5F
:1012000002EB080313F8013C302BF5D0B8F1000FC6
:1012100009DD02EB080313F8013C2E2B03D109076B
:1012200001D4A8F10108002D05DD3E2102F80810C7
:101230006D1E08F10108407C002E02F8080008F13C
:10124000010804DA2D20764202F8080002E02B2083
:1012500002F808000A214FF47A70864208F101086A
:101260000BDB96FBF0F3303302F8083096FBF0F31B
:1012700008F1010800FB136601E0642E0CDB64201A
:1012800096FBF0F3303302F8083096FBF0F308F1E8
:10129000010800FB136601E00A2E06DB96FBF1F065
:1012A000303002F8080008F1010896FBF1F001FB6C
:1012B0001060303002F80800A16908F1010808EB5D
:1012C000050202EB0A00081AA0612078C00602D4C9
:1012D0002046FFF731F9216A08AE01EB0A002062CF
:1012E00004E0D4E9012116F8010B9047BAF1010A94
:1012F000F7D22078C00602D52046FFF71DF96E46CA
:1013000009E016F8010B3E280FD0D4E901219047DF
:10131000206A401C2062B8F10108F2D22046FFF793
:1013200021F909B00320BDE8F08F206A284420622B
:1013300003E0D4E90121302090476D1EEBD3F8E79C
:101340005996000002FCFFFF10B5436913B1AFF3DB
:10135000008001E0FFF79EFA012010BD127800F135
:1013600024010A7000224A700122EDE711684FF053
:10137000FF32E9E710B5436913B1AFF3008001E034
:10138000FFF73CFB012010BD128800F1240182848C
:101390000022C2840122EDE711684FF0FF32E9E735
:1013A0002DE9F04116460C46054600F047F8036863
:1013B00093F80101012807D0FF2C12D8185D80B1E5
:1013C00001202C70BDE8F081D3F807013246214698
:1013D00003F20713C7182846BC46BDE8F0410023B6
:1013E00060474FF0FF30EDE7004870475800002499
:1013F0007546FFF7F9FFAE4605006946534620F0F3
:101400000700854618B020B5FEF7FAFFBDE820407A
:101410004FF000064FF000074FF000084FF0000BB0
:10142000AC46ACE8C009ACE8C009ACE8C009ACE81F
:10143000C00921F007018D467047000010B500F08B
:1014400005F8001D10BD00BFC592000000487047A0
:10145000780000242DE9F0411F4604460326016868
:10146000072A01F4006004DB08B116A505E016A503
:1014700003E008B115A500E015A521F010002060DB
:10148000A069C01EA0610FB1401EA0612046FFF7F9
:1014900053F84FB1D4E9012138469047206A401CE7
:1014A0002062C01C206206E0206AFAE7D4E901212C
:1014B00015F8010B9047761EF8D22046FFF752F838
:1014C000BDE8F0814E414E006E616E00494E46000F
:1014D000696E66002DE9F047814616468AB03548A8
:1014E00078440DC88DE80D0032487844801C03AC68
:1014F0000DC884E80D0041F69B300844372190FB6D
:10150000F1F290FBF1F5A5F1800501FB12041B3C03
:1015100002D56442012000E00020DFF898A0804658
:101520000027FA44AAF1BE0A0EE0E0070AD03246CC
:10153000684607EB470101230AEB810108F079FFB8
:101540008DE8070064107F1C002CEED1194F7F44FA
:10155000AE3F19E0E80715D007EB04100DF1180AAB
:1015600090E80E008AE80E00C068F04201D1981998
:1015700008903246012306A903A808F05AFF03ABDE
:1015800083E807006D10641C002DE3D14FF00103C8
:1015900032466946B8F1000F03A802D008F034FFC4
:1015A00001E008F046FFC9E90001C9F808200AB0C7
:1015B000BDE8F0875C93000010B50446AFF30080EF
:1015C0002046BDE81040FEF706BF7047000000004F
:1015D00030B44FF0013C50F8042BCCFA52F451F8DF
:1015E000043BD51A20D1FCB950F8042BCCFA52F4A4
:1015F00051F8043BD51A17D1B4B950F8042BCCFAE2
:1016000052F451F8043BD51A0ED16CB950F8042BA2
:10161000CCFA52F451F8043BD51A05D1002CDAD09B
:1016200030BC4FF00000704729BAB1FA81F111F0D7
:101630001801D1F120008440F2D1CA40CB4012F011
:10164000FF0213F0FF0330BCD01A70470149182085
:10165000ABBEFEE726000200FEE70000000000002F
:101660007047000000000000EFF3108072B600BF6A
:10167000FEE70000000000002DE9F041044600F004
:10168000FFFC1CB3054694F83500022822D140F235
:101690000F462768C4F2020640F26F48B7426FF067
:1016A0000E00C4F202081DDC6F21C4F202018F4259
:1016B0002ADC3F21C4F202018F4241DC1021C4F236
:1016C00002018F4263D028215CE000BF0120BDE809
:1016D000F08100BF802060650120002184F8341073
:1016E000BDE8F08147451BDC40F23F41C4F20201F6
:1016F0008F422DDC40F21041C4F202018F4246D0ED
:1017000040F228413EE000BF9F21C4F202018F4217
:1017100028DC7021C4F202018F4238D0882131E0E8
:1017200040F29F41C4F202018F4223DC40F270413B
:10173000C4F202018F422AD040F2884122E000BF69
:101740004021C4F202018F4221D058211AE000BF8B
:1017500040F24041C4F202018F4218D040F2584199
:1017600010E000BFA021C4F202018F420FD0B821C7
:1017700008E000BF40F2B841C4F202018F4206D037
:1017800040F2A041C4F202018F42394607D13946E6
:10179000386820F01E0041F8140B6FF080000A68D2
:1017A000474500EA020008601ADC9F20C4F20200EC
:1017B000874233DC5720C4F2020087425ADC1020F3
:1017C000C4F20200874200F097802820C4F2020091
:1017D000874200F091804020C4F202008AE000BFFE
:1017E00045F22F40C5F6020087422DDC40F2B7409B
:1017F000C4F2020087424BDC40F27040C4F20200A7
:10180000874279D040F28840C4F20200874273D008
:1018100040F2A040C4F202006CE000BF40F227405A
:10182000C4F20200874243DCA020C4F202008742D7
:1018300062D0B820C4F2020087425DD040F210406E
:10184000C4F2020056E000BF45F26B40C5F602004C
:1018500087423FDC45F23040C5F6020087424BD05C
:1018600045F24440C5F60200874245D045F2584053
:101870003EE000BF5820C4F2020087423CD07020F6
:10188000C4F20200874237D08820C4F2020031E05F
:1018900040F2B840C4F2020087422DD045F2084021
:1018A000C5F60200874227D045F21C4020E000BF69
:1018B00040F22840C4F2020087421DD040F240406E
:1018C000C4F20200874217D040F25840C4F202002E
:1018D00010E000BF45F26C40C5F6020087420BD015
:1018E00045F29440C5F60200874205D045F280409B
:1018F000C5F60200874204D1206E016821F4807190
:101900000160386820F00100386000BF3868C00707
:1019100010D000F0B5FB401B0628F7D320206065EF
:10192000032084F835000120002184F83410BDE83C
:10193000F08100BF2068B04210DC6F21C4F20201C8
:1019400088421DDC3F21C4F20201884234DC1021B0
:10195000C4F20201884255D028214FE040451BDCEB
:1019600040F23F41C4F2020188422DDC40F21041B6
:10197000C4F20201884245D040F228413EE000BF57
:101980009F21C4F20201884228DC7021C4F20201C6
:10199000884237D0882131E040F29F41C4F20201F1
:1019A000884223DC40F27041C4F20201884229D00F
:1019B00040F2884122E000BF4021C4F20201884287
:1019C00020D058211AE000BF40F24041C4F2020189
:1019D000884217D040F2584110E000BFA021C4F265
:1019E000020188420ED0B82108E000BF40F2B841A1
:1019F000C4F20201884205D040F2A041C4F20201C3
:101A000088425BD1D4E9161202F01F023F2303FA89
:101A100002F28A6040455BDC9F21C4F202018842E9
:101A200014DC5721C4F20201884227DC1021C4F2E1
:101A30000201884200F0A2802821C4F202018842FB
:101A400000F09C804021C4F2020195E040F2274161
:101A5000C4F2020188421FDCA021C4F202018842C4
:101A600000F08C80B821C4F20201884200F0868028
:101A700040F21041C4F202017EE000BF5821C4F2DE
:101A8000020188427AD07021C4F20201884275D0E6
:101A90008821C4F202016FE040F22841C4F2020141
:101AA00088426BD040F24041C4F20201884265D0C6
:101AB00040F25841C4F202015EE000BFD4E91612C0
:101AC00002F01F02012303FA02F24A604045A3DD3F
:101AD00045F22F41C5F60201884217DC40F2B741BA
:101AE000C4F20201884227DC40F27041C4F20201D4
:101AF000884243D040F28841C4F2020188423DD07E
:101B000040F2A041C4F2020136E000BF45F26B4151
:101B1000C5F6020188421FDC45F23041C5F60201DC
:101B200088422BD045F24441C5F60201884225D0B7
:101B300045F258411EE000BF40F2B841C4F2020134
:101B400088421BD045F20841C5F60201884215D0F3
:101B500045F21C410EE000BF45F26C41C5F60201A2
:101B600088420BD045F29441C5F60201884205D067
:101B700045F28041C5F6020188420BD1616EA26E2A
:101B8000E06E4A6030B1016821F480710160D4E9EF
:101B90001C014160012084F835000020002184F8F8
:101BA0003410BDE8F081000080B5D8B190F8351050
:101BB000022919D140F20F420168C4F20202914297
:101BC00016DC6F23C4F20203994227DC3F23C4F2E0
:101BD000020399423EDC1023C4F2020399425FD013
:101BE000282359E0012080BD80214165012080BD6E
:101BF00040F26F43C4F2020399421BDC40F23F43C0
:101C0000C4F2020399422DDC40F21043C4F20203F5
:101C1000994245D040F228433EE000BF9F23C4F2E2
:101C20000203994228DC7023C4F20203994237D0A0
:101C3000882331E040F29F43C4F20203994223DC3F
:101C400040F27043C4F20203994229D040F2884323
:101C500022E000BF4023C4F20203994220D058235F
:101C60001AE000BF40F24043C4F20203994217D089
:101C700040F2584310E000BFA023C4F2020399428F
:101C80000ED0B82308E000BF40F2B843C4F202030C
:101C9000994205D040F2A043C4F20203994275D1A3
:101CA00091424FF0040280F8352011DC6F20C4F21D
:101CB0000200814222DC3F20C4F20200814239DC72
:101CC0001020C4F20200814259D0282054E000BF05
:101CD00040F26F40C4F2020081421BDC40F23F4000
:101CE000C4F2020081422DDC40F21040C4F2020036
:101CF000814244D040F228403EE000BF9F20C4F221
:101D00000200814228DC7020C4F20200814236D0F9
:101D1000882031E040F29F40C4F20200814223DC7F
:101D200040F27040C4F20200814228D040F2884064
:101D300022E000BF4020C4F2020081421FD05820A0
:101D40001AE000BF40F24040C4F20200814216D0C7
:101D500040F2584010E000BFA020C4F202008142CF
:101D60000DD0B82008E000BF40F2B840C4F2020035
:101D7000814204D040F2A040C4F2020081420868CF
:101D800020F001000860002080BD00BF0A6822F03A
:101D90000E020A6045F25742C5F6020291420A68F5
:101DA00022F001020A600FDC45F22F42C5F6020262
:101DB000914219DC45F20842C5F60202914229D04F
:101DC00045F21C4222E000BF45F27F42C5F6020206
:101DD000914213DC45F25842C5F60202914219D0F5
:101DE00045F26C4212E000BF45F23042C5F60202F5
:101DF00091420FD045F2444208E000BF45F29442C0
:101E0000C5F60202914205D045F28042C5F60202B3
:101E100091421AD1D0E9181CD0E916E30A6822F4DD
:101E200080720A6003F01F01012202FA01F1CEF86C
:101E30000410816ECCF80410C16E31B10A6822F42E
:101E400080720A60D0E91C124A60012180F83510C6
:101E5000026D002180F834100AB190470021084635
:101E600080BD000000000000B0B5044600F008F995
:101E700040F200010546C2F20041621C097818BF19
:101E80000C4400BF00F0FCF8401BA042FAD3B0BDE8
:101E90002DE9F04F82B00D68002D00F0CB8000F1ED
:101EA000264242F2004302F1FF72C5F602030A26FF
:101EB00098424FEAB22444F2F44E08BF0926092C96
:101EC00040F2040C38BF4FEAB226C5F6020EC5F642
:101ED000000C009600220027002609E001360D685C
:101EE00035FA06F307F1040702F1020200F0A280BE
:101EF000012303FA06F415EA0408EFD0D1F804A090
:101F000003230AF0030B9340ABF101056FEA0309C9
:101F1000012D0FD88368CD6803EA090395402B4350
:101F20008360CAF300154368A34305FA06F423430C
:101F3000436005E0BBF1030F02D14FF0030B21E03A
:101F4000C3688C6803EA09039440BBF1020F43EABB
:101F50000403C36016D16FF0030307F01C0503EA06
:101F600056030F24034404FA05FBD3F820A00C69A0
:101F70002AEA0B0AAC4044EA0A041C62D1F804A025
:101F80000AF0030B03680BFA02F403EA09031AF4DC
:101F9000403F43EA04030360A0D0DEF8003040F283
:101FA000084A43F00203CEF80030DEF80030C5F6F0
:101FB000000A03F00203019326F00303019C07F0DB
:101FC0000C040F2553F80A90A54029EA0509009D45
:101FD00005FA04F444EA090443F80A404FF0B04A11
:101FE000DAF800904C6849EA0805E30258BF29EA8C
:101FF0000805A302CAF80050DCF8009049EA080579
:1020000058BF29EA0805A303CCF80050DCF88090FB
:1020100049EA080558BF29EA0805E403CCF88050CE
:10202000DCF87C3043EA080558BF23EA0805CCF801
:102030007C5053E702B0BDE8F08F000000000000C4
:102040000069084018BF0120704700000000000030
:10205000426902EA0103914341EA03418161704709
:10206000002A08BF090481617047000000000000D9
:1020700041F20000C5F600400068000C7047000007
:1020800040F24850C2F20040006870470000000073
:1020900090F84120202A03D190F84020012A01D154
:1020A00002207047242280F841200268136823F040
:1020B00001031360136823F48053136013681943FA
:1020C0001160116841F001011160202180F8411078
:1020D000002180F840100846704700000000000012
:1020E00090F84120202A03D190F84020012A01D104
:1020F00002207047242280F841200268136823F0F0
:1021000001031360136823F4706343EA0121116033
:10211000116841F001011160202180F84110002177
:1021200080F840100846704781B044F2F441C5F68B
:1021300002010A6842F002020A60096801F0020125
:10214000009140F20441009AC5F600010A6810436C
:10215000086001B07047000010B310B5044690F855
:10216000410028B9002084F84000204600F068F9BA
:10217000242084F8410094E80910E2680168012AEB
:1021800021F00101016023F070610161816821F497
:102190000041816006D14CF4004181600CE000BF39
:1021A00001207047022A4CF40441816004D1416847
:1021B00041F4006103E000BF416821F40061416027
:1021C00004F1100C416841F0007141F4004141609C
:1021D000C16821F40041C1609CE80E10114341EA3E
:1021E0000321C160216A41EA0C010160016841F0EC
:1021F0000101016000206064202184F84110206307
:1022000084F8420010BD00002DE9F04F81B0044673
:1022100090F8410020280DD1DDF82880B8F1000F9A
:102220000CD0DDF82CA0BAF1000F07D094F84000D4
:1022300001280BD1022001B0BDE8F08F4FF40070EF
:102240006064012001B0BDE8F08F00BF1D46174655
:102250008946012084F84000FFF712FF21680646F6
:102260008A69120449D4212084F84100402084F86E
:102270004200E8B24FF0000B6FF39F29C4F844B05E
:10228000C4F8248049EA0040A4F82AA049F6004A8C
:10229000CFF6004AC4F834B04A68AAF580631A4001
:1022A000DDF830801044324640F0807040F4005039
:1022B00048602046414604F09FF8A8B9012D2068E7
:1022C00008D0390A816220464146324604F094F82B
:1022D00050B92068F9B2816280210022204643462D
:1022E000009603F0D9FF48B384F840B0012001B054
:1022F000BDE8F08F88690004B5D519212046324623
:1023000003F01AFF00289CD1FFF7BAFE801B21685A
:102310001A28EFD388690004ECD5606C40F02000E7
:102320006064202084F84100002084F8420084F892
:102330004000012001B0BDE8F08F00BF608D002596
:10234000C0F2FF15B0F5807F08D320682B4650F807
:10235000041F01EA0A02FF210BE000BF618D206823
:10236000CAB250F8043F03EA0A0343EA02424FF0BC
:1023700000731A43FF2742EA09020260218511E037
:10238000618D20682185C9B250F8042F02EA0A0243
:1023900042EA01414FF00072114341EA0901016034
:1023A000608D78B320464146324604F025F8002877
:1023B0007FF447AF606A216810F8012B8A6260627F
:1023C000608D01386085208D01382085618D002960
:1023D000E6D00004E4D18021002220464346009646
:1023E00003F05AFF00287FF42CAF608DB0F5807F9A
:1023F000C6D3206827852A4650F8041F01EA0A013F
:10240000CAE700BF20464146324603F0B5FF002828
:102410007FF417AF206820214EF60003C161CFF68C
:10242000006342681A40426084F84110002084F83A
:10243000420084F8400001B0BDE8F08F00000000C9
:102440002DE9F043B7B0044602A8C0210025CDE92C
:102450003555CDE933553295FEF7E0F945F60041A3
:102460002068C4F2000188423AD045F60001C4F267
:102470000001884240F07F800820029002A80024DA
:10248000039400F009FB08B1FFF7EEF844F2E045D1
:102490000021C5F60205C5F60201286840F00200D9
:1024A0002860286800F00200019001984FF4406015
:1024B00032901220CDE933040420369001F580607B
:1024C00032A93594FFF7E4FCA86840F48000A860C6
:1024D000A86800F480000190019837B0BDE8F0834F
:1024E0000820029002A8039500F0D6FA08B1FFF781
:1024F000BBF844F2E0460024C5F60206C5F6020425
:1025000032AD4FF012083068294640F004003060C8
:102510003068002700F0040001900198306840F016
:102520000100306030684FF0040900F001000190B4
:1025300001984FF40070329004F50060CDF8CC8023
:10254000CDE93477CDF8D890FFF7A2FC4FF4807036
:102550002946CDE932082046CDF8D890CDE9347728
:10256000FFF796FCB06840F40000B060B06800F47B
:1025700000000190019837B0BDE8F0830000000032
:1025800040F2000040F24851C2F20040C2F2004165
:1025900000780A68104408607047000000000000DE
:1025A00080B5032000F0FCF801F0D2F944F21841A4
:1025B0004AF66403C5F60201C0F600030A6809681A
:1025C00001F00F01C2F30322595C9A5C01F01F0174
:1025D00002F01F02D04040F20C02C2F2004220FA88
:1025E00001F1116040F20801C2F2004108600F20C1
:1025F00000F00AF800281CBF012080BD00F07CF824
:10260000002080BD0000000070B540F20006C2F25C
:1026100000463178E1B1044640F20800C2F20040C1
:102620004FF47A72B2FBF1F10068B0FBF1F001F007
:10263000CBFC0F2C4FF0010508D838B94FF0FF3014
:1026400000222146002500F07BF87460284670BD0A
:10265000012070BD0000000010B54EF6A05E41786C
:10266000CEF2000E90F800C04EF8081CDEF8001004
:1026700021F00101CEF8001041684EF8041C017BE6
:10268000C37A827A447B1B0643EA0171837B41EA69
:10269000C241C27B41EA8441447A41EA4341007A23
:1026A00041EA024141EA042141EA400040EA0C00CB
:1026B000CEF8000010BD00004EF62450CEF200000F
:1026C000BFF35F8F016821F4803101600021016751
:1026D00070470000000000004EF6245140F0010059
:1026E000CEF200010867086840F480300860BFF34C
:1026F0004F8FBFF36F8F704781B044F2F440C5F63F
:102700000200016841F002010160006800F002006F
:102710000090009801B07047002848BF704781B210
:1027200000F01F000122490902FA00F04EF20012E7
:10273000CEF2000242F821007047000000000000C5
:1027400070B54EF60C5C4FF0FF36CEF2000C00F187
:10275000604505F56445DCF80030C3F3022E8EF0C9
:102760000703042B28BF0423BEF1030406FA03F376
:1027700021EA030100F00F0338BF0024043B0028C6
:10278000634406FA04F048BF03F10C05A14022EAB5
:10279000000008430001287070BD00000000000028
:1027A0004EF60C514FF6FF03CEF200010A681A40B4
:1027B00060F30A2242F0806040F0FD7008607047CC
:1027C000B0B544F60C05C5F6020529684907296825
:1027D00006D401F00701081A18BF0120B0BD00BFE0
:1027E00021F0070108432860FFF74AFC044600BFB8
:1027F00055F8080C800407D4FFF742FC001BB0F525
:102800007A7FF5D90120B0BD0020B0BD00000000E6
:1028100080B501F015F844F220414AF66402C5F68D
:102820000201C0F600020968C1F30211515C01F017
:102830001F01C84080BD000080B544F2384EC5F687
:10284000020E5EF8103C5EF8101C5EF80C2CC1F312
:10285000053CDEF80410BCF1000F15D0C908D20603
:1028600001EAE2716FF35F3100EE101A03F0030129
:102870000229B8EE400A0DD081B95EF8381C8906ED
:1028800010D49FED361A1BE000218160C0E90011D1
:1028900080BD00BF9FED301A12E000BF9FED2D1AE2
:1028A0000EE000BF5EF8381C49F20002C0F2D032E0
:1028B000C1F3C10122FA01F101EE101AB8EE411A7A
:1028C000DEF800109FED263A6FF35F2102EE101A3A
:1028D000DEF80010C1F34621B8EE422A00EE032ACA
:1028E00000EE10CAB7EE003AB8EE400A81EE000AD8
:1028F00032EE031A02EE101AB8EE422A20EE010A56
:1029000032EE031A80EE011ABCEEC11A80ED001AF5
:10291000DEF80010C1F3064101EE101AB8EE411ABC
:1029200031EE031A80EE011ABCEEC11A80ED011AD5
:10293000DEF80010C1F3066101EE101AB8EE411A7C
:1029400031EE031A80EE010ABCEEC00A10EE101A36
:10295000816080BD0024744A20BCBE4B0024744CAE
:10296000000000390000000080B544F2404EC5F67A
:10297000020E5EF8183C5EF8181C5EF8142CC1F3C9
:10298000055CDEF80410BCF1000F15D0C908D205B3
:1029900001EAE2716FF35F3100EE101A03F00301F8
:1029A0000229B8EE400A0DD081B95EF8401C8906B4
:1029B00010D49FED361A1BE000218160C0E90011A0
:1029C00080BD00BF9FED301A12E000BF9FED2D1AB1
:1029D0000EE000BF5EF8401C49F20002C0F2D032A7
:1029E000C1F3C10122FA01F101EE101AB8EE411A49
:1029F000DEF800109FED263A6FF35F2102EE101A09
:102A0000DEF80010C1F34621B8EE422A00EE032A98
:102A100000EE10CAB7EE003AB8EE400A81EE000AA6
:102A200032EE031A02EE101AB8EE422A20EE010A24
:102A300032EE031A80EE011ABCEEC11A80ED001AC4
:102A4000DEF80010C1F3064101EE101AB8EE411A8B
:102A500031EE031A80EE011ABCEEC11A80ED011AA4
:102A6000DEF80010C1F3066101EE101AB8EE411A4B
:102A700031EE031A80EE010ABCEEC00A10EE101A05
:102A8000816080BD0024744A20BCBE4B0024744C7D
:102A900000000039000000002DE9F0470446C0782E
:102AA00044F22C480007C5F6020833D5A06E4FEA61
:102AB000305103290CD8DFE801F003111D2600BFB7
:102AC000D8F8001041F40031C8F800101BE000BF36
:102AD00001266078C0070BD020E000BF04F1080099
:102AE000022104F0D1FA064660B16078C00715D122
:102AF000354646E004F12800022104F059FB064661
:102B00000028F2D1A06ED8F8241021F44011084317
:102B1000C8F8240000266078C007E9D0A06D04281A
:102B20000ED83546DFE800F00412181E1E0000BF64
:102B3000D8F80000354640F40030C8F8000011E035
:102B400001250127607880071FD452E004F10800B6
:102B5000002104F099FA04E004F12800002104F0B7
:102B600027FB05462F461DB1607880070DD440E055
:102B7000D8F82400A16D20F0070000250843C8F80C
:102B8000240037466078800733D5E06D4FEAB010F7
:102B900004280DD8DFE800F00412181E1E0000BF44
:102BA000D8F8000040F40030C8F8000012E000BF80
:102BB00001250126607840071FD455E004F1080084
:102BC000002104F061FA04E004F12800002104F07F
:102BD000EFFA05462E461DB1607840070DD443E05C
:102BE000D8F82400E16D20F4E07000250843C8F80F
:102BF00024003E466078400736D5D4F8A8004FEA56
:102C0000705004280CD8DFE800F00313191F1F00D0
:102C1000D8F8000040F40030C8F8000014E000BF0D
:102C200001254FF001096078000721D456E000BF6C
:102C300004F10800002104F027FA04E004F1280060
:102C4000002104F0B5FA0546A9461DB160780007D9
:102C50000ED443E0D8F82C00D4F8A81020F460007B
:102C600000250843C8F82C00B1466078000735D528
:102C7000D4F8AC004FEA306004280DD8DFE800F04B
:102C80000412181E1E0000BFD8F8000040F40030E7
:102C9000C8F8000012E000BF01250127E078800796
:102CA00020D44EE004F10800002104F0EDF904E026
:102CB00004F12800002104F07BFA05462F461DB1DF
:102CC000E07880070ED43CE0D8F82C00D4F8AC10A3
:102CD00020F0E06000250843C8F82C004F46E0785B
:102CE00080072ED5E06C4FEA301003280ED8DFE8BD
:102CF00000F00903130900BFD8F8000040F40030C9
:102D0000C8F800002E467DB912E000BF012501265B
:102D10006078C00619D44CE004F10800022104F0E8
:102D2000B3F905462E461DB16078C0060DD440E0CB
:102D3000D8F82000E16C20F0300000250843C8F8E6
:102D400020003E466078C00633D5206E4FEA303012
:102D500004280DD8DFE800F00412181E1E0000BF82
:102D6000D8F8000040F40030C8F8000012E000BFBE
:102D700001250127607880061FD44EE004F1080089
:102D8000002104F081F904E004F12800002104F09E
:102D90000FFA05462F461DB1607880060DD43CE041
:102DA000D8F82400216E20F4E04000250843C8F83C
:102DB00024003746607880062FD5606E4FEA304099
:102DC000052809D8DFE800F0040E1404040400BF4D
:102DD0002E46ADB918E000BF0125012660784006F7
:102DE0001FD44FE004F10800012104F04DF904E084
:102DF00004F12800012104F0DBF905462E461DB13F
:102E0000607840060DD43DE0D8F82400616E20F4CF
:102E1000E02000250843C8F824003E4660784006BC
:102E200030D5D4F8B0004FEA3070052808D8DFE874
:102E300000F0030D130303032F46ADB918E000BFE4
:102E4000012501276078000620D442E004F1080043
:102E5000012104F019F904E004F12800012104F033
:102E6000A7F905462F461DB1607800060ED430E064
:102E7000D8F82C00D4F8B01020F0E040002508432A
:102E8000C8F82C0037466078000622D5206F58B16C
:102E9000B0F1005F0CD0B0F1805F2FD1D8F8000006
:102EA00040F40030C8F800002E469DB908E000BF8D
:102EB00004F10800012104F0E7F805462E464DB95B
:102EC000D8F82400216F20F0405000250843C8F8AE
:102ED00024003E46E078C00733D0A06C032813D806
:102EE000DFE800F008021A08D8F8000040F40030CB
:102EF000C8F80000A946BDB91AE000BF01250126A7
:102F0000E078C007E9D11CE001254FF00109A07865
:102F100040061AD51CE000BF04F10800022104F0AD
:102F2000B3F80546A9461DB1A07840060DD50FE0BF
:102F3000D8F82000A16C20F0030000250843C8F851
:102F40002000B146A078400602D44F4618E000BFEA
:102F5000D8F8D40340F48070C8F8D403FFF790F891
:102F6000064600BFD8F8D403C00507D4FFF788F899
:102F7000801B6428F6D90325032701E02F468DB175
:102F80002078C00761D0E06F4FEAF00005283BD8F9
:102F9000DFE800F004404604040400BF002D2E4684
:102FA00046D149E0D8F84410D4F8B400414011F4B7
:102FB000407F11D0D8F84410D8F8442042F4803231
:102FC000C8F84420D8F8442021F4407122F480321B
:102FD000C8F84420C8F84410B0F5807F40F0DE8285
:102FE000FFF74EF8064641F2883A0325032700BF53
:102FF000D8F84400800700F1CF82FFF741F8801B2A
:103000005045F5D9BCE700BF01260125207880078F
:103010001FD44CE004F10800012104F035F804E06D
:1030200004F12800012104F0C3F805462E461DB125
:10303000207880070DD43AE0D8F82800E16F20F01E
:10304000380000250843C8F828003E46207880074D
:103050002DD5A06F052809D8DFE800F0040E140470
:10306000040400BF2F46ADB918E000BF01270125B9
:10307000207840071FD44DE004F10800012104F03E
:1030800003F804E004F12800012104F091F805465A
:103090002F461DB1207840070DD43BE0D8F828001A
:1030A000A16F20F0070000250843C8F82800374624
:1030B000207840072ED5D4F89400052808D8DFE8FA
:1030C00000F0030D130303032E46ADB918E000BF53
:1030D000012601252078800620D451E004F1080063
:1030E000012103F0D1FF04E004F12800012104F0E4
:1030F0005FF805462E461DB1207880060ED43FE0CD
:10310000D8F82C00D4F8941020F0070000250843CC
:10311000C8F82C003E462078800631D5D4F89000BF
:103120004FEA3070052809D8DFE800F0040E1404D7
:10313000040400BF2F46ADB918E000BF01270125E8
:103140002078400620D451E004F10800002103F06B
:103150009BFF04E004F12800022104F029F8054651
:103160002F461DB1207840060ED43FE0D8F8280045
:10317000D4F8901020F0E04000250843C8F828005B
:1031800037462078400631D5D4F89C004FEAB0206D
:10319000052809D8DFE800F0040E1404040400BF79
:1031A0002E46ADB918E000BF0126012520780006A3
:1031B00020D454E004F10800002103F065FF04E08E
:1031C00004F12800022103F0F3FF05462E461DB14D
:1031D000207800060ED442E0D8F82C00D4F89C10D9
:1031E00020F4E05000250843C8F82C003E46207823
:1031F000000634D5D4F8A0004FEA703005280FD867
:10320000DFE800F004141A04040400BF2F46E5B1FF
:103210002068010727D4C1063ED4000355D475E0C9
:103220000127012520680107F5D51CE004F10800FD
:10323000002103F029FF04E004F12800022103F03B
:10324000B7FF0546002D2F46E2D1D8F82C00D4F860
:10325000A01020F4604000250843C8F82C00374631
:1032600020680107D7D5D4F88400B0F5805F09D174
:1032700004F12800022103F09BFF002818BF01275A
:10328000D4F88400D8F8281021F440510843C8F835
:1032900028002068C106C0D5D4F89800B0F5807F1A
:1032A00009D104F12800022103F082FF002818BF91
:1032B0000127D4F89800D8F82C1021F44071084365
:1032C000C8F82C002068000320D5D4F8A400B0F57D
:1032D000003F0FD0B0F5803F06D078BB04F1080066
:1032E000002103F0D1FE04E004F12800022103F0E4
:1032F0005FFF05462E4655B9D8F82C00D4F8A41027
:1033000020F4403000250843C8F82C003E46A07841
:1033100040072BD5D4F88800B0F5401F0BD0B0F58E
:10332000001F11D0B0F5801F2AD1D8F8000040F45A
:103330000030C8F800002F46CDB90DE00126012568
:10334000A0784007E6D411E004F12800012103F041
:103350002FFF05462F4655B9D8F82800D4F8881015
:1033600020F4401000250843C8F828003746A0780C
:10337000C0070AD13E462168880016D533E000BF59
:1033800001270125A078C007F4D0206DB0F5803F5B
:1033900010D018BBD8F8000040F40030C8F8000086
:1033A0002E4685B1216888001DD460688A0326D422
:1033B00069E000BF04F10800022103F065FE054644
:1033C000002D2E46EED1D8F82000216D20F480305B
:1033D00000250843C8F82000CCE700BF01260125DE
:1033E00021688800E1D504F12800022103F0E0FE05
:1033F000002818BF0126D4E900108A0343D5D4F869
:1034000080206FF0010303EB3223022B0BD34FEA32
:10341000322343B1012B40F0B980D8F8003043F497
:103420000033C8F800303DB3CA022FD4CA0037D4E5
:103430008A0240D44A0048D4CA0F55D109025DD44B
:10344000C10766D181076FD4410779D4010700F124
:103450008380C10600F18C80800607D504F1280026
:10346000022103F0A5FE002818BF0125002D18BF7A
:1034700001252846BDE8F087D8F8283023F44073AA
:103480001A43C8F828203546CA02CFD5D8F82420D8
:10349000636F22F000421A43C8F82420CA00C7D53F
:1034A00058F81C2CD4F8B83022F480421A4348F85B
:1034B0001C2C8A02BED5D8F82420E36E22F080723C
:1034C0001A43C8F824204A00B6D558F81C2C22F418
:1034D000004248F81C2CD4F8BC2058F81C3C1A4375
:1034E00048F81C2CCA0FA9D0D8F82020636D22F010
:1034F00040521A43C8F820200902A1D5D8F8281054
:10350000D4F88C2021F440011143C8F82810C107D9
:1035100098D004F10800002103F0B6FD002818BF80
:103520000546606881078FD504F10800012103F08A
:10353000ABFD002818BF0546606841077FF586AFE0
:1035400004F10800022103F09FFD002818BF054682
:10355000606801077FF57DAF04F12800002103F0CA
:1035600027FE002818BF05466068C1067FF574AFC6
:1035700004F12800012103F01BFE002818BF0546B6
:10358000606880067FF572AF68E700BF0125CA0258
:103590007FF54CAF7AE700BFD4F8B4004FF6CF7395
:1035A00058F81C2CC0F2FF0300F4407122F47C5246
:1035B00003EA10136FF31F30B1F5407F08BF1A43C1
:1035C000002548F81C2CD8F844100843C8F84400DB
:1035D000FFF7BBBC000000002DE9F04381B00028DC
:1035E00000F02A8142F200080446C5F2002889460C
:1035F000D8F8000000F00F0088420ED2D8F8000082
:1036000020F00F0040EA0900C8F80000D8F80000D8
:1036100000F00F00484540F00F81206844F2184741
:103620004107C5F602070AD521693A6802F070021F
:10363000914204D93A6822F07002114339600107BF
:103640000AD561697A6802F07002914204D97A68F9
:1036500022F0700211437960C1060AD5A1697A6827
:1036600002F4E062914204D97A6822F4E0621143E4
:10367000796081060AD5E169BA6802F07002914268
:1036800004D9BA6822F070021143B96010F0020147
:103690000AD0E2683B6803F00F039A4204D93B6802
:1036A00023F00F031A433A60C20746D0386820F46B
:1036B0007061D4E90102012841EA0201396009D0B0
:1036C00003280DD0022811D157F8181C890340F1A6
:1036D000B38010E057F8181CC90540F1AD800AE02E
:1036E00057F8181C890140F1A78004E057F8181C0E
:1036F000490740F1A18057F8081C21F00701084351
:1037000047F8080CFEF7BCFC064641F2883500BFBE
:1037100057F8080C616800F03800B0EBC10F09D011
:10372000FEF7AEFC801BA842F2D9032001B0BDE831
:10373000F08300BF206800F0020151B1E1683A68EF
:1037400002F00F02914204D23A6822F00F021143B4
:103750003960D8F8001001F00F0149450DD9D8F8AB
:10376000001021F00F0141EA0901C8F80010D8F853
:10377000001001F00F0149455ED141070AD52169CA
:103780003A6802F07002914204D23A6822F0700264
:103790001143396001070AD561697A6802F0700245
:1037A000914204D27A6822F0700211437960C10616
:1037B0000AD5A1697A6802F4E062914204D27A687B
:1037C00022F4E0621143796080060AD5E069B968A5
:1037D00001F07001884204D2B96821F070010843F9
:1037E000B86000F0B5F839684AF664033A68C0F684
:1037F0000003C1F3032102F00F02595C9A5C01F04F
:103800001F0120FA01F102F01F0040F20C0221FA20
:1038100000F0C2F20042106040F2040040F20802E0
:10382000C2F20040C2F200420068116001B0BDE87F
:10383000F043FEF7E9BE00BF012001B0BDE8F08310
:1038400080B500F085F844F218414AF66403C5F6E5
:103850000201C0F600030A68096801F00F01C2F313
:103860000322595C9A5C02F01F0220FA02F201F076
:103870001F0040F20C0122FA00F0C2F20041086081
:1038800040F20801C2F200410A6080BD0000000061
:1038900080B500F05DF844F2184C4AF66401C5F6B4
:1038A000020CC0F60001DCF80020DCF8003003F068
:1038B0000F03C2F30322CB5C8A5C02F01F02D040EC
:1038C00003F01F0240F20C0320FA02F2C2F200439E
:1038D0001A6040F20803C2F200431860DCF80400EA
:1038E000C0F30210085C00F01F0022FA00F080BD57
:1038F00080B500F02DF844F2184C4AF66401C5F684
:10390000020CC0F60001DCF80020DCF8003003F007
:103910000F03C2F30322CB5C8A5C02F01F02D0408B
:1039200003F01F0240F20C0320FA02F2C2F200433D
:103930001A6040F20803C2F200431860DCF8040089
:10394000C0F30220085C00F01F0022FA00F080BDE6
:1039500044F20041C5F602010869C0F3C200032821
:1039600010D002282ED098BB0868800649F20000CB
:10397000C0F2D03058BF70470968C1F3C101C840D8
:10398000704700BF8A6A886AC0F3051CC86ABCF128
:10399000000F4B6B22D000F0010002F00302404206
:1039A000022A00EAD3006FF35F3000EE100AB8EE8F
:1039B000400A15D0C2B90868800619D49FED281AAC
:1039C00023E000BF47F64000C0F27D10704700BF03
:1039D00040F60010C0F23D00704700BF0020704765
:1039E0009FED1E1A11E000BF9FED1B1A0DE000BFF6
:1039F000086849F20002C0F2D032C0F3C10022FAD6
:103A000000F001EE100AB8EE411A086B9FED153A6E
:103A10006FF35F2002EE100A086BC0F34620B8EE89
:103A2000422A013000EE032A00EE10CAB7EE003A37
:103A3000B8EE400A81EE000A32EE031A20EE010AC7
:103A400001EE100AB8EE411A80EE010ABCEEC00A7F
:103A500010EE100A704700BF0024744A20BCBE4B11
:103A60000024744C00000039F0B581B0002800F04B
:103A700063810446007844F20046C007C5F602069A
:103A800022D12078800740F1BC80306910F03801E5
:103A9000B06A3FD0182908BF5FEA80703AD0E0686A
:103AA0003168002862D021F0190108433060FEF728
:103AB000E7FA05463068400748D4FEF7E1FA401BB4
:103AC0000228F7D977E100BF306900F03801B06A09
:103AD000102905D018290BD100F00300022807D1C6
:103AE00030688003CDD560680028CAD124E100BFCA
:103AF000606800284CD0B0F5A02F61D0B0F5803FB1
:103B000062D0306820F480303060306820F480204B
:103B10005DE000BF30684007E06802D5002800F093
:103B20000B81316821F0190108433060FEF7A8FAD3
:103B3000054600BF3068400708D4FEF7A1FA401BD5
:103B400002284FF00300F5D921E200BFFEF790FAFA
:103B500041F20301884249D820697168402821F464
:103B60007C314BD141F400304AE000BF21F001002C
:103B70003060FEF785FA05463068400741D5FEF70C
:103B80007FFA401B02284FF00300F5D9FFE100BF88
:103B9000306820F480303060306820F4802030605D
:103BA000FEF76EFA054600BF306880037FF569AF07
:103BB000FEF766FA401B64284FF00300F4D9E6E1F3
:103BC000306840F480203060306840F480303060ED
:103BD000FEF756FA054600BF306880033FF551AF47
:103BE000FEF74EFA401B6428F6D9E4E070682169BC
:103BF00020F0FE4040EA016002E000BF41EA0030F0
:103C000070602078C00654D5306900F03801B06A81
:103C1000082905D0182919D100F00300012815D171
:103C20003068C00503D5E069802840F08580FEF744
:103C30001FFA41F2030188421ED8206A71682028C9
:103C400021F0F84132D141F0804031E0E0690028B4
:103C5000306819D040F080003060FEF711FA054658
:103C60003068C005E3D4FEF70BFA401B02284FF082
:103C70000300F5D98BE100BFF068216A20F07C5089
:103C800040EA0160F06014E020F080003060FEF750
:103C9000F7F905463068C0050BD5FEF7F1F9401B72
:103CA00002284FF00300F5D971E100BF41EA8060BE
:103CB00070602078000743D42078800654D42078A0
:103CC000400765D4656A9DB3306900F03800182854
:103CD00040F0A880012DB16A306B2DD001F00302B5
:103CE000A36A9A4228D1C1F30511E26A914223D115
:103CF0000146226B6FF35F21013A91421CD1C0F360
:103D00004622616B01398A4216D1C0F30642A16B8B
:103D100001398A4210D1C0F30660E16B0139884253
:103D20000AD1706BA16CC0F3CC00814240F03281AB
:103D3000002001B0F0BD00BF012001B0F0BD00BF08
:103D400060690028706F39D040F001007067FEF79D
:103D500097F90546706F8007AED4FEF791F9401BC6
:103D60000228F7D927E000BFA0690028306847D0B3
:103D700040F480503060FEF783F9054630688004D7
:103D80009DD4FEF77DF9401B0228F7D913E000BF50
:103D9000D6F8000440F48070C6F80004FEF770F90D
:103DA000054600BFD6F80004C00519D4FEF768F92F
:103DB000401B6428F6D9032001B0F0BD20F00100BB
:103DC0007067FEF75DF90546706F80077FF574AF89
:103DD000FEF756F9401B02284FF00300F4D9D6E055
:103DE000A068002840D0052858D001285AD0306F4C
:103DF00020F001003067306F20F0040055E000BF74
:103E000020F480503060FEF73BF9054630688004AE
:103E10007FF555AFFEF734F9401B02284FF0030041
:103E2000F4D9B4E0306820F080703060FEF728F9F3
:103E3000022D05460CD100BF3068800148D5FEF741
:103E40001FF9401B02284FF00300F5D99FE000BF87
:103E5000306880017FF56CAFFEF712F9401B022835
:103E60004FF00300F4D992E0306F20F0010030678A
:103E7000306F20F004003067FEF702F9054641F28A
:103E80008837306F80077FF51DAFFEF7F9F8401BCC
:103E9000B8424FF00300F4D979E000BF306F40F032
:103EA00004003067306F40F001003067FEF7E8F83B
:103EB000054641F2883700BF306F80073FF502AFFB
:103EC000FEF7DEF8401BB8424FF00300F4D95EE085
:103ED00004F12807B06A40F2F33188438ECF0843DB
:103EE000591E40EA02104FF47E426FF35F21B06228
:103EF00002EB47204FF4FE0280B2E36B0844A16B53
:103F000002EB01414FF0FE4201F4FE0102EB0362BD
:103F1000084402F0FE4108443063F06A4FF6F8713D
:103F200020F00100F062706BA26C884340EAC2008E
:103F30007063F06A216C20F00C000843F062F06AB4
:103F4000616C20F002000843F062F06A40F48030B7
:103F5000F062F06A40F40030F062F06A40F48020D1
:103F6000F062F06A40F00100F062306840F080706A
:103F70003060FEF785F80446306880013FF5D8AE22
:103F8000FEF77EF8001B02284FF00300F4D901B0C1
:103F9000F0BD00BFF06A20F00100F062FEF770F89B
:103FA0000546FEF76DF8A842FBD0706B4FF6F8712E
:103FB000A26C884340EAC2007063F06A40F00100DE
:103FC000F062002001B0F0BD411E0020B0EB116F87
:103FD00002D00120704700BF4EF21002F023CEF253
:103FE000000251604EF62351CEF200010B70072102
:103FF00090601160704700007047000000000000F2
:104000007047000000000000704700000000000042
:10401000B0B590F83C20012A4FF002025BD080F846
:104020003D2040F2004C0268C4F2010C42F480636F
:1040300063455368D2F808E002BF23F470034C686C
:10404000234341F2FF740D68C4F2000423F07003AF
:10405000A24243EA050353600CDC40F2FF73C4F252
:1040600000039A4216DCB2F1804F29D040F200439F
:1040700018E000BF40F2FF33C4F201039A4217DC9C
:1040800041F60003C4F200039A4219D00023C4F29F
:10409000010309E040F60003C4F200039A420FD086
:1040A00040F60043C4F200039A4209D00DE000BF7D
:1040B00044F20003C4F201039A4201D0624504D1E4
:1040C0002EF080038968194391600022012180F855
:1040D0003D1080F83C201046B0BD000000000000FC
:1040E00060B310B5044690F83D0028B9002084F86C
:1040F0003C00204600F024F8022084F83D002068AF
:10410000211D03F011FA012084F8480084F83E00D4
:1041100084F83F0084F8400084F8410084F84200AD
:1041200084F8430084F8440084F8450084F846008D
:1041300084F8470084F83D00002010BD012070473E
:1041400080B582B040F600410068C4F200018842A8
:104150001CBF02B080BD44F2E8400022C5F6020058
:10416000016841F0080101600068002100F00800CA
:10417000019001983220FEF7E3FA322002B0BDE848
:104180008040FEF7C9BA000090F83D1001291BD10C
:10419000022180F83D10016841F2FF70C4F2000076
:1041A0008142C86840F00100C8600FDC40F2FF7037
:1041B000C4F20000814217DCB1F1804F2CD040F2F4
:1041C0000040C4F2000025E00120704740F2FF30BB
:1041D000C4F20100814213DC41F60000C4F2000089
:1041E000814219D0002013E040F60000C4F2000024
:1041F000814211D040F60040C4F200000AE000BF46
:1042000044F20000C4F20100814205D040F20040B7
:10421000C4F2010081420BD107228868C0F201027A
:1042200002400020062A18BFB2F5803F00D1704737
:10423000086840F00100086000207047000000009E
:1042400080B590F83C20012A4FF0020200F0A780D0
:1042500080F83D208822D0F800C0CFF6CE72DCF87E
:1042600008301A40CCF808200B686F2B0EDDB3F134
:10427000101F37DAB3F5005F46DA702B00F092803A
:10428000B3F5805F00F08480D6E000BF2F2B33DDD4
:104290004F2B3FDC302B6FD0402B40F0CD80D1F83E
:1042A00004E0C968DCF82030DCF8202022F00102AC
:1042B000CCF82020DCF8182022F0F00242EA0111AC
:1042C00023F00A02CCF8181042EA0E01CCF82010B4
:1042D0004FF68872DCF80810CFF6CF7211404731E4
:1042E00054E000BF2F21C0F210018B423ADCB3F141
:1042F000101F41D020213BE0002B18BF102B3BD0DA
:10430000202B39D098E000BF60D0B3F5801F33D0A8
:1043100092E000BF502B6DD0602B40F08D80D1F823
:1043200004E0C968DCF82030DCF8202022F010021C
:10433000CCF82020DCF8182022F4704242EA013147
:1043400023F0A002CCF8181042EA0E11CCF820108D
:104350004FF68872DCF80810CFF6CF721140673143
:1043600014E000BF3021C0F210018B4204D0402184
:10437000C0F210018B425FD14FF68872DCF8081052
:10438000CFF6CF721140194341F00701CCF8081065
:104390000022012180F83D10002180F83C101046D9
:1043A00080BD00BFD1E901E3C968DCF8082043EA19
:1043B0000E0322F47F4243EA01211143CCF8081096
:1043C000DCF8081041F07701E0E700BFD1E901E334
:1043D000C968DCF8082043EA0E0322F47F4243EA6E
:1043E00001211143CCF80810DCF8081041F4804199
:1043F000CCE700BFD1F804E0C968DCF82030DCF875
:10440000202022F00102CCF82020DCF8182022F035
:10441000F00242EA011123F00A02CCF8181042EA35
:104420000E01CCF820104FF68872DCF80810CFF699
:10443000CF7211405731A9E70122AAE7000000001E
:10444000002857D02DE9F04381B0044690F83D0094
:104450000D4628B9002084F83C00204600F04CF8B6
:10446000022084F83D0020684BF6F872CFF6FE7209
:10447000816811408160211D03F056F820684FF6D5
:10448000FF79D0F808808269D0F820C0AF69D5E9FB
:10449000026122EA090246EA07264FF6FC47BE43BC
:1044A000EF6911432A6931432E6A41EA07216F6996
:1044B000D5E9003E41EA02112CF0AA0242EA0E02BE
:1044C00043EA080341EA06318360816142EA071149
:1044D0000162012084F8480084F83E0084F83F001F
:1044E00084F8440084F8450084F83D00002001B0C1
:1044F000BDE8F0830120704710B586B040F6000299
:104500000068C4F20002002190420591CDE9031138
:10451000CDE9011122D040F20041C4F200018842ED
:104520004CD144F2E0401D24C5F60200816841F000
:1045300002018160816801F0020100910099016827
:1045400041F0010101600068C02100F0010000900D
:1045500000980020C5F602001EE000BF44F2E040D3
:104560001E24C5F60200816841F004018160816863
:1045700001F0040100910099016841F00801016017
:10458000006800F00800009000200099C5F60200C5
:104590004FF4405100F54060019102210291002248
:1045A000059101A9CDE90322FDF772FC002100224B
:1045B0002046FEF7C5F82046FEF7AEF806B010BD5F
:1045C00080B590F83E20042990F83F3090F844E000
:1045D00090F845C00AD0B9B9012A4FF0010208BFCE
:1045E000BEF1010F34D0104680BD00BF0122012B67
:1045F00008BFBCF1010FF6D1022180F83F1080F80E
:104600004510006820E000BF012A4FF0010208BFFA
:10461000012BE8D1BEF1010F08BFBCF1010FE2D1BF
:104620004FF0020280F83E2080F83F2080F84420BE
:1046300080F8452089B10068016A21F0010101621A
:10464000016A41F00101016210216FF0100208E0DF
:10465000022180F83E1080F84410006801216FF0BC
:104660000102036A1A400262026A11430162016890
:10467000002241F001010160104680BD00000000F1
:104680007047000000000000F0B581B004460068EB
:10469000C5680669B10717D515F0020114D06FF08F
:1046A00002010161012121778069800704D0204641
:1046B000FFF7E6FF06E000BF204600F09DF8204629
:1046C00000F046FB00202077700719D515F0040094
:1046D00016D020686FF00401016102212177806902
:1046E00010F4407F04D02046FFF7CAFF06E000BF69
:1046F000204600F081F8204600F02AFB00202077B9
:10470000300717D515F0080014D020686FF00801A5
:10471000016104212177C069800703D02046FFF79B
:10472000AFFF05E0204600F067F8204600F010FBE0
:1047300000202077F00619D515F0100016D020685B
:104740006FF01001016108212177C06910F4407FEA
:1047500004D02046FFF794FF06E000BF204600F09B
:104760004BF8204600F0F4FA00202077F00718BF3D
:1047700015F0010006D020686FF0010101612046AC
:1047800000F0B2FB05F0800716F4025F18BF002F9F
:1047900002D1F00509D410E020686FF402510161E4
:1047A0002046FFF72DFCF00507D537B120686FF4E0
:1047B000807101612046FFF71FFC700609D515F0D6
:1047C000400006D020686FF040010161204600F0F3
:1047D000FFFDB0060CD515F0200009D020686FF061
:1047E00020010161204601B0BDE8F040FFF70CBC9C
:1047F00001B0F0BD000000007047000000000000A4
:104800002DE9F04190F83C30012B03D10220BDE8A6
:10481000F08100BF4FEAB202052A31D8DFE812F07A
:10482000060038007600B400DA000001036843F6A1
:10483000FF76C4F201061C6AB3421A6A24F002042D
:1048400022F001021A621A46D3F804E052F818CF97
:104850008D6844EA0504D1F8008040F3078144F2F2
:104860000007C4F20107BB4200F00B8144F60007C9
:10487000C4F20107BB4200F0048144F20047FCE0AF
:104880000121002280F83C200846BDE8F08100BFED
:10489000036840F2004E43F48067C4F2010E1C6AC4
:1048A00077451A6A24F0200422F010021A621A4690
:1048B0005D6852F818CF8E6844EA061407D1CE68B6
:1048C0006FF0400724F0C00407EA0616344343F6AD
:1048D000FF76D1F80080C4F20106B34240F3EC80C9
:1048E00044F20007C4F20107BB4200F0EC8044F63A
:1048F0000007C4F20107BB4200F0E58044F2004724
:10490000C4F20107BB4200F0DE80E3E0036840F23E
:10491000004E43F48067C4F2010E1C6A77451A6AA0
:1049200024F4007422F480721A621A465D6852F808
:104930001CCF8E6844EA062407D1CE6840F2FF47B8
:10494000360224F44064BE43344343F6FF76D1F884
:104950000080C4F20106B34240F3D48044F2000761
:10496000C4F20107BB4200F0D48044F60007C4F251
:104970000107BB4200F0CD8044F20047C4F20107BA
:10498000BB4200F0C680CBE0036843F6FF77C4F279
:104990000107D3F820C0BB421A6A22F480521A627F
:1049A0001A465C6852F81C6F0D68D1F808E040F3B5
:1049B000CF8044F20007C4F20107BB4200F0D3806D
:1049C00044F60007C4F20107BB4200F0CC8044F279
:1049D0000047C4E0036843F6FF77C4F20107D3F849
:1049E00020C0BB421A6A22F480321A621A465C68FE
:1049F00052F8546F0D68D1F808E040F3D38044F2C8
:104A00000007C4F20107BB4200F0D78044F600075C
:104A1000C4F20107BB4200F0D08044F20047C8E076
:104A2000036843F6FF77C4F20107D3F820C0BB4206
:104A30001A6A22F480121A621A465C6852F8546F9D
:104A40000D68D1F808E040F3D98044F20007C4F2C1
:104A50000107BB4200F0DD8044F60007C4F2010705
:104A6000BB4200F0D68044F20047CEE00027C4F2FB
:104A70000107BB4205D040F20047C4F20107BB4228
:104A800005D1CF6824F00C0427F004073C43B3425F
:104A900040F3E28044F20006C4F20106B34200F0A3
:104AA000E68044F60006C4F20106B34200F0DF805F
:104AB00044F20046D7E000BF0027C4F20107BB4222
:104AC00001D0734506D1D1E90576374325F4406618
:104AD00046EA870548F6FF475D60CFF6FF6707EABD
:104AE0000C0747EA08279F614F6809699F631C62AA
:104AF0009F6947F400679F619F6927F480679F6102
:104B0000A7E000BF0027C4F20107BB4201D07345F4
:104B100006D1D1E90576374325F4405646EA071514
:104B20004FF68C775D60CFF6FE7707EA0C0747EA11
:104B30000807DF614F680969DF631C62DF6947F0BE
:104B40000807DF61DF6927F00407DF61ADE000BF20
:104B50000027C4F20107BB4205D040F20047C4F26F
:104B60000107BB4204D14F6924F4804444EA87140E
:104B700048F6FF475C60CFF6FF673E402CF40057D5
:104B800046EA0524DC614E6809691E6447EA0E376F
:104B90001F62DF6947F40067DF61DF6927F4806720
:104BA000DF6156E00027C4F20107BB4205D040F2A6
:104BB0000047C4F20107BB4204D14F6924F480349A
:104BC00044EA07244FF68C775C60CFF6FE77033714
:104BD0003E402CF4003746EA05045C654E680969DE
:104BE0009E6547EA0E471F625F6D47F008075F65E5
:104BF0005F6D27F004075F6557E000BF0027C4F230
:104C00000107BB4205D040F20047C4F20107BB4296
:104C100004D14F6924F4802444EA872448F6FF47EE
:104C20005C60CFF6FF6707F540773E402CF4001735
:104C300046EA05245C654E680969DE6547EA0E5759
:104C40001F625F6D47F400675F655F6D27F48067E3
:104C50005F65090229E000BF0026C4F20106B342E5
:104C600005D040F20046C4F20106B34206D12EF44C
:104C70004077D1E90565374347EA050E4FF68C7555
:104C8000C3F804E0CFF6FE750CEA050747EA08070B
:104C90009F614F6809695F631C629F6947F008075D
:104CA0009F619F6927F004079F6113681943116092
:104CB0000021002280F83C200846BDE8F081000079
:104CC00060B310B5044690F83D0028B9002084F880
:104CD0003C00204600F024F8022084F83D002068C3
:104CE000211D02F021FC012084F8480084F83E00D8
:104CF00084F83F0084F8400084F8410084F84200C2
:104D000084F8430084F8440084F8450084F84600A1
:104D100084F8470084F83D00002010BD0120704752
:104D200081B00068B0F1804F02D001B0704700BF81
:104D300044F2E840C5F60200016841F0010101605B
:104D4000006800F001000090009801B0704700007A
:104D5000704700000000000071B10A1F4FEAB20264
:104D6000032A11D8DFE802F002161E2400F13F03E7
:104D70001B78012B13D120E090F83E20012A0ED1A0
:104D8000022280F83E2032E000F143031B78012B21
:104D900005D112E000F140031B78012B0DD001205A
:104DA000704700BF00F141031B78012B05D0F6E7E7
:104DB00000F142031B78012BF1D1032A08D8DFE868
:104DC00002F0030B0F1300BF022280F83F200EE019
:104DD000022280F843200AE0022280F8402006E008
:104DE000022280F8412002E0022280F8422002687C
:104DF00001F01F00012101FA00F0116A81431162E4
:104E00004FF6FF71C4F200018A42116A40EA0100C4
:104E1000106219DC40F2FF70C4F2000082422FDD04
:104E200040F60000C4F20000824243D040F6004049
:104E3000C4F2000082423DD041F60000C4F20000FE
:104E4000824237D048E000BF43F6FF700021C4F231
:104E50000100C4F20101824244F20000C4F20100E8
:104E600018DD82421ED044F60003C4F201039A42C8
:104E700018D044F20043C4F201039A4212D02BE04E
:104E8000B2F1804F16D040F20040C4F200008242DE
:104E900010D021E08A4205D040F20043C4F2010361
:104EA0009A4219D1536C8A4243F40041516418BFAD
:104EB00082420BD107219068C0F20101014000201D
:104EC000062918BFB1F5803F06D1704740F2004077
:104ED000C4F201008242EDD0106840F00100106081
:104EE0000020704700000000B0B540F2A821C2F2D7
:104EF000004188420CD040F2F421C2F200418842C5
:104F00001AD040F24031C2F20041884228D0B0BDF0
:104F100040F25010C2F2004090ED000A40F24810FA
:104F2000C2F20040B5EE400AF1EE10FA016813DA61
:104F300001390160B0BD00BF40F25410C2F2004020
:104F400090ED000A40F24C10C2F20040B5EE400A6B
:104F5000F1EE10FA0168EBDB01310160B0BD00BF7A
:104F600004F0AAFD40F2B805C2F20045A878052871
:104F700014D140F25004C2F200442168481C0828B1
:104F800058D8DFE800F00F051B5757575757050053
:104F90005320BDE8B04004F017B900BF0130A8703D
:104FA000B0BD00BF40F210000021C2F2004001601D
:104FB00040F21400C2F200400160B0BD2879002820
:104FC000E86969D02844007E422800F087804128A3
:104FD00040F08080A879002840F0AC8040F22001A9
:104FE000286AC2F2004100F52F720968914280F2EE
:104FF000A18040F224016A6AC2F200410B6802F506
:105000002F718B4280F2968000F6421001EE101A4A
:1050100000EE100AF8EEC10AB8EEC00A04F0C8F8B3
:105020002168532004F0D0F8A87901287FF46FAFED
:1050300082E000BF21F0040002280FD195ED080A9C
:1050400095ED091AB8EEC00AF8EEC10A04F0B0F8FE
:1050500004F01EF8BDE8B04004F062B803297FF404
:1050600056AFA87903283FF652AFDFE810F00500ED
:105070002D016301990100BF40F2200040F224019C
:10508000C2F20040C2F2004100682862086868620B
:105090000120A871B0BD00BF2844C07D422800F0A7
:1050A0009780412816D140F22000296AC2F20040C0
:1050B000026801F52F70824280F2A48040F224023F
:1050C000696AC2F2004201F52F7312689A42C0F277
:1050D000938098E000202060B0BD00BFA879002830
:1050E0004ED140F22000296AC2F20040026801F568
:1050F0002F70824244DA40F22402696AC2F200420E
:1051000001F52F7312689A423ADA00EE100A01F69E
:10511000421001EE100AB8EEC00AF8EEC10A04F01F
:1051200047F82168532004F04FF8A87901287FF44C
:10513000EEAE27E00120A87103F0AAFF03F0F0FF14
:1051400040F29010C2F2004090ED000A20EE001AEA
:105150009FED9E0AB4EE401AF1EE10FABFF6D7AEFC
:1051600040F2A410C2F2004090ED001A21EE011AA4
:10517000B4EE401AF1EE10FABFF6C9AE24E000BF5B
:105180000120A87103F084FF03F0CAFF40F29010E1
:10519000C2F2004090ED000A20EE001A9FED8B0A4B
:1051A000B4EE401AF1EE10FABFF6B1AE40F2A41020
:1051B000C2F2004090ED001A21EE011AB4EE401A3E
:1051C000F1EE10FABFF6A3AE0020A8712060B0BDCA
:1051D00040F22001286AC2F2004100F52F720968EE
:1051E00091423FDA40F224016A6AC2F200410B6840
:1051F00002F52F718B4238DA53200121BDE8B0400F
:1052000003F0E2BF696A00EE100A01F6421001EEF7
:10521000100AB8EEC00AF8EEC10A03F0C9FF03F0A5
:1052200037FF03F07DFF40F29010C2F2004090ED96
:10523000000A20EE001A9FED650AB4EE401AF1EE66
:1052400010FABFF664AE40F2A410C2F2004090ED36
:10525000001A21EE011AB4EE401AF1EE10FABFF670
:1052600056AEAFE0696A01F52F7100F6421001EE0B
:10527000101A00EE100AF8EEC10AB8EEC00A03F0E8
:1052800097FF03F005FF03F04BFF40F29010C2F2CE
:10529000004090ED000A20EE001A9FED4C0AB4EE9B
:1052A000401AF1EE10FABFF632AE40F2A410C2F28C
:1052B000004090ED001A21EE011AB4EE401AF1EE12
:1052C00010FABFF624AE7DE0286A696A00F2DC506D
:1052D00000EE100A01F2DC5001EE100AB8EEC00A2E
:1052E000F8EEC10A03F064FF03F01AFF03F0D0FEEA
:1052F00040F29010C2F2004090ED000A20EE001A39
:105300009FED320AB4EE401AF1EE10FABFF6FFAD8F
:1053100040F2A410C2F2004090ED001A21EE011AF2
:10532000B4EE401AF1EE10FABFF6F1AD0220A8710A
:10533000B0BD00BF286A696A00F2DC5000EE100AB6
:10534000A1F1AA0001EE100AB8EEC00AF8EEC10AF7
:1053500003F02EFF03F0E4FE03F09AFE40F29010FB
:10536000C2F2004090ED000A20EE001A9FED170AED
:10537000B4EE401AF1EE10FABFF6C9AD40F2A41037
:10538000C2F2004090ED001A21EE011AB4EE401A6C
:10539000F1EE10FABFF6BBAD0320A871B0BD00BF9F
:1053A00003F0BEFE40F210002969C2F20040002264
:1053B0000029C4F27022026018BFB0BD012028711C
:1053C0000020A87107202060B0BD00BF0000484346
:1053D000704700000000000090F88410012901D1FE
:1053E000022070472421C0F88810026813681168F1
:1053F00023F0005321F00101116000214166136088
:105400002022C0F8882080F88410084670470000E9
:10541000704700000000000070470000000000001E
:1054200070B590F88420012A02D1022070BD00BF1F
:105430002422C0F888200268D0F864E0BEF1000F92
:10544000D2F800C0136823F001031360936823F0BF
:10545000606341EA030191601AD091684BF2940EA7
:105460009368C0F6000E5B0F4BF29C05C1F34266D9
:10547000C0F600051EF80340E95C2301B3FBF1F11F
:105480001EF80630AE5D1B01B3FBF6F302E000BF71
:1054900001210123A0F86A102021A0F86830C2F889
:1054A00000C0C0F88810002180F88410084670BD44
:1054B00070B590F88420012A02D1022070BD00BF8F
:1054C0002422C0F888200268D0F864E0BEF1000F02
:1054D000D2F800C0136823F001031360936823F02F
:1054E000604341EA030191601AD091684BF2940E37
:1054F0009368C0F6000E5B0F4BF29C05C1F3426649
:10550000C0F600051EF80340E95C2301B3FBF1F18E
:105510001EF80630AE5D1B01B3FBF6F302E000BFE0
:1055200001210123A0F86A102021A0F86830C2F8F8
:1055300000C0C0F88810002180F88410084670BDB3
:1055400070470000000000007047000000000000ED
:10555000704700000000000070B50446006840F687
:105560002F01C26911402029016886680ED101F01F
:10557000200306F080555B191AD0616F002900F0F6
:105580007D802046BDE87040084700BF40F60F030D
:105590001A420DD0012340F22015C1F20003C0F2DF
:1055A000004506EA030C01EA050313EB0C0367D17F
:1055B000E36E012B05D112F0100318BF11F0100398
:1055C0004CD1D3020AD516F4800307D04FF48011D2
:1055D00001622046BDE87040FFF7B6BF100606D551
:1055E00001F0800006F40003C01840F0A1815006CD
:1055F0006ED511F040006BD0206850E8000F216894
:1056000020F0400041E80002F2B1206850E8000FAD
:10561000216820F0400041E80002002A1FBF2068F6
:1056200050E8000F216820F040001CBF41E8000254
:10563000002A09D0206850E8000F216820F04000BF
:1056400041E80002002AD7D12020C4F888000020B9
:10565000A0672046BDE8704000F066BD10210162E1
:105660008068400616D4B4F85C00B4F85E10B4F854
:105670005E20002A18BF884240F08A8170BD00BFBA
:10568000D30718BF11F480732ED1930706F0010ED3
:1056900036D440E0D4F8800040F20F42C4F2020257
:1056A0000168914200F34A816F22C4F202029142E2
:1056B00000F3F6813F22C4F20202914200F30C8211
:1056C0001022C4F20202914200F02B82282225E22D
:1056D000100240F14B8111F0804000F047812046DC
:1056E000BDE87040FFF72CBF01230362D4F890306F
:1056F00043F00103C4F89030930706F0010E0AD579
:10570000BEF1000F07D002230362D4F8903043F0BB
:105710000403C4F8903053070AD5BEF1000F07D038
:1057200004230362D4F8903043F00203C4F89030AD
:1057300013070CD501F0200353EA0C0307D008230C
:105740000362D4F8903043F00803C4F89030130596
:105750000BD511F0806308D04FF400630362D4F8D6
:10576000903043F02003C4F89030D4F89030002BF0
:105770003FF484AF12F020020AD001F0200106F0BD
:105780008052891804D0616F11B120468847206883
:10579000D4F89010806800F0400001F02801401813
:1057A00006D12046FFF7D4FE0020C4F8900070BD5B
:1057B000206850E8000F216820F4907041E8000252
:1057C000F2B1206850E8000F216820F4907041E8A1
:1057D0000002002A1FBF206850E8000F216820F453
:1057E00090701CBF41E80002002A09D0206850E8F0
:1057F000000F216820F4907041E80002002AD7D100
:105800004FF6FE70CEF6FF70216851E8021F226845
:10581000014042E80213DBB1216851E8021F22680F
:10582000014042E80213002B1FBF216851E8021F0C
:10583000226801401CBF42E80213002B08D02168F7
:1058400051E8021F2268014042E80213002BDBD11D
:10585000E06E012827D1206850E8000F216820F071
:10586000100041E80002F2B1206850E8000F216802
:1058700020F0100041E80002002A1FBF206850E815
:10588000000F216820F010001CBF41E80002002A30
:1058900009D0206850E8000F216820F0100041E88E
:1058A0000002002AD7D12020C4F88C000020E06636
:1058B000216860678868400664D5206850E8020F58
:1058C000216820F0400041E80202F2B1206850E86F
:1058D000020F216820F0400041E80202002A1FBFA9
:1058E000206850E8020F216820F040001CBF41E80A
:1058F0000202002A09D0206850E8020F216820F037
:10590000400041E80202002AD7D1D4F88000C8B391
:1059100047F6E901C0F600010165FCF745F90028EA
:105920003FF4ACAED4F88000016DBDE8704008478C
:10593000A16F00297FF425AEA0E600BF40F26F42C0
:10594000C4F20202914200F3B78040F23F42C4F237
:105950000202914200F3C88040F21042C4F20202F7
:10596000914200F0DE8040F22842D7E0D0017FF57E
:1059700085AEB1F1FF3FC8BF70BD2046BDE87040A5
:10598000FFF74ABD2046BDE87040FFF7E1BD00BF0C
:10599000401A216851E8001F226821F4907142E802
:1059A0000013F3B1216851E8001F226821F49071BF
:1059B00042E80013002B1FBF216851E8001F226836
:1059C00021F490711CBF42E80013002B09D021681C
:1059D00051E8001F226821F4907142E80013002B67
:1059E000D7D14FF6FE71CEF6FF71226852E8022F32
:1059F00023680A4043E80226DEB1226852E8022FFB
:105A000023680A4043E80226002E1FBF226852E89E
:105A1000022F23680A401CBF43E80226002E08D04C
:105A2000226852E8022F23680A4043E80226002E2B
:105A3000DBD12021C4F88C100021E1666167216868
:105A400051E8001F226821F0100142E80013F3B171
:105A5000216851E8001F226821F0100142E800137C
:105A6000002B1FBF216851E8001F226821F01001A0
:105A70001CBF42E80013002B09D0216851E8001F29
:105A8000226821F0100142E80013002BD7D181B227
:105A9000022020672046BDE87040FFF7B9BC00BF78
:105AA0009F22C4F20202914228DC7022C4F2020258
:105AB000914236D0882231E040F29F42C4F2020285
:105AC000914223DC40F27042C4F20202914228D09B
:105AD00040F2884222E000BF4022C4F2020291421A
