:020000040800F2
:10000000E0080024AD020008015A0008B1500008C1
:10001000F959000851040008417D00080000000063
:1000200000000000000000000000000099620008CD
:10003000590400080000000041600008A1620008A7
:10004000C7020008C7020008C7020008C70200086C
:10005000C7020008C7020008C7020008C70200085C
:10006000C7020008C7020008C7020008C70200084C
:10007000C7020008C7020008C7020008C70200083C
:10008000C7020008C7020008C7020008C70200082C
:10009000C7020008C7020008C7020008C70200081C
:1000A000C7020008C7020008C7020008C70200080C
:1000B000C7020008B9640008C9640008C702000844
:1000C000C7020008C7020008C7020008C7020008EC
:1000D000C7020008117D0008217D0008C702000842
:1000E000C7020008C702000800000000C70200089D
:1000F000C7020008C7020008C7020008C7020008BC
:10010000C7020008C7020008D9640008C702000837
:10011000C7020008C7020008C7020008C70200089B
:10012000C7020008C7020008C7020008C70200088B
:10013000C7020008C7020008C7020008C70200087B
:1001400000000000000000000000000000000000AF
:10015000C7020008C7020008C7020008317D000876
:10016000C7020008C7020008C7020008C70200084B
:10017000C7020008C7020008C7020008C70200083B
:10018000C7020008C7020008C7020008C70200082B
:10019000C7020008C7020008C7020008C70200081B
:1001A000C7020008C7020008C7020008C70200080B
:1001B000C7020008C7020008C7020008C7020008FB
:1001C000C7020008C7020008C7020008C7020008EB
:1001D000C7020008C7020008C7020008C7020008DB
:1001E000C7020008C7020008C7020008C7020008CB
:1001F000C7020008C7020008C7020008C7020008BB
:10020000C7020008C7020008C7020008C7020008AA
:10021000C7020008C7020008C7020008C70200089A
:10022000C7020008C7020008C7020008000000005B
:10023000C7020008C702000800000000C70200084B
:10024000C7020008C7020008C7020008C70200086A
:10025000C7020008C7020008C7020008C70200085A
:10026000C7020008C7020008C7020008C70200084A
:10027000C7020008C7020008C7020008000000000B
:10028000C7020008C7020008C702000800000000FB
:1002900000000000C7020008DFF80CD000F0C0F832
:1002A0000048004761820008E008002406488047B3
:1002B00006480047FEE7FEE7FEE7FEE7FEE7FEE74B
:1002C000FEE7FEE7FEE7FEE7E963000899020008A3
:1002D0002DE9F05F0546002092469B46884606467B
:1002E000814640241BE0284641464746224600F00E
:1002F0004FF853465A46C01A914110D3114618463A
:10030000224600F036F82D1A67EB01084F462246C8
:100310000120002100F02DF817EB00094E41201EAE
:10032000A4F10104DFDC484631462A464346BDE8D5
:10033000F09FD2B201E000F8012B491EFBD27047BA
:100340000022F6E710B513460A4604461946FFF7A1
:10035000F0FF204610BD30B4044696230800214625
:1003600004D0B62330BC002200F02BB82046002178
:10037000F8E7202A04DB203A00FA02F10020704757
:100380009140C2F1200320FA03F3194390407047D3
:10039000202A04DB203A21FA02F00021704721FADA
:1003A00002F3D040C2F12002914008431946704741
:1003B0000029A8BF7047401C490008BF20F0010079
:1003C000704710B4B0FA80FC00FA0CF050EA010457
:1003D00004BF10BC704749B1CCF1200421FA04F4E9
:1003E00011FA0CF118BF012121430843A3EB0C01C2
:1003F000CB1D4FEA00614FEA102042BF002010BC25
:10040000704700EBC35010440029A4BF10BC7047D4
:10041000401C490008BF20F0010010BC70470000DC
:100420001CB509480090094801900546009C06E06B
:10043000E06840F0010394E8070098471034AC42AC
:10044000F6D3FFF72DFF0000CC940008EC940008D1
:10045000FEE7000000000000704700000000000000
:10046000EFF3108072B600BFFEE70000000000004E
:100470002DE9F041044600F0EFFC1CB3054694F86A
:100480003500022822D140F20F462768C4F2020646
:1004900040F26F48B7426FF00E00C4F202081DDC54
:1004A0006F21C4F202018F422ADC3F21C4F2020113
:1004B0008F4241DC1021C4F202018F4263D0282117
:1004C0005CE000BF0120BDE8F08100BF80206065D6
:1004D0000120002184F83410BDE8F08147451BDC81
:1004E00040F23F41C4F202018F422DDC40F2104144
:1004F000C4F202018F4246D040F228413EE000BFE4
:100500009F21C4F202018F4228DC7021C4F2020153
:100510008F4238D0882131E040F29F41C4F202017D
:100520008F4223DC40F27041C4F202018F422AD094
:1005300040F2884122E000BF4021C4F202018F4214
:1005400021D058211AE000BF40F24041C4F202011C
:100550008F4218D040F2584110E000BFA021C4F2F1
:1005600002018F420FD0B82108E000BF40F2B8412D
:10057000C4F202018F4206D040F2A041C4F202014F
:100580008F42394607D13946386820F01E0041F8BD
:10059000140B6FF080000A68474500EA020008600B
:1005A0001ADC9F20C4F20200874233DC5720C4F2D9
:1005B000020087425ADC1020C4F20200874200F099
:1005C00097802820C4F20200874200F091804020EA
:1005D000C4F202008AE000BF45F22F40C5F60200D7
:1005E00087422DDC40F2B740C4F2020087424BDC68
:1005F00040F27040C4F20200874279D040F2884055
:10060000C4F20200874273D040F2A040C4F202005C
:100610006CE000BF40F22740C4F20200874243DC96
:10062000A020C4F20200874262D0B820C4F20200C7
:1006300087425DD040F21040C4F2020056E000BF95
:1006400045F26B40C5F6020087423FDC45F2304080
:10065000C5F6020087424BD045F24440C5F6020081
:10066000874245D045F258403EE000BF5820C4F2D2
:10067000020087423CD07020C4F20200874237D08B
:100680008820C4F2020031E040F2B840C4F2020017
:1006900087422DD045F20840C5F60200874227D098
:1006A00045F21C4020E000BF40F22840C4F20200A6
:1006B00087421DD040F24040C4F20200874217D06A
:1006C00040F25840C4F2020010E000BF45F26C4016
:1006D000C5F6020087420BD045F29440C5F60200F1
:1006E000874205D045F28040C5F60200874204D11A
:1006F000206E016821F480710160386820F00100EB
:10070000386000BF3868C00710D000F0A5FB401B60
:100710000628F7D320206065032084F835000120E7
:10072000002184F83410BDE8F08100BF2068B04299
:1007300010DC6F21C4F2020188421DDC3F21C4F2AB
:100740000201884234DC1021C4F20201884255D0F3
:1007500028214FE040451BDC40F23F41C4F202013A
:1007600088422DDC40F21041C4F20201884245D09B
:1007700040F228413EE000BF9F21C4F202018842BE
:1007800028DC7021C4F20201884237D0882131E090
:1007900040F29F41C4F20201884223DC40F27041E2
:1007A000C4F20201884229D040F2884122E000BF11
:1007B0004021C4F20201884220D058211AE000BF33
:1007C00040F24041C4F20201884217D040F2584141
:1007D00010E000BFA021C4F2020188420ED0B8216F
:1007E00008E000BF40F2B841C4F20201884205D0DF
:1007F00040F2A041C4F2020188425BD1D4E9161252
:1008000002F01F023F2303FA02F28A6040455BDCDC
:100810009F21C4F20201884214DC5721C4F2020174
:10082000884227DC1021C4F20201884200F0A28035
:100830002821C4F20201884200F09C804021C4F2C9
:10084000020195E040F22741C4F2020188421FDC18
:10085000A021C4F20201884200F08C80B821C4F2C9
:100860000201884200F0868040F21041C4F2020189
:100870007EE000BF5821C4F2020188427AD0702184
:10088000C4F20201884275D08821C4F202016FE0EF
:1008900040F22841C4F2020188426BD040F240414C
:1008A000C4F20201884265D040F25841C4F202010C
:1008B0005EE000BFD4E9161202F01F02012303FA22
:1008C00002F24A604045A3DD45F22F41C5F6020120
:1008D000884217DC40F2B741C4F20201884227DCAB
:1008E00040F27041C4F20201884243D040F2884194
:1008F000C4F2020188423DD040F2A041C4F202019C
:1009000036E000BF45F26B41C5F6020188421FDCAC
:1009100045F23041C5F6020188422BD045F24441F0
:10092000C5F60201884225D045F258411EE000BFBD
:1009300040F2B841C4F2020188421BD045F208419E
:10094000C5F60201884215D045F21C410EE000BFF9
:1009500045F26C41C5F6020188420BD045F2944144
:10096000C5F60201884205D045F28041C5F6020174
:1009700088420BD1616EA26EE06E4A6030B10168B0
:1009800021F480710160D4E91C014160012084F8E8
:1009900035000020002184F83410BDE8F08100000B
:1009A000F0B190F83510022918D180B540F20F420D
:1009B0000168C4F20202914214DC6F23C4F2020304
:1009C000994225DC3F23C4F2020399423CDC102308
:1009D000C4F2020399425DD0282357E0802141658B
:1009E0000120704740F26F43C4F2020399421BDCBE
:1009F00040F23F43C4F2020399422DDC40F210431F
:100A0000C4F20203994245D040F228433EE000BFC1
:100A10009F23C4F20203994228DC7023C4F202032C
:100A2000994237D0882331E040F29F43C4F2020359
:100A3000994223DC40F27043C4F20203994229D068
:100A400040F2884322E000BF4023C4F202039942EF
:100A500020D058231AE000BF40F24043C4F2020302
:100A6000994217D040F2584310E000BFA023C4F2CF
:100A7000020399420ED0B82308E000BF40F2B84309
:100A8000C4F20203994205D040F2A043C4F202032B
:100A9000994277D191424FF0040280F8352011DC61
:100AA0006F20C4F20200814222DC3F20C4F2020027
:100AB000814239DC1020C4F20200814259D0282042
:100AC00054E000BF40F26F40C4F2020081421BDCE0
:100AD00040F23F40C4F2020081422DDC40F210405F
:100AE000C4F20200814244D040F228403EE000BF00
:100AF0009F20C4F20200814228DC7020C4F2020070
:100B0000814236D0882031E040F29F40C4F202009A
:100B1000814223DC40F27040C4F20200814228D0BE
:100B200040F2884022E000BF4020C4F2020081422F
:100B30001FD058201AE000BF40F24040C4F202002B
:100B4000814216D040F2584010E000BFA020C4F20D
:100B5000020081420DD0B82008E000BF40F2B8404A
:100B6000C4F20200814204D040F2A040C4F202006C
:100B70008142086820F0010008600021BDE8804043
:100B8000084670470A6822F00E020A6045F2574292
:100B9000C5F6020291420A6822F001020A600FDCE7
:100BA00045F22F42C5F60202914219DC45F2084295
:100BB000C5F60202914229D045F21C4222E000BF54
:100BC00045F27F42C5F60202914213DC45F25842DB
:100BD000C5F60202914219D045F26C4212E000BF04
:100BE00045F23042C5F6020291420FD045F244422E
:100BF00008E000BF45F29442C5F60202914205D0DA
:100C000045F28042C5F6020291421AD1D0E9181C81
:100C1000D0E916E30A6822F480720A6003F01F012B
:100C2000012202FA01F1CEF80410816ECCF8041012
:100C3000C16E31B10A6822F480720A60D0E91C12D8
:100C40004A60012180F83510026D0021002A80F8E9
:100C5000341093D0904790E7B0B5044600F0FCF80C
:100C600040F20C010546C2F20041621C097818BF2F
:100C70000C4400BF00F0F0F8401BA042FAD3B0BD16
:100C80002DE9F04F82B00D68002D00F0C78000F113
:100C9000264242F2004402F1FF728305C5F60204C7
:100CA0000A27A04243EA922208BF0927092A40F2F4
:100CB000040C38BF1746C5F6000C4FF0000E009725
:100CC000002700260AE000BF01360D6835FA06F25B
:100CD00007F102070EF1040E00F0A080012202FAD3
:100CE00006FB15EA0B08EFD0D1F804A003220AF0A6
:100CF000030502FA07F36C1E6FEA0309012C0FD8F3
:100D00008368CC6803EA0903BC4023438360CAF3C9
:100D10000014436823EA0B03B4402343436003E019
:100D2000032D01D1032520E0C3688C6803EA090381
:100D3000BC40022D43EA0403C36016D16FF00302E6
:100D40000EF01C0502EA56030F22034402FA05FBCB
:100D5000D3F820A00C692AEA0B0AAC4044EA0A0442
:100D60001C62D1F804A00AF00305036805FA07F431
:100D700003EA09031AF4403F43EA04030360A3D0E3
:100D800044F2F44240F2084AC5F60202C5F6000AEF
:100D9000136843F00203136013680F2203F0020389
:100DA000019326F00303019C0EF00C0453F80A9003
:100DB00002FA04F5009A29EA050502FA04F44FF054
:100DC000B0492C4343F80A40D9F800304C6843EA54
:100DD0000805E20258BF23EA0805C9F80050A50239
:100DE000DCF8002042EA080358BF22EA0803A50302
:100DF000CCF80030DCF8802042EA080358BF22EA31
:100E00000803E403CCF88030DCF87C2042EA0803D5
:100E100058BF22EA0803CCF87C3055E702B0BDE8A1
:100E2000F08F0000000000000069084018BF01209A
:100E30007047000000000000002A08BF090481611B
:100E4000704700000000000041F20000C5F60040BD
:100E50000068000C7047000040F2D840C2F2004029
:100E6000006870470000000090F84120202A03D15C
:100E700090F84020012A01D102207047242280F8F6
:100E800041200268136823F001031360136823F400
:100E900080531360136819431160116841F0010118
:100EA0001160202180F84110002180F84010084690
:100EB000704700000000000090F84120202A03D174
:100EC00090F84020012A01D102207047242280F8A6
:100ED00041200268136823F001031360136823F4B0
:100EE000706343EA01211160116841F00101116052
:100EF000202180F84110002180F8401008467047FA
:100F000081B044F2F441C5F602010A6842F00202DF
:100F10000A60096801F00201009140F20441009A60
:100F2000C5F600010A681043086001B07047000070
:100F300010B310B5044690F8410028B9002084F899
:100F40004000204600F068F9242084F8410094E82D
:100F50000910E2680168012A21F00101016023F013
:100F600070610161816821F40041816006D14CF417
:100F7000004181600CE000BF01207047022A4CF460
:100F80000441816004D1416841F4006103E000BF85
:100F9000416821F40061416004F1100C416841F0A6
:100FA000007141F400414160C16821F40041C16019
:100FB0009CE80E10114341EA0321C160216A41EA15
:100FC0000C010160016841F00101016000206064D2
:100FD000202184F84110206384F8420010BD0000F5
:100FE0002DE9F04F81B0044690F8410020280DD142
:100FF000DDF82880B8F1000F0CD0DDF82CA0BAF194
:10100000000F07D094F8400001280BD1022001B056
:10101000BDE8F08F4FF400706064012001B0BDE8BE
:10102000F08F00BF1D4617468946012084F8400016
:10103000FFF712FF216806468A69120449D421206D
:1010400084F84100402084F84200E8B24FF0000BE1
:101050006FF39F29C4F844B0C4F8248049EA0040E3
:10106000A4F82AA049F6004ACFF6004AC4F834B0E2
:101070004A68AAF580631A40DDF830801044324691
:1010800040F0807040F4005048602046414604F033
:1010900077F9A8B9012D206808D0390A8162204665
:1010A0004146324604F06CF950B92068F9B28162C9
:1010B0008021002220464346009604F0ADF848B354
:1010C00084F840B0012001B0BDE8F08F88690004C9
:1010D000B5D519212046324603F0EEFF00289CD1F9
:1010E000FFF7BAFE801B21681A28EFD38869000435
:1010F000ECD5606C40F020006064202084F8410052
:10110000002084F8420084F84000012001B0BDE8CE
:10111000F08F00BF608D0025C0F2FF15B0F5807F15
:1011200008D320682B4650F8041F01EA0A02FF2169
:101130000BE000BF618D2068CAB250F8043F03EA9B
:101140000A0343EA02424FF000731A43FF2742EAC0
:1011500009020260218511E0618D20682185C9B2F4
:1011600050F8042F02EA0A0242EA01414FF00072ED
:10117000114341EA09010160608D78B32046414680
:10118000324604F0FDF800287FF447AF606A21681A
:1011900010F8012B8A626062608D01386085208DB5
:1011A00001382085618D0029E6D00004E4D180213A
:1011B000002220464346009604F02EF800287FF4D3
:1011C0002CAF608DB0F5807FC6D3206827852A4676
:1011D00050F8041F01EA0A01CAE700BF2046414651
:1011E000324604F08DF800287FF417AF20682021E4
:1011F0004EF60003C161CFF6006342681A404260B8
:1012000084F84110002084F8420084F8400001B0C6
:10121000BDE8F08F000000002DE9F043B7B00446B0
:1012200002A8C0210025CDE93555CDE933553295C9
:10123000FFF786F845F600412068C4F200018842B5
:1012400036D045F60001C4F2000188427BD1082067
:10125000029002A80024039400F006FB08B1FFF7F7
:10126000FFF844F2E0450021C5F60205C5F602018B
:10127000286840F002002860286800F00200019011
:1012800001984FF4406032901220CDE933040420DD
:10129000369001F5806032A93594FFF7F1FCA8681B
:1012A00040F48000A860A86800F4800049E000BF16
:1012B0000820029002A8039500F0D6FA08B1FFF7C3
:1012C000CFF844F2E0460024C5F60206C5F6020453
:1012D00032AD4FF012083068294640F0040030600B
:1012E0003068002700F0040001900198306840F059
:1012F0000100306030684FF0040900F001000190F7
:1013000001984FF40070329004F50060CDF8CC8065
:10131000CDE93477CDF8D890FFF7B2FC4FF4807068
:101320002946CDE932082046CDF8D890CDE934776A
:10133000FFF7A6FCB06840F40000B060B06800F4AD
:1013400000000190019837B0BDE8F0830000000074
:1013500040F20C0040F2D841C2F20040C2F200411B
:1013600000780A6810440860704700000000000020
:1013700080B5032000F0FCF801F0D2F944F21841E6
:1013800048F68A43C5F60201C0F600030A68C2F3B4
:1013900003229A5C096801F00F0102F01F02595CF8
:1013A000D04040F21802C2F2004201F01F0120FAC0
:1013B00001F1116040F21401C2F2004108600F20F7
:1013C00000F00AF800281CBF012080BD00F07CF866
:1013D000002080BD0000000070B540F20C06C2F293
:1013E00000463178E1B1044640F21400C2F20040F8
:1013F0004FF47A72B2FBF1F10068B0FBF1F001F04A
:10140000D3FC0F2C4FF0010508D838B94FF0FF304E
:1014100000222146002500F07BF87460284670BD4C
:10142000012070BD0000000010B54EF6A05E4178AE
:10143000CEF2000E90F800C04EF8081CDEF8001046
:1014400021F00101CEF8001041684EF8041C017B28
:10145000C37A827A447B1B0643EA0171837B41EAAB
:10146000C241C27B41EA8441447A41EA4341007A65
:1014700041EA024141EA042141EA400040EA0C000D
:10148000CEF8000010BD00004EF62450CEF2000051
:10149000BFF35F8F016821F4803101600021016793
:1014A00070470000000000004EF6245140F001009B
:1014B000CEF200010867086840F480300860BFF38E
:1014C0004F8FBFF36F8F704781B044F2F440C5F681
:1014D0000200016841F002010160006800F00200B2
:1014E0000090009801B07047002848BF704700F096
:1014F0001F01012202FA01F14EF20012C0F34A105C
:10150000CEF2000242F820107047000000000000F8
:1015100070B54EF60C5C4FF0FF36CEF2000C00F1C9
:10152000604505F56445DCF80030C3F3022E8EF00B
:101530000703042B28BF0423BEF1030406FA03F3B8
:1015400021EA030100F00F0338BF0024043B002808
:10155000634406FA04F048BF03F10C05A14022EAF7
:10156000000008430001287070BD0000000000006A
:101570004EF60C514FF6FF03CEF200010A681A40F6
:1015800060F30A2242F0806040F0FD70086070470E
:10159000B0B544F60C05C5F6020529684907296867
:1015A00006D401F00701081A18BF0120B0BD00BF22
:1015B00021F0070108432860FFF74EFC044600BFF6
:1015C00055F8080C800407D4FFF746FC001BB0F563
:1015D0007A7FF5D90120B0BD0020B0BD0000000029
:1015E00080B501F015F844F2204148F68A42C5F66C
:1015F0000201C0F600020968C1F30211515C01F05A
:101600001F01C84080BD000080B544F2384EC5F6C9
:10161000020E5EF8103C5EF8101C5EF80C2CC1F354
:10162000053CDEF80410BCF1000F15D0C908D20645
:1016300001EAE2716FF35F3100EE101A03F003016B
:101640000229B8EE400A0DD081B95EF8381C89062F
:1016500010D49FED361A1BE000218160C0E9001113
:1016600080BD00BF9FED301A12E000BF9FED2D1A24
:101670000EE000BF5EF8381C49F20002C0F2D03222
:10168000C1F3C10122FA01F101EE101AB8EE411ABC
:10169000DEF800109FED263A6FF35F2102EE101A7C
:1016A000DEF80010C1F34621B8EE422A00EE032A0C
:1016B00000EE10CAB7EE003AB8EE400A81EE000A1A
:1016C00032EE031A02EE101AB8EE422A20EE010A98
:1016D00032EE031A80EE011ABCEEC11A80ED001A38
:1016E000DEF80010C1F3064101EE101AB8EE411AFF
:1016F00031EE031A80EE011ABCEEC11A80ED011A18
:10170000DEF80010C1F3066101EE101AB8EE411ABE
:1017100031EE031A80EE010ABCEEC00A10EE101A78
:10172000816080BD0024744A20BCBE4B0024744CF0
:10173000000000390000000080B544F2404EC5F6BC
:10174000020E5EF8183C5EF8181C5EF8142CC1F30B
:10175000055CDEF80410BCF1000F15D0C908D205F5
:1017600001EAE2716FF35F3100EE101A03F003013A
:101770000229B8EE400A0DD081B95EF8401C8906F6
:1017800010D49FED361A1BE000218160C0E90011E2
:1017900080BD00BF9FED301A12E000BF9FED2D1AF3
:1017A0000EE000BF5EF8401C49F20002C0F2D032E9
:1017B000C1F3C10122FA01F101EE101AB8EE411A8B
:1017C000DEF800109FED263A6FF35F2102EE101A4B
:1017D000DEF80010C1F34621B8EE422A00EE032ADB
:1017E00000EE10CAB7EE003AB8EE400A81EE000AE9
:1017F00032EE031A02EE101AB8EE422A20EE010A67
:1018000032EE031A80EE011ABCEEC11A80ED001A06
:10181000DEF80010C1F3064101EE101AB8EE411ACD
:1018200031EE031A80EE011ABCEEC11A80ED011AE6
:10183000DEF80010C1F3066101EE101AB8EE411A8D
:1018400031EE031A80EE010ABCEEC00A10EE101A47
:10185000816080BD0024744A20BCBE4B0024744CBF
:1018600000000039000000002DE9F0470446C07870
:1018700044F22C480007C5F6020833D5A06E4FEAA3
:10188000305103290CD8DFE801F003111D2600BFF9
:10189000D8F8001041F40031C8F800101BE000BF78
:1018A00001266078C0070BD020E000BF04F10800DB
:1018B000022104F0C9FB064660B16078C00715D16B
:1018C000354646E004F12800022104F051FC0646AA
:1018D0000028F2D1A06ED8F8241021F4401108435A
:1018E000C8F8240000266078C007E9D0A06D04285D
:1018F0000ED83546DFE800F00412181E1E0000BFA7
:10190000D8F80000354640F40030C8F8000011E077
:1019100001250127607880071FD452E004F10800F8
:10192000002104F091FB04E004F12800002104F000
:101930001FFC05462F461DB1607880070DD440E09E
:10194000D8F82400A16D20F0070000250843C8F84E
:10195000240037466078800733D5E06D4FEAB01039
:1019600004280DD8DFE800F00412181E1E0000BF86
:10197000D8F8000040F40030C8F8000012E000BFC2
:1019800001250126607840071FD455E004F10800C6
:10199000002104F059FB04E004F12800002104F0C8
:1019A000E7FB05462E461DB1607840070DD443E0A5
:1019B000D8F82400E16D20F4E07000250843C8F851
:1019C00024003E466078400736D5D4F8A8004FEA98
:1019D000705004280CD8DFE800F00313191F1F0013
:1019E000D8F8000040F40030C8F8000014E000BF50
:1019F00001254FF001096078000721D456E000BFAF
:101A000004F10800002104F01FFB04E004F12800A9
:101A1000002104F0ADFB0546A9461DB16078000722
:101A20000ED443E0D8F82C00D4F8A81020F46000BD
:101A300000250843C8F82C00B1466078000735D56A
:101A4000D4F8AC004FEA306004280DD8DFE800F08D
:101A50000412181E1E0000BFD8F8000040F4003029
:101A6000C8F8000012E000BF01250127E0788007D8
:101A700020D44EE004F10800002104F0E5FA04E06F
:101A800004F12800002104F073FB05462F461DB128
:101A9000E07880070ED43CE0D8F82C00D4F8AC10E5
:101AA00020F0E06000250843C8F82C004F46E0789D
:101AB00080072ED5E06C4FEA301003280ED8DFE8FF
:101AC00000F00903130900BFD8F8000040F400300B
:101AD000C8F800002E467DB912E000BF012501269E
:101AE0006078C00619D44CE004F10800022104F02B
:101AF000ABFA05462E461DB16078C0060DD440E015
:101B0000D8F82000E16C20F0300000250843C8F828
:101B100020003E466078C00633D5206E4FEA303054
:101B200004280DD8DFE800F00412181E1E0000BFC4
:101B3000D8F8000040F40030C8F8000012E000BF00
:101B400001250127607880061FD44EE004F10800CB
:101B5000002104F079FA04E004F12800002104F0E7
:101B600007FB05462F461DB1607880060DD43CE08A
:101B7000D8F82400216E20F4E04000250843C8F87E
:101B800024003746607880062FD5606E4FEA3040DB
:101B9000052809D8DFE800F0040E1404040400BF8F
:101BA0002E46ADB918E000BF012501266078400639
:101BB0001FD44FE004F10800012104F045FA04E0CD
:101BC00004F12800012104F0D3FA05462E461DB188
:101BD000607840060DD43DE0D8F82400616E20F412
:101BE000E02000250843C8F824003E4660784006FF
:101BF00030D5D4F8B0004FEA3070052808D8DFE8B7
:101C000000F0030D130303032F46ADB918E000BF26
:101C1000012501276078000620D442E004F1080085
:101C2000012104F011FA04E004F12800012104F07C
:101C30009FFA05462F461DB1607800060ED430E0AD
:101C4000D8F82C00D4F8B01020F0E040002508436C
:101C5000C8F82C0037466078000622D5206F58B1AE
:101C6000B0F1005F0CD0B0F1805F2FD1D8F8000048
:101C700040F40030C8F800002E469DB908E000BFCF
:101C800004F10800012104F0DFF905462E464DB9A4
:101C9000D8F82400216F20F0405000250843C8F8F0
:101CA00024003E46E078C00733D0A06C032813D848
:101CB000DFE800F008021A08D8F8000040F400300D
:101CC000C8F80000A946BDB91AE000BF01250126E9
:101CD000E078C007E9D11CE001254FF00109A078A8
:101CE00040061AD51CE000BF04F10800022104F0F0
:101CF000ABF90546A9461DB1A07840060DD50FE009
:101D0000D8F82000A16C20F0030000250843C8F893
:101D10002000B146A078400602D44F4618E000BF2C
:101D2000D8F8D40340F48070C8F8D403FFF794F8CF
:101D3000064600BFD8F8D403C00507D4FFF78CF8D7
:101D4000801B6428F6D90325032701E02F468DB1B7
:101D50002078C00761D0E06F4FEAF00005283BD83B
:101D6000DFE800F004404604040400BF002D2E46C6
:101D700046D149E0D8F84410D4F8B400414011F4F9
:101D8000407F11D0D8F84410D8F8442042F4803273
:101D9000C8F84420D8F8442021F4407122F480325D
:101DA000C8F84420C8F84410B0F5807F40F0DE82C7
:101DB000FFF752F8064641F2883A0325032700BF91
:101DC000D8F84400800700F1CF82FFF745F8801B68
:101DD0005045F5D9BCE700BF0125012620788007D2
:101DE0001FD44CE004F10800012104F02DF904E0B7
:101DF00004F12800012104F0BBF905462E461DB16F
:101E0000207880070DD43AE0D8F82800E16F20F060
:101E1000380000250843C8F828003E46207880078F
:101E20002DD5A06F052809D8DFE800F0040E1404B2
:101E3000040400BF2F46ADB918E000BF01250127FB
:101E4000207840071FD44DE004F10800012104F080
:101E5000FBF804E004F12800012104F089F90546AB
:101E60002F461DB1207840070DD43BE0D8F828005C
:101E7000A16F20F0070000250843C8F82800374666
:101E8000207840072ED5D4F89400052808D8DFE83C
:101E900000F0030D130303032E46ADB918E000BF95
:101EA000012501262078800620D451E004F10800A5
:101EB000012104F0C9F804E004F12800012104F034
:101EC00057F905462E461DB1207880060ED43FE016
:101ED000D8F82C00D4F8941020F00700002508430F
:101EE000C8F82C003E462078800631D5D4F8900002
:101EF0004FEA3070052809D8DFE800F0040E14041A
:101F0000040400BF2F46ADB918E000BF012501272A
:101F10002078400620D451E004F10800002104F0AC
:101F200093F804E004F12800022104F021F90546A9
:101F30002F461DB1207840060ED43FE0D8F8280087
:101F4000D4F8901020F0E04000250843C8F828009D
:101F500037462078400631D5D4F89C004FEAB020AF
:101F6000052809D8DFE800F0040E1404040400BFBB
:101F70002E46ADB918E000BF0125012620780006E5
:101F800020D454E004F10800002104F05DF804E0DE
:101F900004F12800022104F0EBF805462E461DB19D
:101FA000207800060ED442E0D8F82C00D4F89C101B
:101FB00020F4E05000250843C8F82C003E46207865
:101FC000000634D5D4F8A0004FEA703005280FD8A9
:101FD000DFE800F004141A04040400BF2F46E5B142
:101FE0002068010727D4C1063ED4000355D475E00C
:101FF0000125012720680107F5D51CE004F1080040
:10200000002104F021F804E004F12800022104F08A
:10201000AFF80546002D2F46E2D1D8F82C00D4F8B1
:10202000A01020F4604000250843C8F82C00374673
:1020300020680107D7D5D4F88400B0F5805F09D1B6
:1020400004F12800022104F093F8002818BF0127AA
:10205000D4F88400D8F8281021F440510843C8F877
:1020600028002068C106C0D5D4F89800B0F5807F5C
:1020700009D104F12800022104F07AF8002818BFE1
:102080000127D4F89800D8F82C1021F440710843A7
:10209000C8F82C002068000320D5D4F8A400B0F5BF
:1020A000003F0FD0B0F5803F06D078BB04F10800A8
:1020B000002103F0C9FF04E004F12800022104F02C
:1020C00057F805462E4655B9D8F82C00D4F8A41078
:1020D00020F4403000250843C8F82C003E46A07884
:1020E00040072BD5D4F88800B0F5401F0BD0B0F5D1
:1020F000001F11D0B0F5801F2AD1D8F8000040F49D
:102100000030C8F800002F46CDB90DE001250126AA
:10211000A0784007E6D411E004F12800012104F082
:1021200027F805462F4655B9D8F82800D4F8881066
:1021300020F4401000250843C8F828003746A0784E
:10214000C0070AD13E462168880016D533E000BF9B
:1021500001250127A078C007F4D0206DB0F5803F9D
:1021600010D018BBD8F8000040F40030C8F80000C8
:102170002E4685B1216888001DD460688A0326D464
:1021800069E000BF04F10800022103F05DFF05468D
:10219000002D2E46EED1D8F82000216D20F480309D
:1021A00000250843C8F82000CCE700BF0125012620
:1021B00021688800E1D504F12800022103F0D8FF4E
:1021C000002818BF0126D4E900108A0343D5D4F8AB
:1021D00080206FF0010303EB3223022B0BD34FEA75
:1021E000322343B1012B40F0B980D8F8003043F4DA
:1021F0000033C8F800303DB3CA022FD4CA0037D428
:102200008A0240D44A0048D4CA0F55D109025DD48D
:10221000C10766D181076FD4410779D4010700F166
:102220008380C10600F18C80800607D504F1280068
:10223000022103F09DFF002818BF0125002D18BFC3
:1022400001252846BDE8F087D8F8283023F44073EC
:102250001A43C8F828203546CA02CFD5D8F824201A
:10226000636F22F000421A43C8F82420CA00C7D581
:1022700058F81C2CD4F8B83022F480421A4348F89D
:102280001C2C8A02BED5D8F82420E36E22F080727E
:102290001A43C8F824204A00B6D558F81C2C22F45A
:1022A000004248F81C2CD4F8BC2058F81C3C1A43B7
:1022B00048F81C2CCA0FA9D0D8F82020636D22F052
:1022C00040521A43C8F820200902A1D5D8F8281096
:1022D000D4F88C2021F440011143C8F82810C1071C
:1022E00098D004F10800002103F0AEFE002818BFCA
:1022F0000546606881078FD504F10800012103F0CD
:10230000A3FE002818BF0546606841077FF586AF29
:1023100004F10800022103F097FE002818BF0546CB
:10232000606801077FF57DAF04F12800002103F00C
:102330001FFF002818BF05466068C1067FF574AF0F
:1023400004F12800012103F013FF002818BF0546FF
:10235000606880063FF56AAF70E700BF0125CA02DA
:102360007FF54CAF7AE700BFD4F8B4004FF6CF73D7
:1023700058F81C2CC0F2FF0300F4407122F47C5288
:1023800003EA10136FF31F30B1F5407F08BF1A4303
:10239000002548F81C2CD8F844100843C8F844001D
:1023A000FFF7BBBC000000002DE9F04381B000281E
:1023B00000F02A8142F200080446C5F2002889464E
:1023C000D8F8000000F00F0088420ED2D8F80000C4
:1023D00020F00F0040EA0900C8F80000D8F800001B
:1023E00000F00F00484540F00F81206844F2184784
:1023F0004107C5F602070AD521693A6802F0700262
:10240000914204D93A6822F0700211433960010701
:102410000AD561697A6802F07002914204D97A683B
:1024200022F0700211437960C1060AD5A1697A6869
:1024300002F4E062914204D97A6822F4E062114326
:10244000796081060AD5E169BA6802F070029142AA
:1024500004D9BA6822F070021143B96010F0020189
:102460000AD0E2683B6803F00F039A4204D93B6844
:1024700023F00F031A433A60C20746D03968D4E903
:10248000010221F47061012841EA0201396009D09A
:1024900003280DD0022811D157F8181C890312D433
:1024A000B2E000BF57F8181CC9050CD4ACE000BF5F
:1024B00057F8181C890106D4A6E000BF57F8181C6D
:1024C000490740F1A18057F8081C21F00701084393
:1024D00047F8080CFEF7C0FC064641F2883500BFFD
:1024E00057F8080C616800F03800B0EBC10F09D054
:1024F000FEF7B2FC801BA842F2D9032001B0BDE870
:10250000F08300BF206800F0020151B1E1683A6831
:1025100002F00F02914204D23A6822F00F021143F6
:102520003960D8F8001001F00F0149450DD9D8F8ED
:10253000001021F00F0141EA0901C8F80010D8F895
:10254000001001F00F0149455ED141070AD521690C
:102550003A6802F07002914204D23A6822F07002A6
:102560001143396001070AD561697A6802F0700287
:10257000914204D27A6822F0700211437960C10658
:102580000AD5A1697A6802F4E062914204D27A68BD
:1025900022F4E0621143796080060AD5E069B968E7
:1025A00001F07001884204D2B96821F0700108433B
:1025B000B86000F0B5F8396848F68A42C0F6000203
:1025C000C1F30321515C3B6803F00F0301F01F01CD
:1025D000D25C20FA01F102F01F0040F21802C2F2B0
:1025E000004221FA00F0106040F2100040F21402A4
:1025F000C2F20040C2F200420068116001B0BDE8C2
:10260000F043FEF7E9BE00BF012001B0BDE8F08352
:1026100080B500F085F844F2184148F68A43C5F6C3
:102620000201C0F600030A68C2F303229A5C09683B
:1026300001F00F0102F01F02595C20FA02F201F0D2
:102640001F0040F21801C2F2004122FA00F00860B7
:1026500040F21401C2F200410A6080BD0000000097
:1026600080B500F05DF844F2184C48F68A43C5F690
:10267000020CC0F60003DCF80020C2F303229A5CCF
:10268000DCF8001001F00F0102F01F02595CD0408D
:1026900040F21802C2F2004201F01F0120FA01F1DB
:1026A000116040F21402C2F200421060DCF8040033
:1026B000C0F30210185C00F01F0021FA00F080BD8A
:1026C00080B500F02DF844F2184C48F68A43C5F660
:1026D000020CC0F60003DCF80020C2F303229A5C6F
:1026E000DCF8001001F00F0102F01F02595CD0402D
:1026F00040F21802C2F2004201F01F0120FA01F17B
:10270000116040F21402C2F200421060DCF80400D2
:10271000C0F30220185C00F01F0021FA00F080BD19
:1027200044F20041C5F602010869C0F3C200032863
:1027300010D002282ED098BB0868800649F200000D
:10274000C0F2D03058BF70470968C1F3C101C8401A
:10275000704700BF8A6A886AC0F3051CC86ABCF16A
:10276000000F4B6B22D000F0010002F00302404248
:10277000022A00EAD3006FF35F3000EE100AB8EED1
:10278000400A15D0C2B90868800619D49FED281AEE
:1027900023E000BF47F64000C0F27D10704700BF45
:1027A00040F60010C0F23D00704700BF00207047A7
:1027B0009FED1E1A11E000BF9FED1B1A0DE000BF38
:1027C000086849F20002C0F2D032C0F3C10022FA18
:1027D00000F001EE100AB8EE411A086B9FED153AB1
:1027E0006FF35F2002EE100A086BC0F34620B8EECC
:1027F000422A013000EE032A00EE10CAB7EE003A7A
:10280000B8EE400A81EE000A32EE031A20EE010A09
:1028100001EE100AB8EE411A80EE010ABCEEC00AC1
:1028200010EE100A704700BF0024744A20BCBE4B53
:102830000024744C0000003970B3F0B581B0044638
:10284000007844F20046C007C5F6020626D120787B
:10285000800740F1C280306910F03801B06A43D07F
:10286000182908BF5FEA80703ED0E0683168002810
:1028700066D021F0190108433060FEF7EDFA0546F5
:10288000306840074CD4FEF7E7FA401B0228F7D91E
:10289000032001B0F0BD00BF01207047306900F097
:1028A0003801B06A102905D018290BD100F00300B7
:1028B000022807D130688003C9D560680028C6D1D6
:1028C0003CE100BF606800284CD0B0F5A02F61D07B
:1028D000B0F5803F62D0306820F4803030603068DE
:1028E00020F480205DE000BF30684007E06802D53A
:1028F000002800F02381316821F01901084330607D
:10290000FEF7AAFA054600BF3068400708D4FEF774
:10291000A3FA401B02284FF00300F5D901B0F0BD27
:10292000FEF792FA41F2030188424BD820697168A0
:10293000402821F47C314DD141F400304CE000BFFF
:1029400021F001003060FEF787FA05463068400745
:1029500043D5FEF781FA401B02284FF00300F5D95A
:10296000DCE700BF306820F480303060306820F44D
:1029700080203060FEF770FA054600BF30688003A3
:102980007FF565AFFEF768FA401B64284FF003003F
:10299000F4D9C3E7306840F480203060306840F4F8
:1029A00080303060FEF758FA054600BF306880037B
:1029B0003FF54DAFFEF750FA401B6428F6D90320CF
:1029C00001B0F0BD7068216920F0FE4040EA01606E
:1029D00002E000BF41EA003070602078C00654D5A4
:1029E000306900F03801B06A082905D0182919D1DA
:1029F00000F00300012815D13068C00503D5E06957
:102A0000802840F09B80FEF71FFA41F203018842C4
:102A10001ED8206A7168202821F0F84132D141F097
:102A2000804031E0E0690028306819D040F0800033
:102A30003060FEF711FA05463068C005E3D4FEF7B2
:102A40000BFA401B02284FF00300F5D966E700BFE0
:102A5000F068216A20F07C5040EA0160F06014E0E8
:102A600020F080003060FEF7F7F905463068C005B9
:102A70000BD5FEF7F1F9401B02284FF00300F5D902
:102A80004CE700BF41EA80607060207800073FD4C7
:102A90002078800656D42078400769D4656A9DB3B3
:102AA000306900F03800182840F0AC80012DB16A80
:102AB000306B43D001F00302A36A9A423ED1C1F3C6
:102AC0000511E26A914239D10146226B6FF35F2111
:102AD000013A914232D1C0F34622616B01398A42F8
:102AE0002CD1C0F30642A16B01398A4226D1C0F332
:102AF0000660E16B0139884220D1706BA16CC0F394
:102B0000CC00814240F03481002001B0F0BD00BF14
:102B100060690028706F41D040F001007067FEF7D7
:102B20009BF90546706F8007B2D4FEF795F9401BFC
:102B30000228F7D9032001B0F0BD00BF012001B089
:102B4000F0BD00BFA0690028306849D040F4805033
:102B50003060FEF781F90546306880049BD4FEF7AB
:102B60007BF9401B0228F7D9032001B0F0BD00BF5C
:102B7000D6F8000440F48070C6F80004FEF76CF943
:102B8000054600BFD6F80004C00519D4FEF764F965
:102B9000401B6428F6D9032001B0F0BD20F00100ED
:102BA0007067FEF759F90546706F80077FF570AFC3
:102BB000FEF752F9401B02284FF00300F4D9ADE6AE
:102BC000A068002840D0052858D001285AD0306F7E
:102BD00020F001003067306F20F0040055E000BFA6
:102BE00020F480503060FEF737F9054630688004E5
:102BF0007FF551AFFEF730F9401B02284FF003007C
:102C0000F4D98BE6306820F080703060FEF724F94C
:102C1000022D05460CD100BF3068800148D5FEF773
:102C20001BF9401B02284FF00300F5D976E600BFE0
:102C3000306880017FF568AFFEF70EF9401B02286F
:102C40004FF00300F4D969E6306F20F001003067DF
:102C5000306F20F004003067FEF7FEF8054641F2C1
:102C60008837306F80077FF519AFFEF7F5F8401B06
:102C7000B8424FF00300F4D950E600BF306F40F087
:102C800004003067306F40F001003067FEF7E4F871
:102C9000054641F2883700BF306F80073FF5FEAE32
:102CA000FEF7DAF8401BB8424FF00300F4D935E6DE
:102CB00004F12807B06A40F2F33188438ECF08430D
:102CC000591E40EA02104FF47E426FF35F21B0625A
:102CD00002EB47204FF4FE0280B2E36B0844A16B85
:102CE00002EB01414FF0FE4201F4FE0102EB0362F0
:102CF000084402F0FE4108443063F06A4FF6F87170
:102D000020F00100F062706BA26C884340EAC200C0
:102D10007063F06A216C20F00C000843F062F06AE6
:102D2000616C20F002000843F062F06A40F48030E9
:102D3000F062F06A40F40030F062F06A40F4802003
:102D4000F062F06A40F00100F062306840F080709C
:102D50003060FEF781F80446306880013FF5D4AE5C
:102D6000FEF77AF8001B02284FF00300F4D9D5E5EE
:102D7000F06A20F00100F062FEF76EF80546FEF7FB
:102D80006BF8A842FBD0706B4FF6F871A26C8843C9
:102D900040EAC2007063F06A40F00100F062002077
:102DA00001B0F0BD00000000411E0020B0EB116F2B
:102DB00002D00120704700BF4EF21002F023CEF285
:102DC000000251604EF62351CEF200010B70072134
:102DD0009060116070470000704700000000000024
:102DE0007047000000000000704700000000000075
:102DF00090F83C20012A4FF002025ED0B0B580F876
:102E00003D2040F2004C0268C4F2010C42F48063A1
:102E100063455368D2F808E002BF23F470034C689E
:102E2000234341F2FF740D68C4F2000423F07003E1
:102E3000A24243EA050353600CDC40F2FF73C4F284
:102E400000039A4216DCB2F1804F29D040F20043D1
:102E500018E000BF40F2FF33C4F201039A4217DCCE
:102E600041F60003C4F200039A4219D00023C4F2D1
:102E7000010309E040F60003C4F200039A420FD0B8
:102E800040F60043C4F200039A4209D00DE000BFAF
:102E900044F20003C4F201039A4201D0624504D116
:102EA0002EF080038968194391600022012180F887
:102EB0003D1080F83C20BDE8B0401046704700004F
:102EC00060B310B5044690F83D0028B9002084F89E
:102ED0003C00204600F024F8022084F83D002068E1
:102EE000211D03F001FB012084F8480084F83E0016
:102EF00084F83F0084F8400084F8410084F84200E0
:102F000084F8430084F8440084F8450084F84600BF
:102F100084F8470084F83D00002010BD0120704770
:102F200040F600410068C4F20001884218BF7047B3
:102F300080B582B044F2E8400022C5F60200016884
:102F400041F0080101600068002100F008000190D4
:102F500001983220FEF7DCFA322002B0BDE8804052
:102F6000FEF7C2BA0000000090F83D1001291BD105
:102F7000022180F83D10016841F2FF70C4F20000A8
:102F80008142C86840F00100C8600FDC40F2FF7069
:102F9000C4F20000814217DCB1F1804F2CD040F226
:102FA0000040C4F2000025E00120704740F2FF30ED
:102FB000C4F20100814213DC41F60000C4F20000BB
:102FC000814219D0002013E040F60000C4F2000056
:102FD000814211D040F60040C4F200000AE000BF78
:102FE00044F20000C4F20100814205D040F20040EA
:102FF000C4F2010081420BD107228868C0F20102AD
:1030000002400020062A18BFB2F5803F00D1704769
:10301000086840F0010008600020704700000000D0
:1030200090F83C20012A4FF0020200F0AA8080B5FF
:1030300080F83D208822D0F800C0CFF6CE72DCF8B0
:1030400008301A40CCF808200B686F2B0EDDB3F166
:10305000101F37DAB3F5005F46DA702B00F094806A
:10306000B3F5805F00F08480D8E000BF2F2B33DD04
:103070004F2B3FDC302B6FD0402B40F0CF80D1F86E
:1030800004E0C968DCF82030DCF8202022F00102DE
:10309000CCF82020DCF8182022F0F00242EA0111DE
:1030A00023F00A02CCF8181042EA0E01CCF82010E6
:1030B0004FF68872DCF80810CFF6CF721140473116
:1030C00054E000BF2F21C0F210018B423ADCB3F173
:1030D000101F41D020213BE0002B18BF102B3BD00C
:1030E000202B39D09AE000BF62D0B3F5801F33D0D7
:1030F00094E000BF502B6FD0602B40F08F80D1F850
:1031000004E0C968DCF82030DCF8202022F010024E
:10311000CCF82020DCF8182022F4704242EA013179
:1031200023F0A002CCF8181042EA0E11CCF82010BF
:103130004FF68872DCF80810CFF6CF721140673175
:1031400014E000BF3021C0F210018B4204D04021B6
:10315000C0F210018B4261D14FF68872DCF8081082
:10316000CFF6CF721140194341F00701CCF8081097
:103170000022012180F83D10002180F83C10BDE8BC
:1031800080401046704700BFD1E901E3C968DCF810
:10319000082043EA0E0322F47F4243EA012111434F
:1031A000CCF80810DCF8081041F07701DEE700BF2A
:1031B000D1E901E3C968DCF8082043EA0E0322F4F0
:1031C0007F4243EA01211143CCF80810DCF80810D3
:1031D00041F48041CAE700BFD1F804E0C968DCF8D7
:1031E0002030DCF8202022F00102CCF82020DCF88E
:1031F000182022F0F00242EA011123F00A02CCF872
:10320000181042EA0E01CCF820104FF68872DCF854
:103210000810CFF6CF7211405731A7E70122A8E777
:10322000002857D02DE9F04381B0044690F83D00C6
:103230000D4628B9002084F83C00204600F04CF8E8
:10324000022084F83D0020684BF6F872CFF6FE723B
:10325000816811408160211D03F046F920684FF616
:10326000FF79D0F808808269D0F820C0AF69D5E92D
:10327000026122EA090246EA07264FF6FC47BE43EE
:10328000EF6911432A6931432E6A41EA07216F69C8
:10329000D5E9003E41EA02112CF0AA0242EA0E02F0
:1032A00043EA080341EA06318360816142EA07117B
:1032B0000162012084F8480084F83E0084F83F0051
:1032C00084F8440084F8450084F83D00002001B0F3
:1032D000BDE8F0830120704710B586B040F60002CB
:1032E0000068C4F20002002190420591CDE903116B
:1032F000CDE9011122D040F20041C4F20001884220
:103300004CD144F2E0401D24C5F60200816841F032
:1033100002018160816801F0020100910099016859
:1033200041F0010101600068C02100F0010000903F
:1033300000980020C5F602001EE000BF44F2E04005
:103340001E24C5F60200816841F004018160816895
:1033500001F0040100910099016841F00801016049
:10336000006800F00800009000200099C5F60200F7
:103370004FF4405100F5406001910221029100227A
:10338000059101A9CDE90322FDF77AFC0021002275
:103390002046FEF7BDF82046FEF7A6F806B010BDA1
:1033A00080B590F83E20042990F83F3090F844E032
:1033B00090F845C00AD0B9B9012A4FF0010208BF00
:1033C000BEF1010F34D0104680BD00BF0122012B99
:1033D00008BFBCF1010FF6D1022180F83F1080F840
:1033E0004510006820E000BF012A4FF0010208BF2D
:1033F000012BE8D1BEF1010F08BFBCF1010FE2D1F2
:103400004FF0020280F83E2080F83F2080F84420F0
:1034100080F8452089B10068016A21F0010101624C
:10342000016A41F00101016210216FF0100208E011
:10343000022180F83E1080F84410006801216FF0EE
:103440000102036A1A400262026A114301620168C2
:10345000002241F001010160104680BD0000000023
:103460007047000000000000F0B581B0044600681D
:10347000C5680669B10717D515F0020114D06FF0C1
:1034800002010161012121778069800704D0204673
:10349000FFF7E6FF06E000BF204600F09DF820465B
:1034A00000F042FB00202077700719D515F00400CA
:1034B00016D020686FF00401016102212177806934
:1034C00010F4407F04D02046FFF7CAFF06E000BF9B
:1034D000204600F081F8204600F026FB00202077EF
:1034E000300717D515F0080014D020686FF00801D8
:1034F000016104212177C069800703D02046FFF7CE
:10350000AFFF05E0204600F067F8204600F00CFB16
:1035100000202077F00619D515F0100016D020688D
:103520006FF01001016108212177C06910F4407F1C
:1035300004D02046FFF794FF06E000BF204600F0CD
:103540004BF8204600F0F0FA00202077F00718BF73
:1035500015F0010006D020686FF0010101612046DE
:1035600000F0AEFB05F0800716F4025F18BF002FD5
:1035700002D1F00509D410E020686FF40251016116
:103580002046FFF72DFCF00507D537B120686FF412
:10359000807101612046FFF71FFC700609D515F008
:1035A000400006D020686FF040010161204600F025
:1035B0001BFEB0060CD515F0200009D020686FF076
:1035C00020010161204601B0BDE8F040FFF70CBCCE
:1035D00001B0F0BD000000007047000000000000D6
:1035E00090F83C30012B01D1022070474FEAB20223
:1035F000052A33D82DE9F041DFE812F00600360045
:103600007400B200D800FE00036843F6FF76C4F2EF
:1036100001061C6AB3421A6A24F0020422F0010275
:103620001A621A46D3F804C052F818EF8D6844EABB
:103630000504D1F8008040F3058144F20007C4F28C
:103640000107BB4200F0098144F60007C4F20107FC
:10365000BB4200F0028144F20047FAE0012100225F
:1036600080F83C2008467047036840F2004E43F45F
:103670008067C4F2010E1C6A77451A6A24F02004A0
:1036800022F010021A621A465D6852F818CF8E684E
:1036900044EA061407D1CE686FF0400724F0C00456
:1036A00007EA0616344343F6FF76D1F80080C4F2E9
:1036B0000106B34240F3EC8044F20007C4F2010774
:1036C000BB4200F0EC8044F60007C4F20107BB42A5
:1036D00000F0E58044F20047C4F20107BB4200F06D
:1036E000DE80E3E0036840F2004E43F48067C4F2FA
:1036F000010E1C6A77451A6A24F4007422F4807261
:103700001A621A465D6852F81CCF8E6844EA062495
:1037100007D1CE6840F2FF47360224F44064BE432E
:10372000344343F6FF76D1F80080C4F20106B34279
:1037300040F3D48044F20007C4F20107BB4200F01A
:10374000D48044F60007C4F20107BB4200F0CD80EC
:1037500044F20047C4F20107BB4200F0C680CBE050
:10376000036843F6FF77C4F20107D3F820C0BB42D9
:103770001A6A22F480521A621A465C6852F81C6F68
:103780000D68D1F808E040F3CF8044F20007C4F29E
:103790000107BB4200F0D38044F60007C4F20107E2
:1037A000BB4200F0CC8044F20047C4E0036843F61B
:1037B000FF77C4F20107D3F820C0BB421A6A22F493
:1037C00080321A621A465C6852F8546F0D68D1F85C
:1037D00008E040F3D38044F20007C4F20107BB4283
:1037E00000F0D78044F60007C4F20107BB4200F0A6
:1037F000D08044F20047C8E0036843F6FF77C4F284
:103800000107D3F820C0BB421A6A22F480121A6260
:103810001A465C6852F8546F0D68D1F808E040F31E
:10382000D98044F20007C4F20107BB4200F0DD80FA
:1038300044F60007C4F20107BB4200F0D68044F210
:103840000047CEE00027C4F20107BB4205D040F29A
:103850000047C4F20107BB4205D1CF6824F00C0435
:1038600027F004073C43B34240F3E28044F20006F1
:10387000C4F20106B34200F0E68044F60006C4F24A
:103880000106B34200F0DF8044F20046D7E000BFFB
:103890000027C4F20107BB4201D0734506D1D1E92C
:1038A0000576374325F4406646EA870548F6FF4724
:1038B0005D60CFF6FF6707EA0C0747EA08279F61BC
:1038C0004F6809699F631C629F6947F400679F61A5
:1038D0009F6927F480679F61A7E000BF0027C4F2BB
:1038E0000107BB4201D0734506D1D1E905763743C4
:1038F00025F4405646EA07154FF68C775D60CFF603
:10390000FE7707EA0C0747EA0807DF614F68096995
:10391000DF631C62DF6947F00807DF61DF6927F0BA
:103920000407DF61ADE000BF0027C4F20107BB421E
:1039300005D040F20047C4F20107BB4204D14F69F1
:1039400024F4804444EA871448F6FF475C60CFF6CD
:10395000FF673E402CF4005746EA0524DC614E68C0
:1039600009691E6447EA0E371F62DF6947F4006782
:10397000DF61DF6927F48067DF6156E00027C4F26A
:103980000107BB4205D040F20047C4F20107BB4229
:1039900004D14F6924F4803444EA07244FF68C772D
:1039A0005C60CFF6FE7703373E402CF4003746EAE2
:1039B00005045C654E6809699E6547EA0E471F620B
:1039C0005F6D47F008075F655F6D27F004075F656F
:1039D00057E000BF0027C4F20107BB4205D040F208
:1039E0000047C4F20107BB4204D14F6924F480248C
:1039F00044EA872448F6FF475C60CFF6FF6707F587
:103A000040773E402CF4001746EA05245C654E687A
:103A10000969DE6547EA0E571F625F6D47F400676C
:103A20005F655F6D27F480675F65090229E000BF6D
:103A30000026C4F20106B34205D040F20046C4F2AB
:103A40000106B34206D12CF44077D1E9056537432E
:103A500047EA050C4FF68C75C3F804C0CFF6FE7527
:103A60000EEA050747EA08079F614F6809695F6327
:103A70001C629F6947F008079F619F6927F0040750
:103A80009F611368194311600021BDE8F0410022D5
:103A900080F83C200846704760B310B5044690F8A3
:103AA0003D0028B9002084F83C00204600F024F8AE
:103AB000022084F83D002068211D02F015FD012040
:103AC00084F8480084F83E0084F83F0084F8400001
:103AD00084F8410084F8420084F8430084F84400EC
:103AE00084F8450084F8460084F8470084F83D00D7
:103AF000002010BD012070470068B0F1804F18BF52
:103B0000704781B044F2E840C5F60200016841F018
:103B100001010160006800F001000090009801B010
:103B20007047000000000000704700000000000027
:103B300081B10A1F8B0743EA9202032A12D8DFE8F9
:103B400002F003171F2500BF00F13F031B78012B74
:103B500013D120E090F83E20012A0ED1022280F8F5
:103B60003E2032E000F143031B78012B05D112E027
:103B700000F140031B78012B0DD00120704700BFDE
:103B800000F141031B78012B05D0F6E700F1420359
:103B90001B78012BF1D1032A08D8DFE802F0030BD0
:103BA0000F1300BF022280F83F200EE0022280F8AF
:103BB00043200AE0022280F8402006E0022280F83A
:103BC000412002E0022280F84220026801F01F003A
:103BD000012101FA00F0116A814311624FF6FF7171
:103BE000C4F200018A42116A40EA0100106219DC45
:103BF00040F2FF70C4F2000082422FDD40F6000068
:103C0000C4F20000824243D040F60040C4F20000FB
:103C100082423DD041F60000C4F20000824237D01B
:103C200048E000BF43F6FF700021C4F20100C4F277
:103C30000101824244F20000C4F2010018DD824218
:103C40001ED044F60003C4F201039A4218D044F295
:103C50000043C4F201039A4212D02BE0B2F1804F2C
:103C600016D040F20040C4F20000824210D021E0A1
:103C70008A4205D040F20043C4F201039A4219D1AE
:103C8000536C8A4243F40041516418BF82420BD105
:103C900007219068C0F2010101400020062918BFE9
:103CA000B1F5803F06D1704740F20040C4F20100F8
:103CB0008242EDD0106840F0010010600020704793
:103CC00040F23821C2F20041884233D040F28421D0
:103CD000C2F20041884241D040F2D021C2F20041FC
:103CE000884218BF70472DE9F04381B02DED028B5B
:103CF00004F0FAFD40F2E806C2F20046B07801286E
:103D000040D1B069012845D0002840F0B98040F288
:103D10000007C2F200477968481C082800F2B0800A
:103D2000DFE800F044065090B6AEAE96060000BF45
:103D3000502037E040F28000C2F2004090ED000ACF
:103D400040F27800C2F20040B5EE400A0168F1EEA0
:103D500010FA13DA01390160704700BF40F28400A5
:103D6000C2F2004090ED000A40F27C00C2F2004036
:103D7000B5EE400A0168F1EE10FAEBDB01310160AB
:103D8000704700BF0130B070BDEC028B01B0BDE8E0
:103D9000F08300BF3079022802D001286CD06FE098
:103DA0005020002104F004FA6AE000BF40F21C0039
:103DB0000021C2F20040016040F22000C2F2004047
:103DC00001605DE070790028706900F07F80385CE8
:103DD000422800F0B180412840F0AC80F079002802
:103DE00040F0E88040F22C00C2F200400268D6E9C0
:103DF000080110F52F754FEAE27341F10004521BE0
:103E000073EB040280F0D68040F23002C2F200422E
:103E1000D6E90A35126813F52F784FEAE27445F1B6
:103E20000005B2EB080274EB050280F0C38010F5C8
:103E3000166041F10001FCF78EFA08EE100A4046C8
:103E40002946A5E0522004F07FF97868062802D1BF
:103E5000472004F079F906F1200533CDFCF77BFA11
:103E600008EE100A20462946FCF775FA00EE900A83
:103E7000B0EE480A04F05CF904F0D2F804F014F94A
:103E80000020B070BDEC028B01B0BDE8F08300BF34
:103E9000F0790328F4D8DFE810F00500B500F10050
:103EA0002F0100BF40F22C00C2F2004000683062D7
:103EB000C11740F23000C2F2004071620068B06287
:103EC000C017F0620120F071DAE700BF384410F843
:103ED000010C422800F0248141282BD140F22C0013
:103EE000C2F20040D6E90A540268D6E9080110F58A
:103EF0002F704FEAE27341F10001121A73EB0102D5
:103F00000FD240F2300215F52F73C2F2004244F195
:103F1000000E12684FEAE27CD21A7CEB0E02C0F06F
:103F20002281FCF718FA08EE100A15F5166044F124
:103F3000000129E1002052E1F079D8BB40F22C00C9
:103F4000C2F200400268D6E9080110F52F704FEA6E
:103F5000E27341F10001121A73EB01022AD240F21E
:103F60003002C2F20042D6E90A98126819F52F749D
:103F70004FEAE27348F10005121B73EB050219D2F8
:103F8000FCF7E9F908EE100A19F5166048F100018E
:103F9000FCF7E1F900EE900AB0EE480A04F0C8F828
:103FA0007968502004F004F9F07901287FF468AFB3
:103FB00002E000BF0120F07104F032F804F074F860
:103FC00040F2C000C2F2004090ED000A20EE001A5C
:103FD000B2EE040AB4EE401AF1EE10FABFF650AF9A
:103FE00040F2D400C2F2004090ED001A21EE011A16
:103FF000B4EE401AF1EE10FABFF642AF0020F071B5
:10400000EDE000BFD6E9080140F2DC54B56A0019C2
:10401000F76A41F10001FCF79EF908EE100A281931
:1040200047F10001FCF797F900EE900AB0EE480A5C
:1040300004F07EF804F038F803F0F2FF40F2C0001C
:10404000C2F2004090ED000A20EE001AB2EE040A1F
:10405000B4EE401AF1EE10FABFF612AF40F2D400FF
:10406000C2F2004090ED001A21EE011AB4EE401A9F
:10407000F1EE10FABFF604AF022024E7D6E90801FA
:1040800040F2DC52B46A8018F56A41F10001FCF795
:1040900062F908EE100AB4F1C80065F10001FCF7FE
:1040A0005AF900EE900AB0EE480A04F041F803F025
:1040B000FBFF03F0B5FF40F2C000C2F2004090EDFC
:1040C000000A20EE001AB2EE040AB4EE401AF1EE35
:1040D00010FABFF6D5AE40F2D400C2F2004090ED27
:1040E000001A21EE011AB4EE401AF1EE10FABFF6F2
:1040F000C7AE0320E7E600BF03F0D6FF40F21C0086
:10410000F168C2F2004000220029C4F2A01202604D
:104110007FF4B6AE012070710020F0715EE000BF48
:1041200040F22C00C2F200400268D6E9080110F506
:104130002F754FEAE27341F10004521B73EB040246
:10414000D6E90A3212D240F2300513F52F78C2F2C6
:1041500000452C6842F100054FEAE47CB4EB08020C
:104160007CEB050206D2502001211BE613F52F78C7
:1041700042F1000510F5166041F10001FCF7EBF883
:1041800008EE100A40462946FCF7E5F800EE900AD2
:10419000B0EE480A03F0CCFF03F042FF03F084FFC7
:1041A00040F2C000C2F2004090ED000A20EE001A7A
:1041B000B2EE040AB4EE401AF1EE10FABFF660AEA9
:1041C00040F2D400C2F2004090ED001A21EE011A34
:1041D000B4EE401AF1EE10FABFF652AE0720786046
:1041E0004EE60000000000007047000000000000E4
:1041F00090F88410012901D1022070472421C0F8D1
:10420000881002681368116823F0005321F001013F
:1042100011600021416613602022C0F8882080F8D8
:10422000841008467047000070470000000000003E
:10423000704700000000000090F88420012A01D19E
:104240000220704770B52422C0F888200268D0F898
:1042500064E0BEF1000FD2F800C0136823F0010340
:104260001360936823F0606341EA0301916019D001
:10427000916849F2BA4E9368C0F6000E5B0F49F29E
:10428000C245C1F34266C0F600051EF80340E95C72
:104290002301B3FBF1F11EF80630AE5D1B01B3FB49
:1042A000F6F301E001210123A0F86A102021A0F813
:1042B0006830C2F800C0C0F88810002180F884106F
:1042C000BDE870400846704790F88420012A01D16B
:1042D0000220704770B52422C0F888200268D0F808
:1042E00064E0BEF1000FD2F800C0136823F00103B0
:1042F0001360936823F0604341EA0301916019D091
:10430000916849F2BA4E9368C0F6000E5B0F49F20D
:10431000C245C1F34266C0F600051EF80340E95CE1
:104320002301B3FBF1F11EF80630AE5D1B01B3FBB8
:10433000F6F301E001210123A0F86A102021A0F882
:104340006830C2F800C0C0F88810002180F88410DE
:10435000BDE870400846704770470000000000004C
:1043600070470000000000007047000000000000DF
:1043700070B50446006840F62F01C269114020293B
:10438000016886680CD101F0200306F080555B19A6
:1043900018D0616F71B32046BDE87040084700BF78
:1043A00040F60F031A420DD0012340F22015C1F24E
:1043B0000003C0F2004506EA030C01EA050313EB13
:1043C0000C0327D1D306E36E16D5012B14D111F0BF
:1043D000100311D0102101628068400626D4B4F881
:1043E0005C00B4F85E10B4F85E20002A18BF884262
:1043F00040F0C68170BD00BFD30235D516F48003EE
:1044000032D04FF4801101622046BDE87040FFF7C2
:10441000A7BF00BFD30718BF11F4807340F0888096
:10442000930706F0010E00F18F8098E0D4F8800029
:1044300040F20F42C4F202020168914254DC6F2242
:10444000C4F20202914200F323823F22C4F202022C
:10445000914200F351821022C4F20202914200F014
:10446000708228226AE200BF100606D501F08000A3
:1044700006F40003C01840F0178250064CD511F026
:10448000400049D0206850E8000F216820F040002B
:1044900041E80002F2B1206850E8000F216820F0E6
:1044A000400041E80002002A1FBF206850E8000FCA
:1044B000216820F040001CBF41E80002002A09D01A
:1044C000206850E8000F216820F0400041E8000219
:1044D000002AD7D12020C4F888000020A0672046F9
:1044E000BDE8704000F0E0BD40F26F42C4F202024D
:1044F000914200F3DF8140F23F42C4F20202914256
:1045000000F3028240F21042C4F20202914200F033
:10451000188240F2284211E2100240F1E18111F0CC
:10452000804000F0DD812046BDE87040FFF714BFF9
:1045300001230362D4F8903043F00103C4F89030B3
:10454000930706F0010E0AD5BEF1000F07D0022333
:104550000362D4F8903043F00403C4F8903053075A
:104560000AD5BEF1000F07D004230362D4F89030BF
:1045700043F00203C4F8903013070CD501F0200378
:1045800053EA0C0307D008230362D4F8903043F0B9
:104590000803C4F8903013050BD511F0806308D0E0
:1045A0004FF400630362D4F8903043F02003C4F862
:1045B0009030D4F89030002B3FF41CAF92060AD50F
:1045C00001F0200106F08052891804D0616F11B10A
:1045D000204688472068D4F89010806800F040009A
:1045E00001F02801401807D12046FFF7BDFE00204A
:1045F000C4F8900070BD00BF206850E8000F21682B
:1046000020F4907041E80002F2B1206850E8000FF9
:10461000216820F4907041E80002002A1FBF206842
:1046200050E8000F216820F490701CBF41E80002A0
:10463000002A09D0206850E8000F216820F490700B
:1046400041E80002002AD7D14FF6FE70CEF6FF7087
:10465000216851E8021F2268014042E80213DBB1E1
:10466000216851E8021F2268014042E80213002B32
:104670001FBF216851E8021F226801401CBF42E8A9
:104680000213002B08D0216851E8021F2268014064
:1046900042E80213002BDBD1E06E012827D120680D
:1046A00050E8000F216820F0100041E80002F2B14C
:1046B000206850E8000F216820F0100041E8000257
:1046C000002A1FBF206850E8000F216820F010006A
:1046D0001CBF41E80002002A09D0206850E8000F02
:1046E000216820F0100041E80002002AD7D12020E4
:1046F000C4F88C000020E066216860678868400686
:1047000040F1E880206850E8020F216820F0400066
:1047100041E80202F2B1206850E8020F216820F05F
:10472000400041E80202002A1FBF206850E8020F43
:10473000216820F040001CBF41E80202002A09D095
:10474000206850E8020F216820F0400041E8020292
:10475000002AD7D1D4F88000002800F0BB8046F6AC
:10476000A901C0F600010165FCF71AF900283FF421
:1047700041AED4F88000016DBDE87040084700BF2D
:10478000401A216851E8001F226821F4907142E824
:104790000013F3B1216851E8001F226821F49071E1
:1047A00042E80013002B1FBF216851E8001F226858
:1047B00021F490711CBF42E80013002B09D021683E
:1047C00051E8001F226821F4907142E80013002B89
:1047D000D7D14FF6FE71CEF6FF71226852E8022F54
:1047E00023680A4043E80226DEB1226852E8022F1D
:1047F00023680A4043E80226002E1FBF226852E8C1
:10480000022F23680A401CBF43E80226002E08D06E
:10481000226852E8022F23680A4043E80226002E4D
:10482000DBD12021C4F88C100021E166616721688A
:1048300051E8001F226821F0100142E80013F3B193
:10484000216851E8001F226821F0100142E800139E
:10485000002B1FBF216851E8001F226821F01001C2
:104860001CBF42E80013002B09D0216851E8001F4B
:10487000226821F0100142E80013002BD7D181B249
:10488000022020672046BDE87040FFF7CDBC00BF86
:104890009F22C4F20202914240DC7022C4F2020262
:1048A00091424ED0882249E0A16F00297FF473AD78
:1048B000A0E500BF40F29F42C4F20202914235DC03
:1048C00040F27042C4F2020291423AD040F2884271
:1048D00034E000BF2046BDE87040FFF745BD00BF93
:1048E000D0017FF587ADB1F1FF3FC8BF70BD204655
:1048F000BDE87040FFF79CBC4022C4F20202914226
:104900001FD058221AE000BF40F24042C4F2020217
:10491000914216D040F2584210E000BFA022C4F2EB
:10492000020291420DD0B82208E000BF40F2B84226
:10493000C4F20202914204D040F2A042C4F2020248
:10494000914249688AB2002A3FF454ADB4F85C3011
:104950009A42BFF44FADA4F85E10C069B0F5807FF5
:1049600000F0A980206850E8000F216820F48070D2
:1049700041E80002F2B1206850E8000F216820F4FD
:10498000807041E80002002A1FBF206850E8000F35
:10499000216820F480701CBF41E80002002A09D081
:1049A000206850E8000F216820F4807041E8000280
:1049B000002AD7D1206850E8020F216820F00100BA
:1049C00041E80202F2B1206850E8020F216820F0AD
:1049D000010041E80202002A1FBF206850E8020FD0
:1049E000216820F001001CBF41E80202002A09D022
:1049F000206850E8020F216820F0010041E802021F
:104A0000002AD7D1206850E8020F216820F040002A
:104A100041E80202F2B1206850E8020F216820F05C
:104A2000400041E80202002A1FBF206850E8020F40
:104A3000216820F040001CBF41E80202002A09D092
:104A4000206850E8020F216820F0400041E802028F
:104A5000002AD7D12020C4F88C000020E06620680E
:104A600050E8000F216820F0100041E80002F2B188
:104A7000206850E8000F216820F0100041E8000293
:104A8000002A1FBF206850E8000F216820F01000A6
:104A90001CBF41E80002002A09D0206850E8000F3E
:104AA000216820F0100041E80002002AD7D1D4F894
:104AB0008000FBF7DDFC02202067B4F85C00B4F84E
:104AC0005E10401A81B22046BDE87040FFF7ACBBD3
:104AD00010B5D8B10446D0F8880028B9002084F871
:104AE0008400204600F028F82420C4F888002068BC
:104AF000A16A0268002922F00101016002D020466B
:104B000001F0A6FD204602F0D3FB08B1012010BD44
:104B10002068416821F490414160816821F02A01B8
:104B20008160016841F0010101602046BDE810404C
:104B300001F0FEBD00000000B0B5B8B0044602A808
:104B4000C0210025CDE93655CDE934553395FBF725
:104B5000F7FB44F200412068C4F20001884237D0DC
:104B600041F20041C4F20101884259D041F20001F2
:104B7000C4F20101884240F08D80002003900120A2
:104B8000029002A8FCF770FE08B1FBF769FC44F242
:104B9000E0402524C5F60200016941F010010161E1
:104BA000016901F0100101910199016841F00201D0
:104BB00001600068002100F002000190C5F60201CA
:104BC00001984FF44040339001F58060042150E09B
:104BD0000220029002A80395FCF746FE08B1FBF7FD
:104BE0003FFC44F2E0402624C5F60200816841F40F
:104BF00000318160816801F40031019101990168FF
:104C000041F0010101600068072100F001000190FE
:104C100001980C2033900020C5F6020029E000BF67
:104C2000002003900120029002A8FCF71DFE08B1AD
:104C3000FBF716FC44F2E0404724C5F60200016988
:104C400041F020010161016901F020010191019908
:104C5000016841F0040101600068002100F00400D7
:104C60000190C5F602010198C020339001F5006063
:104C70000721379133A9022234920022CDE935224F
:104C8000FBF7FEFF002100222046FCF741FC2046F6
:104C9000FCF72AFC38B0B0BDD0F88C30202B07D1FF
:104CA0000123002918BF002A06D11846704700BF0B
:104CB00002231846704700BF80B50023C36640F644
:104CC0000043D0F800C0C5F600039C4503D0DCF8D3
:104CD00004301B0204D402F033FD002080BD00BF6D
:104CE000036853E800CFD0F800E04CF080634EE852
:104CF000003CBCF1000FEED0036853E800CFD0F8C1
:104D000000E04CF080634EE8003CBCF1000F1FBF98
:104D1000036853E800CFD0F800E04CF080631CBF7C
:104D20004EE8003CBCF1000FD5D0036853E800CF3B
:104D3000D0F800E04CF080634EE8003CBCF1000F7E
:104D4000CED1C8E70000000070B52DED028B40F217
:104D50001C31C2F20041884248D040F24441C2F2C4
:104D60000041884252D040F2B031C2F20041884244
:104D70001CBFBDEC028B70BD40F2E806C2F20046DB
:104D8000B06996F83A20012852D1A52A40F0B280A5
:104D900096F845005A2840F0AD8096F83B0002286E
:104DA00000F08680012840F0878040F22C0140F21C
:104DB0003002C2F20041C2F20042012030710868A4
:104DC0001468C11730627162E517B462F562FBF7CF
:104DD000C2FA08EE100A20462946FBF7BCFA00EE9C
:104DE000900AB0EE480A03F0A3F983E040F2E8022B
:104DF00040F21C30C2F20042C2F2004002F1300127
:104E0000BDEC028BBDE8704003F0A2BE40F2E800AA
:104E1000C2F2004000F14601421C40F24440C2F29E
:104E20000040BDEC028BBDE8704003F0D1BE00BF76
:104E300044F2001140F20000032AC0F24201C2F223
:104E400000401BD396F83B20022A1FD996F83C203D
:104E5000022A23D996F83D20022A02D8D200D14056
:104E6000C17040F2B03006F13A01C2F200400422B3
:104E7000BDEC028BBDE87040FFF70EBFD20021FAF7
:104E800002F2027096F83B20022ADFD8D20021FA03
:104E900002F2427096F83C20022ADBD8D20021FAB6
:104EA00002F2827096F83D20022AD7D9D9E700BFD6
:104EB000022030711EE000BFD6E90F01F061B0EEB4
:104EC000081A0020307140F21C00C2F2004096ED3A
:104ED000070AF16196ED072A82EE011A30EE012AE7
:104EE00080ED002A40F22000C2F2004030EE410A7C
:104EF00080ED000A40F2B03006F13A01C2F2004003
:104F00000C22BDEC028BBDE87040FFF7C5BE00006F
:104F10002DE9F0410446D0F88800202846D10D46FE
:104F200000294FF0010000F0BD801646002A08BF9E
:104F3000BDE8F08198460020C4F890002120C4F814
:104F40008800FBF789FFA4F85460A4F85660064671
:104F5000A168B1F5805F02D12069002870D02F468A
:104F60000025B4F85600002870D018F1010021D0B7
:104F7000B8F1000F42D121680CE000BF17F8010B17
:104F80008862B4F856000138A4F85600B4F8560008
:104F900000285CD0C869000640F17E80002FEDD16A
:104FA00035F8020B00276FF35F20E9E70220BDE828
:104FB000F08100BF216802E0C869000609D4C86911
:104FC000000606D4C86900065CBFC8695FEA0060D5
:104FD000F2D51FB117F8010B05E000BF35F8020B41
:104FE00000276FF35F208862B4F856000138A4F8F8
:104FF0005600B4F856000028E1D128E0216800BF2F
:10500000C869000608D4FBF727FF801B404545D838
:1050100021680868F4E700BF17B117F8010B04E036
:1050200035F8020B00276FF35F208862B4F8560052
:105030000138A4F85600B4F856000028E0D106E084
:105040000027B4F8560000287FF48FAF2168C869A4
:1050500040061FD4B8F1000F1ED018F101000FD187
:10506000C869400616D4C869400613D4C86940060A
:1050700010D4C86940064FF00000F1D50FE000BF22
:10508000FBF7EAFE801B404508D820680168C0692C
:105090004006F5D5002002E0FBF7DEFE03202021CC
:1050A000C4F88810BDE8F0817047000000000000DF
:1050B000FEE700000000000070B504460068836948
:1050C000DB0603D40021002269E000BF0E46102158
:1050D000C161816989065ED4711C52D0154636BB08
:1050E000FBF7BAFE2068426894F8421083691B04FB
:1050F0000CD512F4804209D1202907D0416841F42F
:1051000080414160FBF7A8FE054600BF2068816929
:10511000890605D4FBF7A0FE401B1A28F6D328E029
:1051200081698906DCD536E08169890633D4FBF7CD
:1051300093FE401BB0422068F6D9426894F84210B2
:1051400083691B040CD512F4804209D1202907D0B1
:10515000416841F480414160FBF77EFE054600BF97
:10516000206881698906DFD4FBF776FE401B1A2888
:10517000F6D3206801228169242110E08169890623
:1051800009D48169890606D4816989065CBF816971
:105190005FEA8161F2D52021C16101220421836986
:1051A000DE0505D541F001014FF48072C261012294
:1051B0005E0505D49B050AD472B9002070BD00BFFE
:1051C00041F008019A054FF48062C26104D541F0B4
:1051D00002014FF40072C2618269920701D5002278
:1051E00082628269D20703D1826942F00102826140
:1051F0004EF600034268CFF600631A404260606CCE
:1052000008436064202084F84100002084F84200B4
:1052100084F84000012070BD2DE9F041044600688B
:1052200080690840401AB0FA80F04009904221D1CC
:105230000D4616461F46581CDDF8188027D0CFBBF8
:10524000002120464246FFF737FF002853D1FBF7E5
:1052500003FE206881692940491BB1FA81F149099F
:10526000B1423CD080692840401BB0FA80F0400930
:10527000B042E5D00020BDE8F08100BF2068806921
:105280002840401BB0FA80F04009B042F2D14FF004
:10529000FF3120464246FFF70FFF0028EED00120E5
:1052A000BDE8F08180692840401BB0FA80F04009D9
:1052B000B042DFD1204639464246FFF7FDFED0B965
:1052C000FBF7CAFDA0EB0800B8422068EAD9816963
:1052D0002940491BB1FA81F14909B142E2D1606C20
:1052E00040F020006064202084F84100002084F811
:1052F000420084F840000120BDE8F0810000000079
:1053000070B5044600688069800635D415460E469F
:1053100019B928E0806980062ED4204631462A46F5
:10532000FFF7CAFE30BBFBF797FD401BB042206879
:10533000F0D981698906EDD4606C40F0200060648A
:10534000202084F84100002084F8420084F84000C6
:10535000012070BDFBF780FD206881698906EBD5CF
:105360008069800608D4002120462A46FFF7A4FE63
:105370000028EFD0012070BD002070BD00000000AB
:1053800070B5044600688069800714D415460E463F
:10539000481C17D01EBB00BF002120462A46FFF73D
:1053A0008BFEB8BBFBF758FD20688169890725D5BE
:1053B00080698007F0D5002070BD00BF206880693B
:1053C0008007F8D44FF0FF3120462A46FFF774FEDD
:1053D0000028F3D0012070BD80698007EBD42046FF
:1053E00031462A46FFF768FEA0B9FBF735FD401BA2
:1053F000B0422068F0D981698907EDD4606C40F033
:1054000020006064202084F84100002084F84200DD
:1054100084F84000012070BD2DE9F04F87B044F2C0
:10542000E0400025C5F6020040F20048CDE90555F0
:105430000168C5F6020841F010010160016808F535
:10544000406601F0100101910199016841F080016D
:1054500001600168012201F0800101910199016858
:1054600041F00101016001684FF0010A01F0010102
:1054700001910199016841F004010160016801F0A6
:10548000040101910199016841F002010160016884
:1054900001F0020101910199016841F008010160E8
:1054A00000684CF2030100F00800019001983046BA
:1054B000FBF7C2FC4FF4485100224046FBF7BCFC0E
:1054C00008F500694FF4E06100224846FBF7B4FCA0
:1054D0004FF4006101224846FBF7AEFC08F58067F7
:1054E0004FF48061012238464FF4806BFBF7A4FC37
:1054F00002AC0820CDE90205304621460495FBF7B1
:10550000BFFB02A9102081E8210438462146FBF7A1
:10551000B7FB02A9052081E8210440462146FBF79C
:10552000AFFB4CF203002146CDE9020A3046CDE93B
:105530000455FBF7A5FB4FF448502146CDE9020A7C
:105540004046CDE90455FBF79BFB4FF470602146C4
:10555000CDE9020A4846CDE90455FBF791FB3846F0
:105560002146CDE902BACDE90455FBF789FB07B026
:10557000BDE8F08F0000000080B540F2441045F611
:105580000001C2F2004041F24F72C4F20001C0F2C9
:105590005002C0E90012002181600122C0E903210C
:1055A000C0E90511C0E90711FBF7C2FC08B1FAF721
:1055B00057FF40F244100021C2F20040FBF754FCB8
:1055C00008B1FAF74DFF40F244100021C2F200404A
:1055D000FBF772FC08B1FAF743FF0220BDE88040F8
:1055E000FBF78EBC0000000080B540F2981045F635
:1055F0000041C2F2004041F24F72C4F20001C0F219
:105600005002C0E90012002181600122C0E903219B
:10561000C0E90511C0E90711FBF78AFC08B1FAF7E8
:105620001FFF40F298100021C2F20040FBF71CFC63
:1056300008B1FAF715FF40F298100021C2F20040BD
:10564000FBF73AFC08B1FAF70BFF0420BDE88040F5
:10565000FBF756BC0000000010B590B040F2EC1013
:105660000024C2F200400994CDE90644CDE9044487
:105670004FF08041016007218461C0E9011442F2CA
:105680000F71C0E90314FEF707FA08B1FAF7E8FE54
:1056900040F2EC1008A9C2F2004008940A94FDF709
:1056A000A7FB08B1FAF7DCFE60200190002005900E
:1056B000CDE9020040F2EC1001A9C2F20040002244
:1056C000FDF78EFF08B1FAF7CBFE40F2EC1401A90A
:1056D000C2F2004404222046FDF782FF08B1FAF727
:1056E000BFFE2068B0F1804F02D010B010BD00BFE7
:1056F00044F2E040C5F60200016841F0010101609A
:1057000000680BA900F001000B900B9803200B9090
:1057100002200C900020CDE90D0001200F90002008
:10572000C5F60200FBF7ACFA10B010BD0000000097
:1057300010B58CB040F2382040F20041C2F2004077
:105740000024C4F200010194C0E900144FF6FF7177
:105750008460C0E903148021816103210B94CDE9A9
:1057600003140121CDE90514CDE9091403A9CDE9FC
:105770000744FDF755FD08B1FAF772FE40F23820F4
:105780006946C2F2004000940294FDF731FB08B173
:10579000FAF766FE0CB010BD10B58CB040F2842054
:1057A00040F60001C2F200400024C4F2000101945E
:1057B000C0E900144FF6FF718460C0E90314802132
:1057C000816103210B94CDE903140121CDE9051476
:1057D000CDE9091403A9CDE90744FDF721FD08B17E
:1057E000FAF73EFE40F284206946C2F2004000947F
:1057F0000294FDF7FDFA08B1FAF732FE0CB010BDC5
:1058000080B588B040F2D02040F60042C2F200409D
:1058100000210791C4F20002CDE905110291026056
:10582000EF22C0E9012142F20F72C0E90321802179
:105830008161FDF745FB08B1FAF712FE4FF4805085
:10584000049040F2D02004A9C2F20040FDF7E8FB2A
:1058500008B1FAF705FE00200190039040F2D02035
:10586000C2F2004001A9FDF7C3FA08B1FAF7F8FD4A
:1058700008B080BD0000000080B540F21C3041F24D
:105880000001C2F20040C4F201010C2201604FF499
:10589000E13141600021C0E902110161C0E9052147
:1058A000C0E90711C0E90911FFF712F908B1FAF7C9
:1058B000D7FD40F21C300021C2F20040FEF704FD8B
:1058C00008B1FAF7CDFD40F21C300021C2F20040D1
:1058D000FEF7B2FC08B1FAF7C3FD40F21C30C2F289
:1058E0000040FEF785FC002808BF80BDBDE8804071
:1058F000FAF7B6BD0000000080B540F2B03044F2C7
:105900000041C2F20040C4F200010C2201604FF4D9
:10591000165141600021C0E902110161C0E9052171
:10592000C0E90711C0E90911FFF7D2F808B1FAF789
:1059300097FD40F2B0300021C2F20040FEF7C4FCF7
:1059400008B1FAF78DFD40F2B0300021C2F20040FC
:10595000FEF772FC08B1FAF783FD40F2B030C2F2F4
:105960000040FEF745FC002808BF80BDBDE8804030
:10597000FAF776BD0000000080B540F2444041F2E5
:105980000041C2F20040C4F201010C2201604FF458
:10599000E13141600021C0E902110161C0E9052146
:1059A000C0E90711C0E90911FFF792F808B1FAF749
:1059B00057FD40F244400021C2F20040FEF784FC53
:1059C00008B1FAF74DFD40F244400021C2F2004018
:1059D000FEF732FC08B1FAF743FD40F24440C2F250
:1059E0000040FEF705FC002808BF80BDBDE88040F0
:1059F000FAF736BD00000000FEE7000000000000DE
:105A0000FEE70000000000002DE9F04F85B040F2F5
:105A1000441400254FF480760127C2F200440DF1B2
:105A2000120B0DF113084FF0000900BF09F1B0008F
:105A30008DF8100004A87821CDE900070022012389
:105A400020460296FBF7CCFA0DF111007821CDE942
:105A500000070022012320468DF811500296FBF723
:105A6000BFFA10208DF81200782100220123204671
:105A7000CDE900B70296FBF7B3FA4FF0000A00BF7A
:105A800078214022012320468DF81350CDE900876C
:105A90000296FBF7A5FA0AF101004FFA80FABAF173
:105AA000FF3FEDDCB9F1070F09F10109BED305B0E5
:105AB000BDE8F08F0000000080B5C820FBF7CCF8EF
:105AC000BDE8804002F040B92DE9F04F89B047B2FF
:105AD000203AC0F3C010102B27EAE77701EB40060D
